{
  "_format": "hh-sol-artifact-1",
  "contractName": "MockPermitERC20",
  "sourceName": "contracts/mocks/MockPermitERC20.sol",
  "abi": [
    {
      "inputs": [
        {
          "internalType": "string",
          "name": "_name",
          "type": "string"
        },
        {
          "internalType": "string",
          "name": "_symbol",
          "type": "string"
        },
        {
          "internalType": "uint8",
          "name": "_decimals",
          "type": "uint8"
        }
      ],
      "stateMutability": "nonpayable",
      "type": "constructor"
    },
    {
      "anonymous": false,
      "inputs": [
        {
          "indexed": true,
          "internalType": "address",
          "name": "owner",
          "type": "address"
        },
        {
          "indexed": true,
          "internalType": "address",
          "name": "spender",
          "type": "address"
        },
        {
          "indexed": false,
          "internalType": "uint256",
          "name": "value",
          "type": "uint256"
        }
      ],
      "name": "Approval",
      "type": "event"
    },
    {
      "anonymous": false,
      "inputs": [
        {
          "indexed": true,
          "internalType": "address",
          "name": "from",
          "type": "address"
        },
        {
          "indexed": true,
          "internalType": "address",
          "name": "to",
          "type": "address"
        },
        {
          "indexed": false,
          "internalType": "uint256",
          "name": "value",
          "type": "uint256"
        }
      ],
      "name": "Transfer",
      "type": "event"
    },
    {
      "inputs": [],
      "name": "DOMAIN_SEPARATOR",
      "outputs": [
        {
          "internalType": "bytes32",
          "name": "",
          "type": "bytes32"
        }
      ],
      "stateMutability": "view",
      "type": "function"
    },
    {
      "inputs": [
        {
          "internalType": "address",
          "name": "owner",
          "type": "address"
        },
        {
          "internalType": "address",
          "name": "spender",
          "type": "address"
        }
      ],
      "name": "allowance",
      "outputs": [
        {
          "internalType": "uint256",
          "name": "",
          "type": "uint256"
        }
      ],
      "stateMutability": "view",
      "type": "function"
    },
    {
      "inputs": [
        {
          "internalType": "address",
          "name": "spender",
          "type": "address"
        },
        {
          "internalType": "uint256",
          "name": "amount",
          "type": "uint256"
        }
      ],
      "name": "approve",
      "outputs": [
        {
          "internalType": "bool",
          "name": "",
          "type": "bool"
        }
      ],
      "stateMutability": "nonpayable",
      "type": "function"
    },
    {
      "inputs": [
        {
          "internalType": "address",
          "name": "account",
          "type": "address"
        }
      ],
      "name": "balanceOf",
      "outputs": [
        {
          "internalType": "uint256",
          "name": "",
          "type": "uint256"
        }
      ],
      "stateMutability": "view",
      "type": "function"
    },
    {
      "inputs": [],
      "name": "decimals",
      "outputs": [
        {
          "internalType": "uint8",
          "name": "",
          "type": "uint8"
        }
      ],
      "stateMutability": "view",
      "type": "function"
    },
    {
      "inputs": [
        {
          "internalType": "address",
          "name": "spender",
          "type": "address"
        },
        {
          "internalType": "uint256",
          "name": "subtractedValue",
          "type": "uint256"
        }
      ],
      "name": "decreaseAllowance",
      "outputs": [
        {
          "internalType": "bool",
          "name": "",
          "type": "bool"
        }
      ],
      "stateMutability": "nonpayable",
      "type": "function"
    },
    {
      "inputs": [
        {
          "internalType": "address",
          "name": "spender",
          "type": "address"
        },
        {
          "internalType": "uint256",
          "name": "addedValue",
          "type": "uint256"
        }
      ],
      "name": "increaseAllowance",
      "outputs": [
        {
          "internalType": "bool",
          "name": "",
          "type": "bool"
        }
      ],
      "stateMutability": "nonpayable",
      "type": "function"
    },
    {
      "inputs": [
        {
          "internalType": "address",
          "name": "account",
          "type": "address"
        },
        {
          "internalType": "uint256",
          "name": "amount",
          "type": "uint256"
        }
      ],
      "name": "mint",
      "outputs": [],
      "stateMutability": "nonpayable",
      "type": "function"
    },
    {
      "inputs": [],
      "name": "name",
      "outputs": [
        {
          "internalType": "string",
          "name": "",
          "type": "string"
        }
      ],
      "stateMutability": "view",
      "type": "function"
    },
    {
      "inputs": [
        {
          "internalType": "address",
          "name": "owner",
          "type": "address"
        }
      ],
      "name": "nonces",
      "outputs": [
        {
          "internalType": "uint256",
          "name": "",
          "type": "uint256"
        }
      ],
      "stateMutability": "view",
      "type": "function"
    },
    {
      "inputs": [
        {
          "internalType": "address",
          "name": "owner",
          "type": "address"
        },
        {
          "internalType": "address",
          "name": "spender",
          "type": "address"
        },
        {
          "internalType": "uint256",
          "name": "amount",
          "type": "uint256"
        },
        {
          "internalType": "uint256",
          "name": "deadline",
          "type": "uint256"
        },
        {
          "internalType": "uint8",
          "name": "v",
          "type": "uint8"
        },
        {
          "internalType": "bytes32",
          "name": "r",
          "type": "bytes32"
        },
        {
          "internalType": "bytes32",
          "name": "s",
          "type": "bytes32"
        }
      ],
      "name": "permit",
      "outputs": [],
      "stateMutability": "nonpayable",
      "type": "function"
    },
    {
      "inputs": [],
      "name": "symbol",
      "outputs": [
        {
          "internalType": "string",
          "name": "",
          "type": "string"
        }
      ],
      "stateMutability": "view",
      "type": "function"
    },
    {
      "inputs": [],
      "name": "totalSupply",
      "outputs": [
        {
          "internalType": "uint256",
          "name": "",
          "type": "uint256"
        }
      ],
      "stateMutability": "view",
      "type": "function"
    },
    {
      "inputs": [
        {
          "internalType": "address",
          "name": "recipient",
          "type": "address"
        },
        {
          "internalType": "uint256",
          "name": "amount",
          "type": "uint256"
        }
      ],
      "name": "transfer",
      "outputs": [
        {
          "internalType": "bool",
          "name": "",
          "type": "bool"
        }
      ],
      "stateMutability": "nonpayable",
      "type": "function"
    },
    {
      "inputs": [
        {
          "internalType": "address",
          "name": "sender",
          "type": "address"
        },
        {
          "internalType": "address",
          "name": "recipient",
          "type": "address"
        },
        {
          "internalType": "uint256",
          "name": "amount",
          "type": "uint256"
        }
      ],
      "name": "transferFrom",
      "outputs": [
        {
          "internalType": "bool",
          "name": "",
          "type": "bool"
        }
      ],
      "stateMutability": "nonpayable",
      "type": "function"
    }
  ],
  "bytecode": "0x60806040523480156200001157600080fd5b506040516200186738038062001867833981810160405260608110156200003757600080fd5b81019080805160405193929190846401000000008211156200005857600080fd5b9083019060208201858111156200006e57600080fd5b82516401000000008111828201881017156200008957600080fd5b82525081516020918201929091019080838360005b83811015620000b85781810151838201526020016200009e565b50505050905090810190601f168015620000e65780820380516001836020036101000a031916815260200191505b50604052602001805160405193929190846401000000008211156200010a57600080fd5b9083019060208201858111156200012057600080fd5b82516401000000008111828201881017156200013b57600080fd5b82525081516020918201929091019080838360005b838110156200016a57818101518382015260200162000150565b50505050905090810190601f168015620001985780820380516001836020036101000a031916815260200191505b50604052602001519150620001b9905083836001600160e01b03620001ea16565b620001cd836001600160e01b03620002d816565b620001e1816001600160e01b03620003de16565b505050620006f0565b600054610100900460ff16806200020f57506200020f6001600160e01b03620003f416565b806200021e575060005460ff16155b6200025b5760405162461bcd60e51b815260040180806020018281038252602e81526020018062001839602e913960400191505060405180910390fd5b600054610100900460ff1615801562000287576000805460ff1961ff0019909116610100171660011790555b82516200029c9060689060208601906200064e565b508151620002b29060699060208501906200064e565b50606a805460ff191660121790558015620002d3576000805461ff00191690555b505050565b600054610100900460ff1680620002fd5750620002fd6001600160e01b03620003f416565b806200030c575060005460ff16155b620003495760405162461bcd60e51b815260040180806020018281038252602e81526020018062001839602e913960400191505060405180910390fd5b600054610100900460ff1615801562000375576000805460ff1961ff0019909116610100171660011790555b620003886001600160e01b03620003fb16565b620003b382604051806040016040528060018152602001603160f81b815250620004ae60201b60201c565b620003c7826001600160e01b036200057f16565b8015620003da576000805461ff00191690555b5050565b606a805460ff191660ff92909216919091179055565b303b155b90565b600054610100900460ff1680620004205750620004206001600160e01b03620003f416565b806200042f575060005460ff16155b6200046c5760405162461bcd60e51b815260040180806020018281038252602e81526020018062001839602e913960400191505060405180910390fd5b600054610100900460ff1615801562000498576000805460ff1961ff0019909116610100171660011790555b8015620004ab576000805461ff00191690555b50565b600054610100900460ff1680620004d35750620004d36001600160e01b03620003f416565b80620004e2575060005460ff16155b6200051f5760405162461bcd60e51b815260040180806020018281038252602e81526020018062001839602e913960400191505060405180910390fd5b600054610100900460ff161580156200054b576000805460ff1961ff0019909116610100171660011790555b82516020808501919091208351918401919091206097919091556098558015620002d3576000805461ff0019169055505050565b600054610100900460ff1680620005a45750620005a46001600160e01b03620003f416565b80620005b3575060005460ff16155b620005f05760405162461bcd60e51b815260040180806020018281038252602e81526020018062001839602e913960400191505060405180910390fd5b600054610100900460ff161580156200061c576000805460ff1961ff0019909116610100171660011790555b604051806052620017e7823960405190819003605201902060cc55508015620003da576000805461ff00191690555050565b828054600181600116156101000203166002900490600052602060002090601f016020900481019282601f106200069157805160ff1916838001178555620006c1565b82800160010185558215620006c1579182015b82811115620006c1578251825591602001919060010190620006a4565b50620006cf929150620006d3565b5090565b620003f891905b80821115620006cf5760008155600101620006da565b6110e780620007006000396000f3fe608060405234801561001057600080fd5b50600436106100f55760003560e01c806340c10f1911610097578063a457c2d711610066578063a457c2d7146102db578063a9059cbb14610307578063d505accf14610333578063dd62ed3e14610384576100f5565b806340c10f191461025957806370a08231146102875780637ecebe00146102ad57806395d89b41146102d3576100f5565b806323b872dd116100d357806323b872dd146101d1578063313ce567146102075780633644e51514610225578063395093511461022d576100f5565b806306fdde03146100fa578063095ea7b31461017757806318160ddd146101b7575b600080fd5b6101026103b2565b6040805160208082528351818301528351919283929083019185019080838360005b8381101561013c578181015183820152602001610124565b50505050905090810190601f1680156101695780820380516001836020036101000a031916815260200191505b509250505060405180910390f35b6101a36004803603604081101561018d57600080fd5b506001600160a01b038135169060200135610448565b604080519115158252519081900360200190f35b6101bf610465565b60408051918252519081900360200190f35b6101a3600480360360608110156101e757600080fd5b506001600160a01b0381358116916020810135909116906040013561046b565b61020f6104f8565b6040805160ff9092168252519081900360200190f35b6101bf610501565b6101a36004803603604081101561024357600080fd5b506001600160a01b038135169060200135610510565b6102856004803603604081101561026f57600080fd5b506001600160a01b038135169060200135610564565b005b6101bf6004803603602081101561029d57600080fd5b50356001600160a01b0316610572565b6101bf600480360360208110156102c357600080fd5b50356001600160a01b031661058d565b6101026105b4565b6101a3600480360360408110156102f157600080fd5b506001600160a01b038135169060200135610615565b6101a36004803603604081101561031d57600080fd5b506001600160a01b038135169060200135610683565b610285600480360360e081101561034957600080fd5b506001600160a01b03813581169160208101359091169060408101359060608101359060ff6080820135169060a08101359060c00135610697565b6101bf6004803603604081101561039a57600080fd5b506001600160a01b038135811691602001351661082f565b60688054604080516020601f600260001961010060018816150201909516949094049384018190048102820181019092528281526060939092909183018282801561043e5780601f106104135761010080835404028352916020019161043e565b820191906000526020600020905b81548152906001019060200180831161042157829003601f168201915b5050505050905090565b600061045c61045561085a565b848461085e565b50600192915050565b60675490565b600061047884848461094a565b6104ee8461048461085a565b6104e98560405180606001604052806028815260200161101c602891396001600160a01b038a166000908152606660205260408120906104c261085a565b6001600160a01b03168152602081019190915260400160002054919063ffffffff610ab316565b61085e565b5060019392505050565b606a5460ff1690565b600061050b610b4a565b905090565b600061045c61051d61085a565b846104e9856066600061052e61085a565b6001600160a01b03908116825260208083019390935260409182016000908120918c16815292529020549063ffffffff610b7d16565b61056e8282610bde565b5050565b6001600160a01b031660009081526065602052604090205490565b6001600160a01b038116600090815260cb602052604081206105ae90610cdc565b92915050565b60698054604080516020601f600260001961010060018816150201909516949094049384018190048102820181019092528281526060939092909183018282801561043e5780601f106104135761010080835404028352916020019161043e565b600061045c61062261085a565b846104e98560405180606001604052806025815260200161108d602591396066600061064c61085a565b6001600160a01b03908116825260208083019390935260409182016000908120918d1681529252902054919063ffffffff610ab316565b600061045c61069061085a565b848461094a565b834211156106ec576040805162461bcd60e51b815260206004820152601d60248201527f45524332305065726d69743a206578706972656420646561646c696e65000000604482015290519081900360640190fd5b600060cc5488888861072160cb60008e6001600160a01b03166001600160a01b03168152602001908152602001600020610cdc565b604080516020808201979097526001600160a01b0395861681830152939094166060840152608083019190915260a082015260c08082018990528251808303909101815260e090910190915280519101209050600061077f82610ce0565b9050600061078f82878787610d2c565b9050896001600160a01b0316816001600160a01b0316146107f7576040805162461bcd60e51b815260206004820152601e60248201527f45524332305065726d69743a20696e76616c6964207369676e61747572650000604482015290519081900360640190fd5b6001600160a01b038a16600090815260cb6020526040902061081890610ea6565b6108238a8a8a61085e565b50505050505050505050565b6001600160a01b03918216600090815260666020908152604080832093909416825291909152205490565b3390565b6001600160a01b0383166108a35760405162461bcd60e51b81526004018080602001828103825260248152602001806110696024913960400191505060405180910390fd5b6001600160a01b0382166108e85760405162461bcd60e51b8152600401808060200182810382526022815260200180610f3e6022913960400191505060405180910390fd5b6001600160a01b03808416600081815260666020908152604080832094871680845294825291829020859055815185815291517f8c5be1e5ebec7d5bd14f71427d1e84f3dd0314c0f7b2291e5b200ac8c7c3b9259281900390910190a3505050565b6001600160a01b03831661098f5760405162461bcd60e51b81526004018080602001828103825260258152602001806110446025913960400191505060405180910390fd5b6001600160a01b0382166109d45760405162461bcd60e51b8152600401808060200182810382526023815260200180610f1b6023913960400191505060405180910390fd5b6109df838383610eaf565b610a2281604051806060016040528060268152602001610f60602691396001600160a01b038616600090815260656020526040902054919063ffffffff610ab316565b6001600160a01b038085166000908152606560205260408082209390935590841681522054610a57908263ffffffff610b7d16565b6001600160a01b0380841660008181526065602090815260409182902094909455805185815290519193928716927fddf252ad1be2c89b69c2b068fc378daa952ba7f163c4a11628f55a4df523b3ef92918290030190a3505050565b60008184841115610b425760405162461bcd60e51b81526004018080602001828103825283818151815260200191508051906020019080838360005b83811015610b07578181015183820152602001610aef565b50505050905090810190601f168015610b345780820380516001836020036101000a031916815260200191505b509250505060405180910390fd5b505050900390565b600061050b6040518080610fca6052913960520190506040518091039020610b70610eb4565b610b78610eba565b610ec0565b600082820183811015610bd7576040805162461bcd60e51b815260206004820152601b60248201527f536166654d6174683a206164646974696f6e206f766572666c6f770000000000604482015290519081900360640190fd5b9392505050565b6001600160a01b038216610c39576040805162461bcd60e51b815260206004820152601f60248201527f45524332303a206d696e7420746f20746865207a65726f206164647265737300604482015290519081900360640190fd5b610c4560008383610eaf565b606754610c58908263ffffffff610b7d16565b6067556001600160a01b038216600090815260656020526040902054610c84908263ffffffff610b7d16565b6001600160a01b03831660008181526065602090815260408083209490945583518581529351929391927fddf252ad1be2c89b69c2b068fc378daa952ba7f163c4a11628f55a4df523b3ef9281900390910190a35050565b5490565b6000610cea610b4a565b82604051602001808061190160f01b81525060020183815260200182815260200192505050604051602081830303815290604052805190602001209050919050565b60007f7fffffffffffffffffffffffffffffff5d576e7357a4501ddfe92f46681b20a0821115610d8d5760405162461bcd60e51b8152600401808060200182810382526022815260200180610f866022913960400191505060405180910390fd5b8360ff16601b1480610da257508360ff16601c145b610ddd5760405162461bcd60e51b8152600401808060200182810382526022815260200180610fa86022913960400191505060405180910390fd5b604080516000808252602080830180855289905260ff88168385015260608301879052608083018690529251909260019260a080820193601f1981019281900390910190855afa158015610e35573d6000803e3d6000fd5b5050604051601f1901519150506001600160a01b038116610e9d576040805162461bcd60e51b815260206004820152601860248201527f45434453413a20696e76616c6964207369676e61747572650000000000000000604482015290519081900360640190fd5b95945050505050565b80546001019055565b505050565b60975490565b60985490565b6000838383610ecd610f16565b6040805160208082019690965280820194909452606084019290925260808301523060a0808401919091528151808403909101815260c090920190528051910120949350505050565b469056fe45524332303a207472616e7366657220746f20746865207a65726f206164647265737345524332303a20617070726f766520746f20746865207a65726f206164647265737345524332303a207472616e7366657220616d6f756e7420657863656564732062616c616e636545434453413a20696e76616c6964207369676e6174757265202773272076616c756545434453413a20696e76616c6964207369676e6174757265202776272076616c7565454950373132446f6d61696e28737472696e67206e616d652c737472696e672076657273696f6e2c75696e7432353620636861696e49642c6164647265737320766572696679696e67436f6e74726163742945524332303a207472616e7366657220616d6f756e74206578636565647320616c6c6f77616e636545524332303a207472616e736665722066726f6d20746865207a65726f206164647265737345524332303a20617070726f76652066726f6d20746865207a65726f206164647265737345524332303a2064656372656173656420616c6c6f77616e63652062656c6f77207a65726fa264697066735822122038329b2de2ff804db38fb7a7b585bc74d24911e2fbdfe47aab1e96db9fbdeff064736f6c634300060a00335065726d69742861646472657373206f776e65722c61646472657373207370656e6465722c75696e743235362076616c75652c75696e74323536206e6f6e63652c75696e7432353620646561646c696e6529436f6e747261637420696e7374616e63652068617320616c7265616479206265656e20696e697469616c697a6564",
  "linkReferences": {},
  "deployedLinkReferences": {}
}