{
  "contracts/mocks/MockWhitelistModule.sol": {
    "MockWhitelistModule": {
      "abi": [
        {
          "inputs": [
            {
              "internalType": "address",
              "name": "",
              "type": "address"
            }
          ],
          "name": "_isWhitelistedOtoken",
          "outputs": [
            {
              "internalType": "bool",
              "name": "",
              "type": "bool"
            }
          ],
          "stateMutability": "view",
          "type": "function"
        },
        {
          "inputs": [
            {
              "internalType": "address",
              "name": "_callee",
              "type": "address"
            }
          ],
          "name": "blacklistCallee",
          "outputs": [],
          "stateMutability": "nonpayable",
          "type": "function"
        },
        {
          "inputs": [
            {
              "internalType": "address",
              "name": "_callee",
              "type": "address"
            }
          ],
          "name": "isWhitelistedCallee",
          "outputs": [
            {
              "internalType": "bool",
              "name": "",
              "type": "bool"
            }
          ],
          "stateMutability": "view",
          "type": "function"
        },
        {
          "inputs": [
            {
              "internalType": "address",
              "name": "_collateral",
              "type": "address"
            }
          ],
          "name": "isWhitelistedCollateral",
          "outputs": [
            {
              "internalType": "bool",
              "name": "",
              "type": "bool"
            }
          ],
          "stateMutability": "view",
          "type": "function"
        },
        {
          "inputs": [
            {
              "internalType": "address",
              "name": "_otoken",
              "type": "address"
            }
          ],
          "name": "isWhitelistedOtoken",
          "outputs": [
            {
              "internalType": "bool",
              "name": "",
              "type": "bool"
            }
          ],
          "stateMutability": "view",
          "type": "function"
        },
        {
          "inputs": [
            {
              "internalType": "address",
              "name": "_underlying",
              "type": "address"
            },
            {
              "internalType": "address",
              "name": "_strike",
              "type": "address"
            },
            {
              "internalType": "address",
              "name": "_collateral",
              "type": "address"
            },
            {
              "internalType": "bool",
              "name": "_isPut",
              "type": "bool"
            }
          ],
          "name": "isWhitelistedProduct",
          "outputs": [
            {
              "internalType": "bool",
              "name": "isValid",
              "type": "bool"
            }
          ],
          "stateMutability": "view",
          "type": "function"
        },
        {
          "inputs": [
            {
              "internalType": "address",
              "name": "_callee",
              "type": "address"
            }
          ],
          "name": "whitelistCallee",
          "outputs": [],
          "stateMutability": "nonpayable",
          "type": "function"
        },
        {
          "inputs": [
            {
              "internalType": "address",
              "name": "_collateral",
              "type": "address"
            }
          ],
          "name": "whitelistCollateral",
          "outputs": [],
          "stateMutability": "nonpayable",
          "type": "function"
        },
        {
          "inputs": [
            {
              "internalType": "address",
              "name": "_otoken",
              "type": "address"
            }
          ],
          "name": "whitelistOtoken",
          "outputs": [],
          "stateMutability": "nonpayable",
          "type": "function"
        },
        {
          "inputs": [
            {
              "internalType": "address",
              "name": "_underlying",
              "type": "address"
            },
            {
              "internalType": "address",
              "name": "_strike",
              "type": "address"
            },
            {
              "internalType": "address",
              "name": "_collateral",
              "type": "address"
            },
            {
              "internalType": "bool",
              "name": "_isPut",
              "type": "bool"
            }
          ],
          "name": "whitelistProduct",
          "outputs": [
            {
              "internalType": "bytes32",
              "name": "id",
              "type": "bytes32"
            }
          ],
          "stateMutability": "nonpayable",
          "type": "function"
        }
      ],
      "evm": {
        "bytecode": {
          "linkReferences": {},
          "object": "608060405234801561001057600080fd5b50610511806100206000396000f3fe608060405234801561001057600080fd5b506004361061009e5760003560e01c8063a2ae545a11610066578063a2ae545a146101b9578063a34626c4146101df578063ebd31e8e14610205578063ec7127b61461022b578063f9839d89146102515761009e565b806311946b98146100a357806327219c75146100dd578063401a83cf14610103578063708a03931461014157806382d90ebf14610169575b600080fd5b6100c9600480360360208110156100b957600080fd5b50356001600160a01b0316610277565b604080519115158252519081900360200190f35b6100c9600480360360208110156100f357600080fd5b50356001600160a01b0316610295565b6100c96004803603608081101561011957600080fd5b506001600160a01b0381358116916020810135821691604082013516906060013515156102aa565b6101676004803603602081101561015757600080fd5b50356001600160a01b0316610318565b005b6101a76004803603608081101561017f57600080fd5b506001600160a01b03813581169160208101358216916040820135169060600135151561033c565b60408051918252519081900360200190f35b6100c9600480360360208110156101cf57600080fd5b50356001600160a01b03166103b5565b610167600480360360208110156101f557600080fd5b50356001600160a01b03166103d3565b6101676004803603602081101561021b57600080fd5b50356001600160a01b031661044f565b6101676004803603602081101561024157600080fd5b50356001600160a01b0316610470565b6100c96004803603602081101561026757600080fd5b50356001600160a01b0316610494565b6001600160a01b031660009081526020819052604090205460ff1690565b60006020819052908152604090205460ff1681565b604080516bffffffffffffffffffffffff19606096871b811660208084019190915295871b811660348301529390951b9092166048850152151560f81b605c8401528051603d818503018152605d909301815282519282019290922060009081526001909152205460ff1690565b6001600160a01b03166000908152600360205260409020805460ff19166001179055565b604080516bffffffffffffffffffffffff19606096871b811660208084019190915295871b811660348301529390951b9092166048850152151560f81b605c8401528051603d818503018152605d9093018152825192820192909220600081815260019283905292909220805460ff1916909117905590565b6001600160a01b031660009081526003602052604090205460ff1690565b6001600160a01b03811660009081526002602052604090205460ff161561042b5760405162461bcd60e51b81526004018080602001828103825260298152602001806104b36029913960400191505060405180910390fd5b6001600160a01b03166000908152600260205260409020805460ff19166001179055565b6001600160a01b03166000908152600360205260409020805460ff19169055565b6001600160a01b03166000908152602081905260409020805460ff19166001179055565b6001600160a01b031660009081526002602052604090205460ff169056fe57686974656c6973743a20436f6c6c61746572616c20616c72656164792077686974656c6973746564a264697066735822122081cc5672ed9ba1d32ee132b7a970a64a9f32c450b1590959fd83ff71736ed63664736f6c634300060a0033",
          "opcodes": "PUSH1 0x80 PUSH1 0x40 MSTORE CALLVALUE DUP1 ISZERO PUSH2 0x10 JUMPI PUSH1 0x0 DUP1 REVERT JUMPDEST POP PUSH2 0x511 DUP1 PUSH2 0x20 PUSH1 0x0 CODECOPY PUSH1 0x0 RETURN INVALID PUSH1 0x80 PUSH1 0x40 MSTORE CALLVALUE DUP1 ISZERO PUSH2 0x10 JUMPI PUSH1 0x0 DUP1 REVERT JUMPDEST POP PUSH1 0x4 CALLDATASIZE LT PUSH2 0x9E JUMPI PUSH1 0x0 CALLDATALOAD PUSH1 0xE0 SHR DUP1 PUSH4 0xA2AE545A GT PUSH2 0x66 JUMPI DUP1 PUSH4 0xA2AE545A EQ PUSH2 0x1B9 JUMPI DUP1 PUSH4 0xA34626C4 EQ PUSH2 0x1DF JUMPI DUP1 PUSH4 0xEBD31E8E EQ PUSH2 0x205 JUMPI DUP1 PUSH4 0xEC7127B6 EQ PUSH2 0x22B JUMPI DUP1 PUSH4 0xF9839D89 EQ PUSH2 0x251 JUMPI PUSH2 0x9E JUMP JUMPDEST DUP1 PUSH4 0x11946B98 EQ PUSH2 0xA3 JUMPI DUP1 PUSH4 0x27219C75 EQ PUSH2 0xDD JUMPI DUP1 PUSH4 0x401A83CF EQ PUSH2 0x103 JUMPI DUP1 PUSH4 0x708A0393 EQ PUSH2 0x141 JUMPI DUP1 PUSH4 0x82D90EBF EQ PUSH2 0x169 JUMPI JUMPDEST PUSH1 0x0 DUP1 REVERT JUMPDEST PUSH2 0xC9 PUSH1 0x4 DUP1 CALLDATASIZE SUB PUSH1 0x20 DUP2 LT ISZERO PUSH2 0xB9 JUMPI PUSH1 0x0 DUP1 REVERT JUMPDEST POP CALLDATALOAD PUSH1 0x1 PUSH1 0x1 PUSH1 0xA0 SHL SUB AND PUSH2 0x277 JUMP JUMPDEST PUSH1 0x40 DUP1 MLOAD SWAP2 ISZERO ISZERO DUP3 MSTORE MLOAD SWAP1 DUP2 SWAP1 SUB PUSH1 0x20 ADD SWAP1 RETURN JUMPDEST PUSH2 0xC9 PUSH1 0x4 DUP1 CALLDATASIZE SUB PUSH1 0x20 DUP2 LT ISZERO PUSH2 0xF3 JUMPI PUSH1 0x0 DUP1 REVERT JUMPDEST POP CALLDATALOAD PUSH1 0x1 PUSH1 0x1 PUSH1 0xA0 SHL SUB AND PUSH2 0x295 JUMP JUMPDEST PUSH2 0xC9 PUSH1 0x4 DUP1 CALLDATASIZE SUB PUSH1 0x80 DUP2 LT ISZERO PUSH2 0x119 JUMPI PUSH1 0x0 DUP1 REVERT JUMPDEST POP PUSH1 0x1 PUSH1 0x1 PUSH1 0xA0 SHL SUB DUP2 CALLDATALOAD DUP2 AND SWAP2 PUSH1 0x20 DUP2 ADD CALLDATALOAD DUP3 AND SWAP2 PUSH1 0x40 DUP3 ADD CALLDATALOAD AND SWAP1 PUSH1 0x60 ADD CALLDATALOAD ISZERO ISZERO PUSH2 0x2AA JUMP JUMPDEST PUSH2 0x167 PUSH1 0x4 DUP1 CALLDATASIZE SUB PUSH1 0x20 DUP2 LT ISZERO PUSH2 0x157 JUMPI PUSH1 0x0 DUP1 REVERT JUMPDEST POP CALLDATALOAD PUSH1 0x1 PUSH1 0x1 PUSH1 0xA0 SHL SUB AND PUSH2 0x318 JUMP JUMPDEST STOP JUMPDEST PUSH2 0x1A7 PUSH1 0x4 DUP1 CALLDATASIZE SUB PUSH1 0x80 DUP2 LT ISZERO PUSH2 0x17F JUMPI PUSH1 0x0 DUP1 REVERT JUMPDEST POP PUSH1 0x1 PUSH1 0x1 PUSH1 0xA0 SHL SUB DUP2 CALLDATALOAD DUP2 AND SWAP2 PUSH1 0x20 DUP2 ADD CALLDATALOAD DUP3 AND SWAP2 PUSH1 0x40 DUP3 ADD CALLDATALOAD AND SWAP1 PUSH1 0x60 ADD CALLDATALOAD ISZERO ISZERO PUSH2 0x33C JUMP JUMPDEST PUSH1 0x40 DUP1 MLOAD SWAP2 DUP3 MSTORE MLOAD SWAP1 DUP2 SWAP1 SUB PUSH1 0x20 ADD SWAP1 RETURN JUMPDEST PUSH2 0xC9 PUSH1 0x4 DUP1 CALLDATASIZE SUB PUSH1 0x20 DUP2 LT ISZERO PUSH2 0x1CF JUMPI PUSH1 0x0 DUP1 REVERT JUMPDEST POP CALLDATALOAD PUSH1 0x1 PUSH1 0x1 PUSH1 0xA0 SHL SUB AND PUSH2 0x3B5 JUMP JUMPDEST PUSH2 0x167 PUSH1 0x4 DUP1 CALLDATASIZE SUB PUSH1 0x20 DUP2 LT ISZERO PUSH2 0x1F5 JUMPI PUSH1 0x0 DUP1 REVERT JUMPDEST POP CALLDATALOAD PUSH1 0x1 PUSH1 0x1 PUSH1 0xA0 SHL SUB AND PUSH2 0x3D3 JUMP JUMPDEST PUSH2 0x167 PUSH1 0x4 DUP1 CALLDATASIZE SUB PUSH1 0x20 DUP2 LT ISZERO PUSH2 0x21B JUMPI PUSH1 0x0 DUP1 REVERT JUMPDEST POP CALLDATALOAD PUSH1 0x1 PUSH1 0x1 PUSH1 0xA0 SHL SUB AND PUSH2 0x44F JUMP JUMPDEST PUSH2 0x167 PUSH1 0x4 DUP1 CALLDATASIZE SUB PUSH1 0x20 DUP2 LT ISZERO PUSH2 0x241 JUMPI PUSH1 0x0 DUP1 REVERT JUMPDEST POP CALLDATALOAD PUSH1 0x1 PUSH1 0x1 PUSH1 0xA0 SHL SUB AND PUSH2 0x470 JUMP JUMPDEST PUSH2 0xC9 PUSH1 0x4 DUP1 CALLDATASIZE SUB PUSH1 0x20 DUP2 LT ISZERO PUSH2 0x267 JUMPI PUSH1 0x0 DUP1 REVERT JUMPDEST POP CALLDATALOAD PUSH1 0x1 PUSH1 0x1 PUSH1 0xA0 SHL SUB AND PUSH2 0x494 JUMP JUMPDEST PUSH1 0x1 PUSH1 0x1 PUSH1 0xA0 SHL SUB AND PUSH1 0x0 SWAP1 DUP2 MSTORE PUSH1 0x20 DUP2 SWAP1 MSTORE PUSH1 0x40 SWAP1 KECCAK256 SLOAD PUSH1 0xFF AND SWAP1 JUMP JUMPDEST PUSH1 0x0 PUSH1 0x20 DUP2 SWAP1 MSTORE SWAP1 DUP2 MSTORE PUSH1 0x40 SWAP1 KECCAK256 SLOAD PUSH1 0xFF AND DUP2 JUMP JUMPDEST PUSH1 0x40 DUP1 MLOAD PUSH12 0xFFFFFFFFFFFFFFFFFFFFFFFF NOT PUSH1 0x60 SWAP7 DUP8 SHL DUP2 AND PUSH1 0x20 DUP1 DUP5 ADD SWAP2 SWAP1 SWAP2 MSTORE SWAP6 DUP8 SHL DUP2 AND PUSH1 0x34 DUP4 ADD MSTORE SWAP4 SWAP1 SWAP6 SHL SWAP1 SWAP3 AND PUSH1 0x48 DUP6 ADD MSTORE ISZERO ISZERO PUSH1 0xF8 SHL PUSH1 0x5C DUP5 ADD MSTORE DUP1 MLOAD PUSH1 0x3D DUP2 DUP6 SUB ADD DUP2 MSTORE PUSH1 0x5D SWAP1 SWAP4 ADD DUP2 MSTORE DUP3 MLOAD SWAP3 DUP3 ADD SWAP3 SWAP1 SWAP3 KECCAK256 PUSH1 0x0 SWAP1 DUP2 MSTORE PUSH1 0x1 SWAP1 SWAP2 MSTORE KECCAK256 SLOAD PUSH1 0xFF AND SWAP1 JUMP JUMPDEST PUSH1 0x1 PUSH1 0x1 PUSH1 0xA0 SHL SUB AND PUSH1 0x0 SWAP1 DUP2 MSTORE PUSH1 0x3 PUSH1 0x20 MSTORE PUSH1 0x40 SWAP1 KECCAK256 DUP1 SLOAD PUSH1 0xFF NOT AND PUSH1 0x1 OR SWAP1 SSTORE JUMP JUMPDEST PUSH1 0x40 DUP1 MLOAD PUSH12 0xFFFFFFFFFFFFFFFFFFFFFFFF NOT PUSH1 0x60 SWAP7 DUP8 SHL DUP2 AND PUSH1 0x20 DUP1 DUP5 ADD SWAP2 SWAP1 SWAP2 MSTORE SWAP6 DUP8 SHL DUP2 AND PUSH1 0x34 DUP4 ADD MSTORE SWAP4 SWAP1 SWAP6 SHL SWAP1 SWAP3 AND PUSH1 0x48 DUP6 ADD MSTORE ISZERO ISZERO PUSH1 0xF8 SHL PUSH1 0x5C DUP5 ADD MSTORE DUP1 MLOAD PUSH1 0x3D DUP2 DUP6 SUB ADD DUP2 MSTORE PUSH1 0x5D SWAP1 SWAP4 ADD DUP2 MSTORE DUP3 MLOAD SWAP3 DUP3 ADD SWAP3 SWAP1 SWAP3 KECCAK256 PUSH1 0x0 DUP2 DUP2 MSTORE PUSH1 0x1 SWAP3 DUP4 SWAP1 MSTORE SWAP3 SWAP1 SWAP3 KECCAK256 DUP1 SLOAD PUSH1 0xFF NOT AND SWAP1 SWAP2 OR SWAP1 SSTORE SWAP1 JUMP JUMPDEST PUSH1 0x1 PUSH1 0x1 PUSH1 0xA0 SHL SUB AND PUSH1 0x0 SWAP1 DUP2 MSTORE PUSH1 0x3 PUSH1 0x20 MSTORE PUSH1 0x40 SWAP1 KECCAK256 SLOAD PUSH1 0xFF AND SWAP1 JUMP JUMPDEST PUSH1 0x1 PUSH1 0x1 PUSH1 0xA0 SHL SUB DUP2 AND PUSH1 0x0 SWAP1 DUP2 MSTORE PUSH1 0x2 PUSH1 0x20 MSTORE PUSH1 0x40 SWAP1 KECCAK256 SLOAD PUSH1 0xFF AND ISZERO PUSH2 0x42B JUMPI PUSH1 0x40 MLOAD PUSH3 0x461BCD PUSH1 0xE5 SHL DUP2 MSTORE PUSH1 0x4 ADD DUP1 DUP1 PUSH1 0x20 ADD DUP3 DUP2 SUB DUP3 MSTORE PUSH1 0x29 DUP2 MSTORE PUSH1 0x20 ADD DUP1 PUSH2 0x4B3 PUSH1 0x29 SWAP2 CODECOPY PUSH1 0x40 ADD SWAP2 POP POP PUSH1 0x40 MLOAD DUP1 SWAP2 SUB SWAP1 REVERT JUMPDEST PUSH1 0x1 PUSH1 0x1 PUSH1 0xA0 SHL SUB AND PUSH1 0x0 SWAP1 DUP2 MSTORE PUSH1 0x2 PUSH1 0x20 MSTORE PUSH1 0x40 SWAP1 KECCAK256 DUP1 SLOAD PUSH1 0xFF NOT AND PUSH1 0x1 OR SWAP1 SSTORE JUMP JUMPDEST PUSH1 0x1 PUSH1 0x1 PUSH1 0xA0 SHL SUB AND PUSH1 0x0 SWAP1 DUP2 MSTORE PUSH1 0x3 PUSH1 0x20 MSTORE PUSH1 0x40 SWAP1 KECCAK256 DUP1 SLOAD PUSH1 0xFF NOT AND SWAP1 SSTORE JUMP JUMPDEST PUSH1 0x1 PUSH1 0x1 PUSH1 0xA0 SHL SUB AND PUSH1 0x0 SWAP1 DUP2 MSTORE PUSH1 0x20 DUP2 SWAP1 MSTORE PUSH1 0x40 SWAP1 KECCAK256 DUP1 SLOAD PUSH1 0xFF NOT AND PUSH1 0x1 OR SWAP1 SSTORE JUMP JUMPDEST PUSH1 0x1 PUSH1 0x1 PUSH1 0xA0 SHL SUB AND PUSH1 0x0 SWAP1 DUP2 MSTORE PUSH1 0x2 PUSH1 0x20 MSTORE PUSH1 0x40 SWAP1 KECCAK256 SLOAD PUSH1 0xFF AND SWAP1 JUMP INVALID JUMPI PUSH9 0x6974656C6973743A20 NUMBER PUSH16 0x6C6C61746572616C20616C7265616479 KECCAK256 PUSH24 0x686974656C6973746564A264697066735822122081CC5672 0xED SWAP12 LOG1 0xD3 0x2E 0xE1 ORIGIN 0xB7 0xA9 PUSH17 0xA64A9F32C450B1590959FD83FF71736ED6 CALLDATASIZE PUSH5 0x736F6C6343 STOP MOD EXP STOP CALLER "
        },
        "methodIdentifiers": {
          "_isWhitelistedOtoken(address)": "27219c75",
          "blacklistCallee(address)": "ebd31e8e",
          "isWhitelistedCallee(address)": "a2ae545a",
          "isWhitelistedCollateral(address)": "f9839d89",
          "isWhitelistedOtoken(address)": "11946b98",
          "isWhitelistedProduct(address,address,address,bool)": "401a83cf",
          "whitelistCallee(address)": "708a0393",
          "whitelistCollateral(address)": "a34626c4",
          "whitelistOtoken(address)": "ec7127b6",
          "whitelistProduct(address,address,address,bool)": "82d90ebf"
        }
      }
    }
  }
}