{
  "_format": "hh-sol-artifact-1",
  "contractName": "UpgradeabilityProxy",
  "sourceName": "contracts/packages/oz/upgradeability/UpgradeabilityProxy.sol",
  "abi": [
    {
      "anonymous": false,
      "inputs": [
        {
          "indexed": true,
          "internalType": "address",
          "name": "implementation",
          "type": "address"
        }
      ],
      "name": "Upgraded",
      "type": "event"
    },
    {
      "stateMutability": "payable",
      "type": "fallback"
    },
    {
      "inputs": [],
      "name": "implementation",
      "outputs": [
        {
          "internalType": "address",
          "name": "impl",
          "type": "address"
        }
      ],
      "stateMutability": "view",
      "type": "function"
    }
  ],
  "bytecode": "0x608060405234801561001057600080fd5b50610106806100206000396000f3fe608060405260043610601c5760003560e01c80635c60da1b14605c575b60006024608a565b90506001600160a01b038116603857600080fd5b60405136600082376000803683855af43d806000843e8180156058578184f35b8184fd5b348015606757600080fd5b50606e608a565b604080516001600160a01b039092168252519081900360200190f35b60008060405180806100ae6023913960405190819003602301902054939250505056fe6f72672e7a657070656c696e6f732e70726f78792e696d706c656d656e746174696f6ea2646970667358221220c5ca8590c14a8edb92d1833767091be52fbfb8076b68852b7925c99da2b9849864736f6c634300060a0033",
  "linkReferences": {},
  "deployedLinkReferences": {}
}