{
  "_format": "hh-sol-artifact-1",
  "contractName": "CalculatorTester",
  "sourceName": "contracts/tests/CalculatorTester.sol",
  "abi": [
    {
      "inputs": [
        {
          "internalType": "address",
          "name": "_addressBook",
          "type": "address"
        }
      ],
      "stateMutability": "nonpayable",
      "type": "constructor"
    },
    {
      "anonymous": false,
      "inputs": [
        {
          "indexed": true,
          "internalType": "address",
          "name": "collateral",
          "type": "address"
        },
        {
          "indexed": false,
          "internalType": "uint256",
          "name": "dust",
          "type": "uint256"
        }
      ],
      "name": "CollateralDustUpdated",
      "type": "event"
    },
    {
      "anonymous": false,
      "inputs": [
        {
          "indexed": true,
          "internalType": "bytes32",
          "name": "productHash",
          "type": "bytes32"
        },
        {
          "indexed": false,
          "internalType": "uint256",
          "name": "timeToExpiry",
          "type": "uint256"
        },
        {
          "indexed": false,
          "internalType": "uint256",
          "name": "value",
          "type": "uint256"
        }
      ],
      "name": "MaxPriceAdded",
      "type": "event"
    },
    {
      "anonymous": false,
      "inputs": [
        {
          "indexed": true,
          "internalType": "bytes32",
          "name": "productHash",
          "type": "bytes32"
        },
        {
          "indexed": false,
          "internalType": "uint256",
          "name": "timeToExpiry",
          "type": "uint256"
        },
        {
          "indexed": false,
          "internalType": "uint256",
          "name": "oldValue",
          "type": "uint256"
        },
        {
          "indexed": false,
          "internalType": "uint256",
          "name": "newValue",
          "type": "uint256"
        }
      ],
      "name": "MaxPriceUpdated",
      "type": "event"
    },
    {
      "anonymous": false,
      "inputs": [
        {
          "indexed": false,
          "internalType": "uint256",
          "name": "oracleDeviation",
          "type": "uint256"
        }
      ],
      "name": "OracleDeviationUpdated",
      "type": "event"
    },
    {
      "anonymous": false,
      "inputs": [
        {
          "indexed": true,
          "internalType": "address",
          "name": "previousOwner",
          "type": "address"
        },
        {
          "indexed": true,
          "internalType": "address",
          "name": "newOwner",
          "type": "address"
        }
      ],
      "name": "OwnershipTransferred",
      "type": "event"
    },
    {
      "anonymous": false,
      "inputs": [
        {
          "indexed": true,
          "internalType": "bytes32",
          "name": "product",
          "type": "bytes32"
        },
        {
          "indexed": false,
          "internalType": "uint256",
          "name": "spotShock",
          "type": "uint256"
        }
      ],
      "name": "SpotShockUpdated",
      "type": "event"
    },
    {
      "anonymous": false,
      "inputs": [
        {
          "indexed": true,
          "internalType": "bytes32",
          "name": "productHash",
          "type": "bytes32"
        },
        {
          "indexed": false,
          "internalType": "uint256",
          "name": "timeToExpiry",
          "type": "uint256"
        }
      ],
      "name": "TimeToExpiryAdded",
      "type": "event"
    },
    {
      "inputs": [],
      "name": "AUCTION_TIME",
      "outputs": [
        {
          "internalType": "uint256",
          "name": "",
          "type": "uint256"
        }
      ],
      "stateMutability": "view",
      "type": "function"
    },
    {
      "inputs": [
        {
          "internalType": "address",
          "name": "_underlying",
          "type": "address"
        },
        {
          "internalType": "address",
          "name": "_strike",
          "type": "address"
        },
        {
          "internalType": "address",
          "name": "_collateral",
          "type": "address"
        },
        {
          "internalType": "bool",
          "name": "_isPut",
          "type": "bool"
        },
        {
          "internalType": "uint256",
          "name": "_expiryTimestamp",
          "type": "uint256"
        }
      ],
      "name": "findUpperBoundValue",
      "outputs": [
        {
          "internalType": "uint256",
          "name": "",
          "type": "uint256"
        }
      ],
      "stateMutability": "view",
      "type": "function"
    },
    {
      "inputs": [
        {
          "internalType": "address",
          "name": "_collateral",
          "type": "address"
        }
      ],
      "name": "getCollateralDust",
      "outputs": [
        {
          "internalType": "uint256",
          "name": "",
          "type": "uint256"
        }
      ],
      "stateMutability": "view",
      "type": "function"
    },
    {
      "inputs": [
        {
          "components": [
            {
              "internalType": "address[]",
              "name": "shortOtokens",
              "type": "address[]"
            },
            {
              "internalType": "address[]",
              "name": "longOtokens",
              "type": "address[]"
            },
            {
              "internalType": "address[]",
              "name": "collateralAssets",
              "type": "address[]"
            },
            {
              "internalType": "uint256[]",
              "name": "shortAmounts",
              "type": "uint256[]"
            },
            {
              "internalType": "uint256[]",
              "name": "longAmounts",
              "type": "uint256[]"
            },
            {
              "internalType": "uint256[]",
              "name": "collateralAmounts",
              "type": "uint256[]"
            }
          ],
          "internalType": "struct MarginVault.Vault",
          "name": "_vault",
          "type": "tuple"
        },
        {
          "internalType": "uint256",
          "name": "_vaultType",
          "type": "uint256"
        }
      ],
      "name": "getExcessCollateral",
      "outputs": [
        {
          "internalType": "uint256",
          "name": "",
          "type": "uint256"
        },
        {
          "internalType": "bool",
          "name": "",
          "type": "bool"
        }
      ],
      "stateMutability": "view",
      "type": "function"
    },
    {
      "inputs": [
        {
          "internalType": "address",
          "name": "_underlying",
          "type": "address"
        },
        {
          "internalType": "address",
          "name": "_strike",
          "type": "address"
        },
        {
          "internalType": "uint256",
          "name": "_expiryTimestamp",
          "type": "uint256"
        },
        {
          "internalType": "uint256",
          "name": "_strikePrice",
          "type": "uint256"
        },
        {
          "internalType": "bool",
          "name": "_isPut",
          "type": "bool"
        }
      ],
      "name": "getExpiredCashValue",
      "outputs": [
        {
          "internalType": "uint256",
          "name": "",
          "type": "uint256"
        }
      ],
      "stateMutability": "view",
      "type": "function"
    },
    {
      "inputs": [
        {
          "internalType": "address",
          "name": "_otoken",
          "type": "address"
        }
      ],
      "name": "getExpiredPayoutRate",
      "outputs": [
        {
          "internalType": "uint256",
          "name": "",
          "type": "uint256"
        }
      ],
      "stateMutability": "view",
      "type": "function"
    },
    {
      "inputs": [
        {
          "components": [
            {
              "internalType": "address[]",
              "name": "shortOtokens",
              "type": "address[]"
            },
            {
              "internalType": "address[]",
              "name": "longOtokens",
              "type": "address[]"
            },
            {
              "internalType": "address[]",
              "name": "collateralAssets",
              "type": "address[]"
            },
            {
              "internalType": "uint256[]",
              "name": "shortAmounts",
              "type": "uint256[]"
            },
            {
              "internalType": "uint256[]",
              "name": "longAmounts",
              "type": "uint256[]"
            },
            {
              "internalType": "uint256[]",
              "name": "collateralAmounts",
              "type": "uint256[]"
            }
          ],
          "internalType": "struct MarginVault.Vault",
          "name": "_vault",
          "type": "tuple"
        },
        {
          "internalType": "uint256",
          "name": "_vaultType",
          "type": "uint256"
        }
      ],
      "name": "getMarginRequired",
      "outputs": [
        {
          "components": [
            {
              "internalType": "int256",
              "name": "value",
              "type": "int256"
            }
          ],
          "internalType": "struct FixedPointInt256.FixedPointInt",
          "name": "",
          "type": "tuple"
        },
        {
          "components": [
            {
              "internalType": "int256",
              "name": "value",
              "type": "int256"
            }
          ],
          "internalType": "struct FixedPointInt256.FixedPointInt",
          "name": "",
          "type": "tuple"
        }
      ],
      "stateMutability": "view",
      "type": "function"
    },
    {
      "inputs": [
        {
          "internalType": "address",
          "name": "_underlying",
          "type": "address"
        },
        {
          "internalType": "address",
          "name": "_strike",
          "type": "address"
        },
        {
          "internalType": "address",
          "name": "_collateral",
          "type": "address"
        },
        {
          "internalType": "bool",
          "name": "_isPut",
          "type": "bool"
        },
        {
          "internalType": "uint256",
          "name": "_timeToExpiry",
          "type": "uint256"
        }
      ],
      "name": "getMaxPrice",
      "outputs": [
        {
          "internalType": "uint256",
          "name": "",
          "type": "uint256"
        }
      ],
      "stateMutability": "view",
      "type": "function"
    },
    {
      "inputs": [
        {
          "internalType": "address",
          "name": "_underlying",
          "type": "address"
        },
        {
          "internalType": "address",
          "name": "_strike",
          "type": "address"
        },
        {
          "internalType": "address",
          "name": "_collateral",
          "type": "address"
        },
        {
          "internalType": "uint256",
          "name": "_shortAmount",
          "type": "uint256"
        },
        {
          "internalType": "uint256",
          "name": "_strikePrice",
          "type": "uint256"
        },
        {
          "internalType": "uint256",
          "name": "_underlyingPrice",
          "type": "uint256"
        },
        {
          "internalType": "uint256",
          "name": "_shortExpiryTimestamp",
          "type": "uint256"
        },
        {
          "internalType": "uint256",
          "name": "_collateralDecimals",
          "type": "uint256"
        },
        {
          "internalType": "bool",
          "name": "_isPut",
          "type": "bool"
        }
      ],
      "name": "getNakedMarginRequired",
      "outputs": [
        {
          "internalType": "uint256",
          "name": "",
          "type": "uint256"
        }
      ],
      "stateMutability": "view",
      "type": "function"
    },
    {
      "inputs": [],
      "name": "getOracleDeviation",
      "outputs": [
        {
          "internalType": "uint256",
          "name": "",
          "type": "uint256"
        }
      ],
      "stateMutability": "view",
      "type": "function"
    },
    {
      "inputs": [
        {
          "internalType": "address",
          "name": "_underlying",
          "type": "address"
        },
        {
          "internalType": "address",
          "name": "_strike",
          "type": "address"
        },
        {
          "internalType": "address",
          "name": "_collateral",
          "type": "address"
        },
        {
          "internalType": "bool",
          "name": "_isPut",
          "type": "bool"
        }
      ],
      "name": "getSpotShock",
      "outputs": [
        {
          "internalType": "uint256",
          "name": "",
          "type": "uint256"
        }
      ],
      "stateMutability": "view",
      "type": "function"
    },
    {
      "inputs": [
        {
          "internalType": "address",
          "name": "_underlying",
          "type": "address"
        },
        {
          "internalType": "address",
          "name": "_strike",
          "type": "address"
        },
        {
          "internalType": "address",
          "name": "_collateral",
          "type": "address"
        },
        {
          "internalType": "bool",
          "name": "_isPut",
          "type": "bool"
        }
      ],
      "name": "getTimesToExpiry",
      "outputs": [
        {
          "internalType": "uint256[]",
          "name": "",
          "type": "uint256[]"
        }
      ],
      "stateMutability": "view",
      "type": "function"
    },
    {
      "inputs": [
        {
          "components": [
            {
              "internalType": "address[]",
              "name": "shortOtokens",
              "type": "address[]"
            },
            {
              "internalType": "address[]",
              "name": "longOtokens",
              "type": "address[]"
            },
            {
              "internalType": "address[]",
              "name": "collateralAssets",
              "type": "address[]"
            },
            {
              "internalType": "uint256[]",
              "name": "shortAmounts",
              "type": "uint256[]"
            },
            {
              "internalType": "uint256[]",
              "name": "longAmounts",
              "type": "uint256[]"
            },
            {
              "internalType": "uint256[]",
              "name": "collateralAmounts",
              "type": "uint256[]"
            }
          ],
          "internalType": "struct MarginVault.Vault",
          "name": "_vault",
          "type": "tuple"
        },
        {
          "internalType": "uint256",
          "name": "_vaultType",
          "type": "uint256"
        },
        {
          "internalType": "uint256",
          "name": "_vaultLatestUpdate",
          "type": "uint256"
        },
        {
          "internalType": "uint256",
          "name": "_roundId",
          "type": "uint256"
        }
      ],
      "name": "isLiquidatable",
      "outputs": [
        {
          "internalType": "bool",
          "name": "",
          "type": "bool"
        },
        {
          "internalType": "uint256",
          "name": "",
          "type": "uint256"
        },
        {
          "internalType": "uint256",
          "name": "",
          "type": "uint256"
        }
      ],
      "stateMutability": "view",
      "type": "function"
    },
    {
      "inputs": [],
      "name": "oracle",
      "outputs": [
        {
          "internalType": "contract OracleInterface",
          "name": "",
          "type": "address"
        }
      ],
      "stateMutability": "view",
      "type": "function"
    },
    {
      "inputs": [],
      "name": "owner",
      "outputs": [
        {
          "internalType": "address",
          "name": "",
          "type": "address"
        }
      ],
      "stateMutability": "view",
      "type": "function"
    },
    {
      "inputs": [
        {
          "internalType": "uint256",
          "name": "_vaultCollateral",
          "type": "uint256"
        },
        {
          "internalType": "uint256",
          "name": "_vaultDebt",
          "type": "uint256"
        },
        {
          "internalType": "uint256",
          "name": "_cv",
          "type": "uint256"
        },
        {
          "internalType": "uint256",
          "name": "_spotPrice",
          "type": "uint256"
        },
        {
          "internalType": "uint256",
          "name": "_auctionStartingTime",
          "type": "uint256"
        },
        {
          "internalType": "uint256",
          "name": "_collateralDecimals",
          "type": "uint256"
        },
        {
          "internalType": "bool",
          "name": "_isPut",
          "type": "bool"
        }
      ],
      "name": "price",
      "outputs": [
        {
          "internalType": "uint256",
          "name": "",
          "type": "uint256"
        }
      ],
      "stateMutability": "view",
      "type": "function"
    },
    {
      "inputs": [],
      "name": "renounceOwnership",
      "outputs": [],
      "stateMutability": "nonpayable",
      "type": "function"
    },
    {
      "inputs": [
        {
          "internalType": "address",
          "name": "_collateral",
          "type": "address"
        },
        {
          "internalType": "uint256",
          "name": "_dust",
          "type": "uint256"
        }
      ],
      "name": "setCollateralDust",
      "outputs": [],
      "stateMutability": "nonpayable",
      "type": "function"
    },
    {
      "inputs": [
        {
          "internalType": "uint256",
          "name": "_deviation",
          "type": "uint256"
        }
      ],
      "name": "setOracleDeviation",
      "outputs": [],
      "stateMutability": "nonpayable",
      "type": "function"
    },
    {
      "inputs": [
        {
          "internalType": "address",
          "name": "_underlying",
          "type": "address"
        },
        {
          "internalType": "address",
          "name": "_strike",
          "type": "address"
        },
        {
          "internalType": "address",
          "name": "_collateral",
          "type": "address"
        },
        {
          "internalType": "bool",
          "name": "_isPut",
          "type": "bool"
        },
        {
          "internalType": "uint256",
          "name": "_shockValue",
          "type": "uint256"
        }
      ],
      "name": "setSpotShock",
      "outputs": [],
      "stateMutability": "nonpayable",
      "type": "function"
    },
    {
      "inputs": [
        {
          "internalType": "address",
          "name": "_underlying",
          "type": "address"
        },
        {
          "internalType": "address",
          "name": "_strike",
          "type": "address"
        },
        {
          "internalType": "address",
          "name": "_collateral",
          "type": "address"
        },
        {
          "internalType": "bool",
          "name": "_isPut",
          "type": "bool"
        },
        {
          "internalType": "uint256[]",
          "name": "_timesToExpiry",
          "type": "uint256[]"
        },
        {
          "internalType": "uint256[]",
          "name": "_values",
          "type": "uint256[]"
        }
      ],
      "name": "setUpperBoundValues",
      "outputs": [],
      "stateMutability": "nonpayable",
      "type": "function"
    },
    {
      "inputs": [
        {
          "internalType": "address",
          "name": "newOwner",
          "type": "address"
        }
      ],
      "name": "transferOwnership",
      "outputs": [],
      "stateMutability": "nonpayable",
      "type": "function"
    },
    {
      "inputs": [
        {
          "internalType": "address",
          "name": "_underlying",
          "type": "address"
        },
        {
          "internalType": "address",
          "name": "_strike",
          "type": "address"
        },
        {
          "internalType": "address",
          "name": "_collateral",
          "type": "address"
        },
        {
          "internalType": "bool",
          "name": "_isPut",
          "type": "bool"
        },
        {
          "internalType": "uint256",
          "name": "_timeToExpiry",
          "type": "uint256"
        },
        {
          "internalType": "uint256",
          "name": "_value",
          "type": "uint256"
        }
      ],
      "name": "updateUpperBoundValue",
      "outputs": [],
      "stateMutability": "nonpayable",
      "type": "function"
    }
  ],
  "bytecode": "0x60806040526200001d600060086200010a60201b620011cc1760201c565b516002553480156200002e57600080fd5b50604051620049ec380380620049ec833981016040819052620000519162000389565b806000620000676001600160e01b036200020816565b600080546001600160a01b0319166001600160a01b0383169081178255604051929350917f8be0079c531659141344cd1fd0a4f28419497f9722a3daafe3b4186f6b6457e0908290a3506001600160a01b038116620000e35760405162461bcd60e51b8152600401620000da906200048b565b60405180910390fd5b600780546001600160a01b0319166001600160a01b039290921691909117905550620004d3565b6200011462000376565b6200011e62000376565b601b8314156200015357604051806020016040528062000149866200020c60201b6200128c1760201c565b90529050620001ff565b601b831115620001c55760006200017a601b856200023860201b620012b51790919060201c565b90506040518060200160405280620001b9620001a884600a0a896200028260201b620012f71790919060201c565b6200020c60201b6200128c1760201c565b815250915050620001ff565b600083601b0390506040518060200160405280620001f9620001a884600a0a89620002cc60201b620013391790919060201c565b90529150505b90505b92915050565b3390565b6000600160ff1b8210620002345760405162461bcd60e51b8152600401620000da9062000408565b5090565b6000620001ff83836040518060400160405280601e81526020017f536166654d6174683a207375627472616374696f6e206f766572666c6f7700008152506200030c60201b60201c565b6000620001ff83836040518060400160405280601a81526020017f536166654d6174683a206469766973696f6e206279207a65726f0000000000008152506200033b60201b60201c565b600082620002dd5750600062000202565b82820282848281620002eb57fe5b0414620001ff5760405162461bcd60e51b8152600401620000da906200044a565b60008184841115620003335760405162461bcd60e51b8152600401620000da9190620003b2565b505050900390565b600081836200035f5760405162461bcd60e51b8152600401620000da9190620003b2565b5060008385816200036c57fe5b0495945050505050565b6040518060200160405280600081525090565b6000602082840312156200039b578081fd5b81516001600160a01b0381168114620001ff578182fd5b6000602080835283518082850152825b81811015620003e057858101830151858201604001528201620003c2565b81811115620003f25783604083870101525b50601f01601f1916929092016040019392505050565b60208082526022908201527f4669786564506f696e74496e743235363a206f7574206f6620696e742072616e604082015261676560f01b606082015260800190565b60208082526021908201527f536166654d6174683a206d756c7469706c69636174696f6e206f766572666c6f6040820152607760f81b606082015260800190565b60208082526028908201527f4d617267696e43616c63756c61746f723a20696e76616c6964206f7261636c65604082015267206164647265737360c01b606082015260800190565b61450980620004e36000396000f3fe608060405234801561001057600080fd5b506004361061014d5760003560e01c80638da5cb5b116100c3578063c73547e31161007c578063c73547e3146102b8578063cd43fbfb146102cb578063dc1b3f00146102ec578063e592301a146102ff578063e842063114610307578063f2fde38b1461031a5761014d565b80638da5cb5b1461024d578063958c3234146102555780639a783d1114610268578063a101bca11461027b578063a6c569071461028e578063b29d5ee8146102b05761014d565b80636ccb9506116101155780636ccb9506146101e2578063715018a6146101f55780637ad7f800146101ff5780637dc0d1d0146102125780637f519b72146102275780638aab8fa51461023a5761014d565b8063053fe57c146101525780630b0509fb1461017c578063463459001461019c57806347840930146101af57806347d438a5146101c2575b600080fd5b61016561016036600461365b565b61032d565b604051610173929190614419565b60405180910390f35b61018f61018a366004613528565b610368565b6040516101739190614429565b61018f6101aa3660046132d3565b6103e3565b61018f6101bd36600461329b565b61040d565b6101d56101d03660046132d3565b610544565b604051610173919061386e565b61018f6101f036600461329b565b6105bc565b6101fd6105d7565b005b6101fd61020d366004613448565b610656565b61021a610757565b60405161017391906137f2565b6101fd61023536600461332e565b610766565b6101fd6102483660046133e5565b610a3d565b61021a610af6565b61018f610263366004613772565b610b05565b6101fd610276366004613614565b610b79565b61018f6102893660046133e5565b610c25565b6102a161029c36600461369e565b610c78565b604051610173939291906138b2565b61018f610f21565b6101fd6102c63660046136f0565b610f27565b6102de6102d936600461365b565b610f9c565b604051610173929190614432565b61018f6102fa3660046133e5565b6110b6565b61018f6110eb565b61018f6103153660046135b6565b6110f1565b6101fd61032836600461329b565b611116565b610335612f71565b61033d612f71565b610345612f84565b61034f8585611373565b905061035b85826116be565b92509250505b9250929050565b6000806103778b8b8b86611b73565b9050610381612f71565b61038c8960086111cc565b9050610396612f71565b6103a18960086111cc565b90506103ab612f71565b6103b68960086111cc565b90506103d16103c9858584868d8c611bac565b886000611d32565b9e9d5050505050505050505050505050565b6000806103f286868686611b73565b6000908152600660205260409020549150505b949350505050565b60006001600160a01b03821661043e5760405162461bcd60e51b8152600401610435906139d8565b60405180910390fd5b60008060008060008061045088611e05565b9550955095509550955095508142101561047c5760405162461bcd60e51b815260040161043590613a1f565b610484612f71565b6104918686858786612157565b905061049b612f71565b6104a782878a876121b8565b90506000886001600160a01b031663313ce5676040518163ffffffff1660e01b815260040160206040518083038186803b1580156104e457600080fd5b505afa1580156104f8573d6000803e3d6000fd5b505050506040513d601f19601f8201168201806040525081019061051c91906137d1565b60ff1690506105338282600163ffffffff611d3216565b99505050505050505050505b919050565b6060600061055486868686611b73565b60008181526004602090815260409182902080548351818402810184019094528084529394509192908301828280156105ac57602002820191906000526020600020905b815481526020019060010190808311610598575b5050505050915050949350505050565b6001600160a01b031660009081526003602052604090205490565b6105df612344565b6000546001600160a01b0390811691161461060c5760405162461bcd60e51b815260040161043590613fc8565b600080546040516001600160a01b03909116907f8be0079c531659141344cd1fd0a4f28419497f9722a3daafe3b4186f6b6457e0908390a3600080546001600160a01b0319169055565b61065e612344565b6000546001600160a01b0390811691161461068b5760405162461bcd60e51b815260040161043590613fc8565b600081116106ab5760405162461bcd60e51b815260040161043590613dd4565b60006106b987878787611b73565b6000818152600560209081526040808320878452909152902054909150806106f35760405162461bcd60e51b8152600401610435906141a2565b6000828152600560209081526040808320878452909152908190208490555182907f39bab32d3b88604bdfbf6e8c3b1aaaf9bb6013da4fd5206dee9e3b00ee6f2cf99061074590879085908890614450565b60405180910390a25050505050505050565b6007546001600160a01b031681565b61076e612344565b6000546001600160a01b0390811691161461079b5760405162461bcd60e51b815260040161043590613fc8565b826107b85760405162461bcd60e51b815260040161043590613aba565b8281146107d75760405162461bcd60e51b815260040161043590613c25565b60006107e589898989611b73565b6000818152600460205260409020805491925090158061084057508054819061081590600163ffffffff6112b516565b8154811061081f57fe5b90600052602060002001548686600081811061083757fe5b90506020020135115b61085c5760405162461bcd60e51b8152600401610435906141ef565b60005b85811015610a30578561087982600163ffffffff61234816565b10156108d257868661089283600163ffffffff61234816565b81811061089b57fe5b905060200201358787838181106108ae57fe5b90506020020135106108d25760405162461bcd60e51b8152600401610435906140ab565b60008585838181106108e057fe5b90506020020135116109045760405162461bcd60e51b815260040161043590613a67565b84848281811061091057fe5b9050602002013560056000858152602001908152602001600020600089898581811061093857fe5b905060200201358152602001908152602001600020819055508187878381811061095e57fe5b83546001810185556000948552602094859020919094029290920135919092015550827fcaae9881bd3ac6f531c9e6021f1f873b93a83648e348624eef8f9ba9757fcb628888848181106109ae57fe5b905060200201356040516109c29190614429565b60405180910390a2827fcbb8d688de73727385afee9d53a2771ae5fe45293ff6de0ba46b201ab29df1158888848181106109f857fe5b90506020020135878785818110610a0b57fe5b90506020020135604051610a20929190614442565b60405180910390a260010161085f565b5050505050505050505050565b610a45612344565b6000546001600160a01b03908116911614610a725760405162461bcd60e51b815260040161043590613fc8565b60008111610a925760405162461bcd60e51b8152600401610435906142d6565b6000610aa086868686611b73565b600081815260066020526040908190208490555190915081907f78d22b4a9e4e0e1db30e7762696456ca380dc80efc59f416a299b97213b6d31690610ae6908590614429565b60405180910390a2505050505050565b6000546001600160a01b031690565b6000610b0f612f71565b610b1989856111cc565b9050610b23612f71565b610b2e8960086111cc565b9050610b38612f71565b610b438960086111cc565b9050610b4d612f71565b610b588960086111cc565b9050610b69848484848c8c8c61236d565b9c9b505050505050505050505050565b610b81612344565b6000546001600160a01b03908116911614610bae5760405162461bcd60e51b815260040161043590613fc8565b60008111610bce5760405162461bcd60e51b815260040161043590613b4f565b6001600160a01b03821660008181526003602052604090819020839055517f8ef429e6cec4339c5f0187fb930764fb967114bf09bc8bb06a552ba32923fd8690610c19908490614429565b60405180910390a25050565b60008086868686604051602001610c3f9493929190613806565b604051602081830303815290604052805190602001209050610c6d610c6482856124b5565b601b6000611d32565b979650505050505050565b600080600085600114610c9d5760405162461bcd60e51b8152600401610435906140f4565b610ca5612f84565b610caf8888611373565b9050806102200151610ccb575060009250829150819050610f17565b8060e001514210610cee5760405162461bcd60e51b815260040161043590613f33565b6007548151604051631b85462d60e01b815260009283926001600160a01b0390911691631b85462d91610d25918b90600401613849565b604080518083038186803b158015610d3c57600080fd5b505afa158015610d50573d6000803e3d6000fd5b505050506040513d601f19601f82011682018060405250810190610d74919061374f565b91509150878111610d975760405162461bcd60e51b81526004016104359061396c565b610d9f613020565b6040518060600160405280610dcd8d60600151600081518110610dbe57fe5b602002602001015160086111cc565b8152602001610de18660c0015160086111cc565b8152602001610df18560086111cc565b81525090506000610e15856000015186602001518760400151886101c00151611b73565b9050610e1f612f71565b610e468d60a00151600081518110610e3357fe5b60200260200101518761018001516111cc565b9050610e50612f71565b610e73838560000151866040015187602001518b60e001518c6101c00151611bac565b9050610e85818363ffffffff61262016565b15610ea1575060009850889750879650610f1795505050505050565b610ea9612f71565b610ec1856020015186604001518a6101c00151612628565b90506000610ee68487600001518489604001518b8e61018001518f6101c0015161236d565b6040998a01516001600160a01b031660009081526003602052999099205460019c50989a5097985050505050505050505b9450945094915050565b60015490565b610f2f612344565b6000546001600160a01b03908116911614610f5c5760405162461bcd60e51b815260040161043590613fc8565b60018190556040517fe44c6dd1fc3826ad24b81f17cf04849cedd368e002a52e89a845d14d3474e20a90610f91908390614429565b60405180910390a150565b600080610fa7612f84565b610fb18585611373565b9050610fbd85826126af565b806102200151158015610fd35750806102000151155b15611013576000816102400151610feb576000611005565b8560a00151600081518110610ffc57fe5b60200260200101515b935060019250610361915050565b61101b612f71565b611023612f71565b61102d87846116be565b91509150611039612f71565b611049838363ffffffff6127e616565b6040805160208101909152600254815290915060009061107090839063ffffffff61281816565b9050600085610200015161108957856101000151611090565b8561016001515b905060006110a584838563ffffffff611d3216565b9b929a509198505050505050505050565b6000806110c587878787611b73565b600090815260056020908152604080832086845290915290205491505095945050505050565b610e1081565b600061110c6111038787878787612157565b60086001611d32565b9695505050505050565b61111e612344565b6000546001600160a01b0390811691161461114b5760405162461bcd60e51b815260040161043590613fc8565b6001600160a01b0381166111715760405162461bcd60e51b815260040161043590613b09565b600080546040516001600160a01b03808516939216917f8be0079c531659141344cd1fd0a4f28419497f9722a3daafe3b4186f6b6457e091a3600080546001600160a01b0319166001600160a01b0392909216919091179055565b6111d4612f71565b6111dc612f71565b601b8314156112025760405180602001604052806111f98661128c565b90529050611283565b601b83111561125457600061121e84601b63ffffffff6112b516565b9050604051806020016040528061124961124484600a0a896112f790919063ffffffff16565b61128c565b815250915050611283565b6040805160208101909152601b849003908061127d61124488600a86900a63ffffffff61133916565b90529150505b90505b92915050565b6000600160ff1b82106112b15760405162461bcd60e51b815260040161043590613bac565b5090565b600061128383836040518060400160405280601e81526020017f536166654d6174683a207375627472616374696f6e206f766572666c6f770000815250612820565b600061128383836040518060400160405280601a81526020017f536166654d6174683a206469766973696f6e206279207a65726f00000000000081525061284c565b60008261134857506000611286565b8282028284828161135557fe5b04146112835760405162461bcd60e51b815260040161043590613f87565b61137b612f84565b611383612f84565b50604080516102608101825260008082526020808301829052928201819052606082018190526080820181905260a0820181905260c0820181905260e08201819052610100820181905261012082018190526101408201819052610160820181905261018082018190526101a082018190526101c082018190526101e08201819052610200820181905261022082018190526102408201529084015161142890612883565b1515610200820152835161143b90612883565b1515610220820152604084015161145190612883565b15156102408201526101a081018390526102008101511561153f576000846020015160008151811061147f57fe5b6020026020010151905061149281611e05565b15156101e08801526101408701526101208601526001600160a01b03908116608086015290811660608501521660a083018190526040805163313ce56760e01b8152905163313ce56791600480820192602092909190829003018186803b1580156114fc57600080fd5b505afa158015611510573d6000803e3d6000fd5b505050506040513d601f19601f8201168201806040525081019061153491906137d1565b60ff16610160830152505b8061022001511561161a576000846000015160008151811061155d57fe5b6020026020010151905061157081611e05565b15156101c088015260e087015260c08601526001600160a01b039081166020808701919091529181168552919091166040808501829052805163313ce56760e01b81529051919263313ce56792600480840193829003018186803b1580156115d757600080fd5b505afa1580156115eb573d6000803e3d6000fd5b505050506040513d601f19601f8201168201806040525081019061160f91906137d1565b60ff16610100830152505b8061024001511561128357836040015160008151811061163657fe5b60200260200101516001600160a01b031663313ce5676040518163ffffffff1660e01b815260040160206040518083038186803b15801561167657600080fd5b505afa15801561168a573d6000803e3d6000fd5b505050506040513d601f19601f820116820180604052508101906116ae91906137d1565b60ff166101808201529392505050565b6116c6612f71565b6116ce612f71565b6116d6612f71565b8361022001516116f55760408051602081019091526002548152611709565b6117098560600151600081518110610dbe57fe5b9050611713612f71565b8461020001516117325760408051602081019091526002548152611746565b6117468660800151600081518110610dbe57fe5b9050611750612f71565b85610240015161176f5760408051602081019091526002548152611783565b6117838760a00151600081518110610e3357fe5b905061178d612f71565b8661022001516117ac57604080516020810190915260025481526117bb565b6117bb8760c0015160086111cc565b90506117c5613052565b6040518060a001604052808961022001516117e45789606001516117e7565b89515b6001600160a01b03168152602001896102200151611809578960a0015161180f565b89604001515b6001600160a01b03168152602001896102200151611831578960800151611837565b89602001515b6001600160a01b0316815260200189610220015161185a57896101400151611860565b8960e001515b815260200189610220015161187a57896101e00151611881565b896101c001515b151581525090508060600151421015611aae57876101a0015160011415611a07576118aa612f71565b6040808a01516001600160a01b03166000908152600360205220546101808a01516118d591906111cc565b604080516020810190915260025481529091506118f990859063ffffffff6128c116565b1561192a5761190e848263ffffffff6128c116565b61192a5760405162461bcd60e51b815260040161043590613d51565b611932612f71565b6007548a516040516341976e0960e01b81526119bc926001600160a01b0316916341976e099161196591906004016137f2565b60206040518083038186803b15801561197d57600080fd5b505afa158015611991573d6000803e3d6000fd5b505050506040513d601f19601f820116820180604052508101906119b59190613708565b60086111cc565b905060006119dd8b600001518c602001518d604001518e6101c00151611b73565b9050856119f6828a858989606001518a60800151611bac565b995099505050505050505050610361565b611a0f612f71565b886102000151611a2e5760408051602081019091526002548152611a3e565b611a3e89610120015160086111cc565b9050816080015115611a8457611a52612f71565b611a5e878786856128c8565b905084611a748285604001518660200151612915565b9850985050505050505050610361565b611a8c612f71565b611a9887878685612a70565b905084611a748285600001518660200151612915565b611ab6612f71565b886102200151611ad55760408051602081019091526002548152611af6565b611af689600001518a602001518b60e001518c60c001518660800151612157565b9050611b00612f71565b896102000151611b1f5760408051602081019091526002548152611b42565b611b428a606001518b608001518c61014001518d61012001518760800151612157565b9050611b4c612f71565b611b5888888585612b01565b9050856119f6828660400151876020015188606001516121b8565b600084848484604051602001611b8c9493929190613806565b604051602081830303815290604052805190602001209050949350505050565b611bb4612f71565b611bbc612f71565b611bc688856124b5565b9050611bd0612f71565b50604080516020808201835260008b8152600690915291909120548152611bf5612f71565b611bfd612f71565b611c05612f71565b8615611c9757611c2489611c1f868d63ffffffff612b2c16565b612b73565b9250611c5e611c49611c3c868d63ffffffff612b2c16565b8b9063ffffffff6127e616565b60408051602081019091526002548152612b91565b9150611c908b611c8484611c78898863ffffffff612b2c16565b9063ffffffff612ba816565b9063ffffffff612b2c16565b9050611d23565b611c9f612f71565b611cb66b033b2e3c9fd0803ce8000000601b6111cc565b9050611cdc81611c1f8d611cd08e8a63ffffffff612b2c16565b9063ffffffff612bd116565b9350611d05611c49611cf88d611cd08e8a63ffffffff612b2c16565b839063ffffffff6127e616565b9250611d1f8c611c8485611c788a8963ffffffff612b2c16565b9150505b9b9a5050505050505050505050565b600080601b841415611d50578451611d4990612c07565b9050611dfb565b601b841115611d89576000601b85039050611d8181600a0a611d758860000151612c07565b9063ffffffff61133916565b915050611dfb565b601b849003600084611dc6576000611db783600a0a611dab8a60000151612c07565b9063ffffffff612c2316565b90508015611dc457600191505b505b611df681611dea84600a0a611dde8b60000151612c07565b9063ffffffff6112f716565b9063ffffffff61234816565b925050505b90505b9392505050565b6000806000806000806000879050806001600160a01b031663af0968fc6040518163ffffffff1660e01b815260040160c06040518083038186803b158015611e4c57600080fd5b505afa925050508015611e7c575060408051601f3d908101601f19168201909252611e79918101906134b5565b60015b61213857806001600160a01b031663aabaecd66040518163ffffffff1660e01b815260040160206040518083038186803b158015611eb957600080fd5b505afa158015611ecd573d6000803e3d6000fd5b505050506040513d601f19601f82011682018060405250810190611ef191906132b7565b816001600160a01b0316637158da7c6040518163ffffffff1660e01b815260040160206040518083038186803b158015611f2a57600080fd5b505afa158015611f3e573d6000803e3d6000fd5b505050506040513d601f19601f82011682018060405250810190611f6291906132b7565b826001600160a01b03166317d69bc86040518163ffffffff1660e01b815260040160206040518083038186803b158015611f9b57600080fd5b505afa158015611faf573d6000803e3d6000fd5b505050506040513d601f19601f82011682018060405250810190611fd391906132b7565b836001600160a01b031663c52987cf6040518163ffffffff1660e01b815260040160206040518083038186803b15801561200c57600080fd5b505afa158015612020573d6000803e3d6000fd5b505050506040513d601f19601f820116820180604052508101906120449190613708565b846001600160a01b031663ade6e2aa6040518163ffffffff1660e01b815260040160206040518083038186803b15801561207d57600080fd5b505afa158015612091573d6000803e3d6000fd5b505050506040513d601f19601f820116820180604052508101906120b59190613708565b856001600160a01b031663f3c274a66040518163ffffffff1660e01b815260040160206040518083038186803b1580156120ee57600080fd5b505afa158015612102573d6000803e3d6000fd5b505050506040513d601f19601f82011682018060405250810190612126919061363f565b9650965096509650965096505061214e565b949b5092995090975095509350915061214e9050565b91939550919395565b61215f612f71565b612167612f71565b6121728460086111cc565b905061217c612f71565b612188600160006111cc565b9050612192612f71565b61219e828a8a8a6121b8565b90506121ab838287612628565b9998505050505050505050565b6121c0612f71565b826001600160a01b0316846001600160a01b031614156121e1575083610405565b6007546040516301957f8160e01b815260009182916001600160a01b03909116906301957f81906122189089908890600401613830565b604080518083038186803b15801561222f57600080fd5b505afa158015612243573d6000803e3d6000fd5b505050506040513d601f19601f820116820180604052508101906122679190613720565b6007546040516301957f8160e01b815292945090925060009182916001600160a01b0316906301957f81906122a2908a908a90600401613830565b604080518083038186803b1580156122b957600080fd5b505afa1580156122cd573d6000803e3d6000fd5b505050506040513d601f19601f820116820180604052508101906122f19190613720565b915091508280156122ff5750805b61231b5760405162461bcd60e51b815260040161043590613e83565b6121ab6123298360086111cc565b611cd06123378760086111cc565b8c9063ffffffff612b2c16565b3390565b6000828201838110156112835760405162461bcd60e51b815260040161043590613bee565b6000612377612f71565b61237f612f71565b61238f8a8a63ffffffff612bd116565b905060006123a3428863ffffffff6112b516565b9050610e1081106123b6578192506124a3565b6123be612f71565b6123c6612f71565b6123d3600154601b6111cc565b90508615612405576123fe611c496123f1838d63ffffffff612b2c16565b8d9063ffffffff6127e616565b915061242f565b61242c8a611cd0611c4961241f858463ffffffff612b2c16565b8f9063ffffffff6127e616565b91505b50612438612f71565b6124438360126111cc565b905061244d612f71565b61245a610e1060126111cc565b905061248461247782611cd085611c848a8963ffffffff6127e616565b849063ffffffff612ba816565b9550612496868663ffffffff6128c116565b1561249f578495505b5050505b611d238387600163ffffffff611d3216565b6124bd612f71565b60008381526004602090815260409182902080548351818402810184019094528084526060939283018282801561251357602002820191906000526020600020905b8154815260200190600101908083116124ff575b5050505050905080516000141561253c5760405162461bcd60e51b81526004016104359061391d565b600061254e844263ffffffff6112b516565b90508082612567600185516112b590919063ffffffff16565b8151811061257157fe5b602002602001015110156125975760405162461bcd60e51b8152600401610435906143c6565b60005b82518160ff1610156126175781838260ff16815181106125b657fe5b60200260200101511061260f57600086815260056020526040812084516126059290869060ff86169081106125e757fe5b6020026020010151815260200190815260200160002054601b6111cc565b9350505050611286565b60010161259a565b50505092915050565b519051131590565b612630612f71565b811561267657612646848463ffffffff6128c116565b61265f576040805160208101909152600254815261266f565b61266f848463ffffffff6127e616565b9050611dfe565b612686838563ffffffff6128c116565b61269f5760408051602081019091526002548152611dfb565b611dfb838563ffffffff6127e616565b815151600110156126d25760405162461bcd60e51b81526004016104359061423d565b600182602001515111156126f85760405162461bcd60e51b815260040161043590613c6b565b6001826040015151111561271e5760405162461bcd60e51b815260040161043590614145565b606082015151825151146127445760405162461bcd60e51b815260040161043590613d00565b8160800151518260200151511461276d5760405162461bcd60e51b815260040161043590614320565b8160a0015151826040015151146127965760405162461bcd60e51b815260040161043590614370565b6127a08282612c65565b6127bc5760405162461bcd60e51b815260040161043590613ed6565b6127c68282612d9f565b6127e25760405162461bcd60e51b815260040161043590614044565b5050565b6127ee612f71565b604080516020810190915282518451829161280f919063ffffffff612e3f16565b90529392505050565b519051121590565b600081848411156128445760405162461bcd60e51b815260040161043591906138ca565b505050900390565b6000818361286d5760405162461bcd60e51b815260040161043591906138ca565b50600083858161287957fe5b0495945050505050565b6000808251118015611286575060006001600160a01b0316826000815181106128a857fe5b60200260200101516001600160a01b0316141592915050565b5190511390565b6128d0612f71565b61290c611c496128f06128e38888612b73565b859063ffffffff612b2c16565b612900888763ffffffff612b2c16565b9063ffffffff6127e616565b95945050505050565b61291d612f71565b816001600160a01b0316836001600160a01b0316141561293e575082611dfe565b6007546040516341976e0960e01b81526000916001600160a01b0316906341976e099061296f9087906004016137f2565b60206040518083038186803b15801561298757600080fd5b505afa15801561299b573d6000803e3d6000fd5b505050506040513d601f19601f820116820180604052508101906129bf9190613708565b6007546040516341976e0960e01b81529192506000916001600160a01b03909116906341976e09906129f59087906004016137f2565b60206040518083038186803b158015612a0d57600080fd5b505afa158015612a21573d6000803e3d6000fd5b505050506040513d601f19601f82011682018060405250810190612a459190613708565b905061110c612a558260086111cc565b611cd0612a638560086111cc565b899063ffffffff612b2c16565b612a78612f71565b60408051602081019091526002548152612a9990839063ffffffff612e8516565b15612ab857612ab1611c49868663ffffffff6127e616565b9050610405565b612ac0612f71565b612ad883611cd088611c84838963ffffffff6127e616565b9050612ae2612f71565b612af5611c49888863ffffffff6127e616565b9050610c6d8282612b91565b612b09612f71565b61290c612b1c838663ffffffff612b2c16565b612900858863ffffffff612b2c16565b612b34612f71565b60408051602081019091528251845182916b033b2e3c9fd0803ce800000091612b629163ffffffff612e8c16565b81612b6957fe5b0590529392505050565b612b7b612f71565b8151835112612b8a5781611283565b5090919050565b612b99612f71565b8151835113612b8a5781611283565b612bb0612f71565b604080516020810190915282518451829161280f919063ffffffff612ef716565b612bd9612f71565b604080516020810190915282518451829190612b62906b033b2e3c9fd0803ce800000063ffffffff612e8c16565b600080821215612c1c5781600003905061053f565b508061053f565b600061128383836040518060400160405280601881526020017f536166654d6174683a206d6f64756c6f206279207a65726f0000000000000000815250612f3d565b6000816101a0015160011415612c985781610200015115612c985760405162461bcd60e51b815260040161043590613e26565b8161020001511580612cad5750816102200151155b15612cba57506001611286565b82518051600090612cc757fe5b60200260200101516001600160a01b03168360200151600081518110612ce957fe5b60200260200101516001600160a01b031614158015612d21575081600001516001600160a01b031682606001516001600160a01b0316145b8015612d46575081602001516001600160a01b031682608001516001600160a01b0316145b8015612d6b575081604001516001600160a01b03168260a001516001600160a01b0316145b8015612d7f57508160e00151826101400151145b80156112835750816101c001511515826101e00151151514905092915050565b610240810151600090600190612db6579050611286565b82610220015115612df9578360400151600081518110612dd257fe5b60200260200101516001600160a01b031683604001516001600160a01b0316149050611283565b82610200015115611283578360400151600081518110612e1557fe5b60200260200101516001600160a01b03168360a001516001600160a01b0316149050905092915050565b6000818303818312801590612e545750838113155b80612e695750600083128015612e6957508381135b6112835760405162461bcd60e51b815260040161043590614292565b5190511490565b600082612e9b57506000611286565b82600019148015612eaf5750600160ff1b82145b15612ecc5760405162461bcd60e51b815260040161043590613ffd565b82820282848281612ed957fe5b05146112835760405162461bcd60e51b815260040161043590613ffd565b6000828201818312801590612f0c5750838112155b80612f215750600083128015612f2157508381125b6112835760405162461bcd60e51b815260040161043590613cbf565b60008183612f5e5760405162461bcd60e51b815260040161043591906138ca565b50828481612f6857fe5b06949350505050565b6040518060200160405280600081525090565b6040805161026081018252600080825260208201819052918101829052606081018290526080810182905260a0810182905260c0810182905260e08101829052610100810182905261012081018290526101408101829052610160810182905261018081018290526101a081018290526101c081018290526101e081018290526102008101829052610220810182905261024081019190915290565b6040518060600160405280613033612f71565b8152602001613040612f71565b815260200161304d612f71565b905290565b6040805160a08101825260008082526020820181905291810182905260608101829052608081019190915290565b600082601f830112613090578081fd5b81356130a361309e8261448d565b614466565b8181529150602080830190848101818402860182018710156130c457600080fd5b60005b848110156130ec5781356130da816144ad565b845292820192908201906001016130c7565b505050505092915050565b60008083601f840112613108578081fd5b50813567ffffffffffffffff81111561311f578182fd5b602083019150836020808302850101111561036157600080fd5b600082601f830112613149578081fd5b813561315761309e8261448d565b81815291506020808301908481018184028601820187101561317857600080fd5b60005b848110156130ec5781358452928201929082019060010161317b565b600060c082840312156131a8578081fd5b6131b260c0614466565b9050813567ffffffffffffffff808211156131cc57600080fd5b6131d885838601613080565b835260208401359150808211156131ee57600080fd5b6131fa85838601613080565b6020840152604084013591508082111561321357600080fd5b61321f85838601613080565b6040840152606084013591508082111561323857600080fd5b61324485838601613139565b6060840152608084013591508082111561325d57600080fd5b61326985838601613139565b608084015260a084013591508082111561328257600080fd5b5061328f84828501613139565b60a08301525092915050565b6000602082840312156132ac578081fd5b8135611283816144ad565b6000602082840312156132c8578081fd5b8151611283816144ad565b600080600080608085870312156132e8578283fd5b84356132f3816144ad565b93506020850135613303816144ad565b92506040850135613313816144ad565b91506060850135613323816144c5565b939692955090935050565b60008060008060008060008060c0898b031215613349578384fd5b8835613354816144ad565b97506020890135613364816144ad565b96506040890135613374816144ad565b95506060890135613384816144c5565b9450608089013567ffffffffffffffff808211156133a0578586fd5b6133ac8c838d016130f7565b909650945060a08b01359150808211156133c4578384fd5b506133d18b828c016130f7565b999c989b5096995094979396929594505050565b600080600080600060a086880312156133fc578081fd5b8535613407816144ad565b94506020860135613417816144ad565b93506040860135613427816144ad565b92506060860135613437816144c5565b949793965091946080013592915050565b60008060008060008060c08789031215613460578182fd5b863561346b816144ad565b9550602087013561347b816144ad565b9450604087013561348b816144ad565b9350606087013561349b816144c5565b9598949750929560808101359460a0909101359350915050565b60008060008060008060c087890312156134cd578182fd5b86516134d8816144ad565b60208801519096506134e9816144ad565b60408801519095506134fa816144ad565b80945050606087015192506080870151915060a087015161351a816144c5565b809150509295509295509295565b60008060008060008060008060006101208a8c031215613546578283fd5b8935613551816144ad565b985060208a0135613561816144ad565b975060408a0135613571816144ad565b965060608a0135955060808a0135945060a08a0135935060c08a0135925060e08a013591506101008a01356135a5816144c5565b809150509295985092959850929598565b600080600080600060a086880312156135cd578283fd5b85356135d8816144ad565b945060208601356135e8816144ad565b935060408601359250606086013591506080860135613606816144c5565b809150509295509295909350565b60008060408385031215613626578182fd5b8235613631816144ad565b946020939093013593505050565b600060208284031215613650578081fd5b8151611283816144c5565b6000806040838503121561366d578182fd5b823567ffffffffffffffff811115613683578283fd5b61368f85828601613197565b95602094909401359450505050565b600080600080608085870312156136b3578182fd5b843567ffffffffffffffff8111156136c9578283fd5b6136d587828801613197565b97602087013597506040870135966060013595509350505050565b600060208284031215613701578081fd5b5035919050565b600060208284031215613719578081fd5b5051919050565b60008060408385031215613732578182fd5b825191506020830151613744816144c5565b809150509250929050565b60008060408385031215613761578182fd5b505080516020909101519092909150565b600080600080600080600060e0888a03121561378c578081fd5b873596506020880135955060408801359450606088013593506080880135925060a0880135915060c08801356137c1816144c5565b8091505092959891949750929550565b6000602082840312156137e2578081fd5b815160ff81168114611283578182fd5b6001600160a01b0391909116815260200190565b6001600160a01b039485168152928416602084015292166040820152901515606082015260800190565b6001600160a01b03929092168252602082015260400190565b6001600160a01b0392909216825269ffffffffffffffffffff16602082015260400190565b6020808252825182820181905260009190848201906040850190845b818110156138a65783518352928401929184019160010161388a565b50909695505050505050565b92151583526020830191909152604082015260600190565b6000602080835283518082850152825b818110156138f6578581018301518582016040015282016138da565b818111156139075783604083870101525b50601f01601f1916929092016040019392505050565b6020808252602f908201527f4d617267696e43616c63756c61746f723a2070726f647563742068617665206e60408201526e6f206578706972792076616c75657360881b606082015260800190565b60208082526046908201527f4d617267696e43616c63756c61746f723a2061756374696f6e2074696d65737460408201527f616d702073686f756c6420626520706f7374207661756c74206c61746573742060608201526575706461746560d01b608082015260a00190565b60208082526027908201527f4d617267696e43616c63756c61746f723a20496e76616c696420746f6b656e206040820152666164647265737360c81b606082015260800190565b60208082526028908201527f4d617267696e43616c63756c61746f723a204f746f6b656e206e6f74206578706040820152671a5c9959081e595d60c21b606082015260800190565b60208082526033908201527f4d617267696e43616c63756c61746f723a206e6f2065787069727920757070656040820152721c88189bdd5b99081d985b1d5948199bdd5b99606a1b606082015260800190565b6020808252602f908201527f4d617267696e43616c63756c61746f723a20696e76616c69642074696d65732060408201526e746f2065787069727920617272617960881b606082015260800190565b60208082526026908201527f4f776e61626c653a206e6577206f776e657220697320746865207a65726f206160408201526564647265737360d01b606082015260800190565b60208082526039908201527f4d617267696e43616c63756c61746f723a206475737420616d6f756e7420736860408201527f6f756c642062652067726561746572207468616e207a65726f00000000000000606082015260800190565b60208082526022908201527f4669786564506f696e74496e743235363a206f7574206f6620696e742072616e604082015261676560f01b606082015260800190565b6020808252601b908201527f536166654d6174683a206164646974696f6e206f766572666c6f770000000000604082015260600190565b60208082526026908201527f4d617267696e43616c63756c61746f723a20696e76616c69642076616c75657360408201526520617272617960d01b606082015260800190565b60208082526034908201527f4d617267696e43616c63756c61746f723a20546f6f206d616e79206c6f6e67206040820152731bdd1bdad95b9cc81a5b881d1a19481d985d5b1d60621b606082015260800190565b60208082526021908201527f5369676e6564536166654d6174683a206164646974696f6e206f766572666c6f6040820152607760f81b606082015260800190565b60208082526031908201527f4d617267696e43616c63756c61746f723a2053686f727420617373657420616e6040820152700c840c2dadeeadce840dad2e6dac2e8c6d607b1b606082015260800190565b6020808252605b908201527f4d617267696e43616c63756c61746f723a206e616b6564206d617267696e207660408201527f61756c742073686f756c64206861766520636f6c6c61746572616c20616d6f7560608201527f6e742067726561746572207468616e206475737420616d6f756e740000000000608082015260a00190565b60208082526032908201527f4d617267696e43616c63756c61746f723a20696e76616c6964206f7074696f6e60408201527120757070657220626f756e642076616c756560701b606082015260800190565b6020808252603c908201527f4d617267696e43616c63756c61746f723a206e616b6564206d617267696e207660408201527f61756c742063616e6e6f742068617665206c6f6e67206f746f6b656e00000000606082015260800190565b60208082526033908201527f4d617267696e43616c63756c61746f723a2070726963652061742065787069726040820152721e481b9bdd08199a5b985b1a5e9959081e595d606a1b606082015260800190565b6020808252603b908201527f4d617267696e43616c63756c61746f723a206c6f6e67206173736574206e6f7460408201527f206d617267696e61626c6520666f722073686f72742061737365740000000000606082015260800190565b60208082526034908201527f4d617267696e43616c63756c61746f723a2063616e206e6f74206c697175696460408201527330ba329032bc3834b932b2103837b9b4ba34b7b760611b606082015260800190565b60208082526021908201527f536166654d6174683a206d756c7469706c69636174696f6e206f766572666c6f6040820152607760f81b606082015260800190565b6020808252818101527f4f776e61626c653a2063616c6c6572206973206e6f7420746865206f776e6572604082015260600190565b60208082526027908201527f5369676e6564536166654d6174683a206d756c7469706c69636174696f6e206f604082015266766572666c6f7760c81b606082015260800190565b60208082526041908201527f4d617267696e43616c63756c61746f723a20636f6c6c61746572616c2061737360408201527f6574206e6f74206d617267696e61626c6520666f722073686f727420617373656060820152601d60fa1b608082015260a00190565b60208082526029908201527f4d617267696e43616c63756c61746f723a2074696d652073686f756c642062656040820152681034b71037b93232b960b91b606082015260800190565b60208082526031908201527f4d617267696e43616c63756c61746f723a20696e76616c6964207661756c74206040820152707479706520746f206c697175696461746560781b606082015260800190565b60208082526039908201527f4d617267696e43616c63756c61746f723a20546f6f206d616e7920636f6c6c6160408201527f746572616c2061737365747320696e20746865207661756c7400000000000000606082015260800190565b6020808252602d908201527f4d617267696e43616c63756c61746f723a20757070657220626f756e6420766160408201526c1b1d59481b9bdd08199bdd5b99609a1b606082015260800190565b6020808252602e908201527f4d617267696e43616c63756c61746f723a20657870697279206172726179206960408201526d39903737ba1034b71037b93232b960911b606082015260800190565b60208082526035908201527f4d617267696e43616c63756c61746f723a20546f6f206d616e792073686f7274604082015274081bdd1bdad95b9cc81a5b881d1a19481d985d5b1d605a1b606082015260800190565b60208082526024908201527f5369676e6564536166654d6174683a207375627472616374696f6e206f766572604082015263666c6f7760e01b606082015260800190565b6020808252602a908201527f4d617267696e43616c63756c61746f723a20696e76616c69642073706f742073604082015269686f636b2076616c756560b01b606082015260800190565b60208082526030908201527f4d617267696e43616c63756c61746f723a204c6f6e6720617373657420616e6460408201526f040c2dadeeadce840dad2e6dac2e8c6d60831b606082015260800190565b60208082526036908201527f4d617267696e43616c63756c61746f723a20436f6c6c61746572616c206173736040820152750cae840c2dcc840c2dadeeadce840dad2e6dac2e8c6d60531b606082015260800190565b60208082526033908201527f4d617267696e43616c63756c61746f723a2070726f647563742068617665206e6040820152726f20757070657220626f756e642076616c756560681b606082015260800190565b9151825251602082015260400190565b90815260200190565b9182521515602082015260400190565b918252602082015260400190565b9283526020830191909152604082015260600190565b60405181810167ffffffffffffffff8111828210171561448557600080fd5b604052919050565b600067ffffffffffffffff8211156144a3578081fd5b5060209081020190565b6001600160a01b03811681146144c257600080fd5b50565b80151581146144c257600080fdfea2646970667358221220c70ea1831b6f51b2b4c7f97dce8cd8d531cf97e725b7eab345585506696467c164736f6c634300060a0033",
  "linkReferences": {},
  "deployedLinkReferences": {}
}