{
  "_format": "hh-sol-artifact-1",
  "contractName": "OwnedUpgradeabilityProxy",
  "sourceName": "contracts/packages/oz/upgradeability/OwnedUpgradeabilityProxy.sol",
  "abi": [
    {
      "inputs": [],
      "stateMutability": "nonpayable",
      "type": "constructor"
    },
    {
      "anonymous": false,
      "inputs": [
        {
          "indexed": false,
          "internalType": "address",
          "name": "previousOwner",
          "type": "address"
        },
        {
          "indexed": false,
          "internalType": "address",
          "name": "newOwner",
          "type": "address"
        }
      ],
      "name": "ProxyOwnershipTransferred",
      "type": "event"
    },
    {
      "anonymous": false,
      "inputs": [
        {
          "indexed": true,
          "internalType": "address",
          "name": "implementation",
          "type": "address"
        }
      ],
      "name": "Upgraded",
      "type": "event"
    },
    {
      "stateMutability": "payable",
      "type": "fallback"
    },
    {
      "inputs": [],
      "name": "implementation",
      "outputs": [
        {
          "internalType": "address",
          "name": "impl",
          "type": "address"
        }
      ],
      "stateMutability": "view",
      "type": "function"
    },
    {
      "inputs": [],
      "name": "proxyOwner",
      "outputs": [
        {
          "internalType": "address",
          "name": "owner",
          "type": "address"
        }
      ],
      "stateMutability": "view",
      "type": "function"
    },
    {
      "inputs": [
        {
          "internalType": "address",
          "name": "_newOwner",
          "type": "address"
        }
      ],
      "name": "transferProxyOwnership",
      "outputs": [],
      "stateMutability": "nonpayable",
      "type": "function"
    },
    {
      "inputs": [
        {
          "internalType": "address",
          "name": "_implementation",
          "type": "address"
        }
      ],
      "name": "upgradeTo",
      "outputs": [],
      "stateMutability": "nonpayable",
      "type": "function"
    },
    {
      "inputs": [
        {
          "internalType": "address",
          "name": "_implementation",
          "type": "address"
        },
        {
          "internalType": "bytes",
          "name": "_data",
          "type": "bytes"
        }
      ],
      "name": "upgradeToAndCall",
      "outputs": [],
      "stateMutability": "payable",
      "type": "function"
    }
  ],
  "bytecode": "0x608060405234801561001057600080fd5b50610023336001600160e01b0361002816565b61005d565b604080517f6f72672e7a657070656c696e6f732e70726f78792e6f776e65720000000000008152905190819003601a01902055565b6104958061006c6000396000f3fe60806040526004361061004a5760003560e01c8063025313a21461008e5780633659cfe6146100bf5780634f1ef286146100f45780635c60da1b14610174578063f1739cae14610189575b60006100546101bc565b90506001600160a01b03811661006957600080fd5b60405136600082376000803683855af43d806000843e81801561008a578184f35b8184fd5b34801561009a57600080fd5b506100a36101df565b604080516001600160a01b039092168252519081900360200190f35b3480156100cb57600080fd5b506100f2600480360360208110156100e257600080fd5b50356001600160a01b0316610215565b005b6100f26004803603604081101561010a57600080fd5b6001600160a01b03823516919081019060408101602082013564010000000081111561013557600080fd5b82018360208201111561014757600080fd5b8035906020019184600183028401116401000000008311171561016957600080fd5b509092509050610246565b34801561018057600080fd5b506100a36101bc565b34801561019557600080fd5b506100f2600480360360208110156101ac57600080fd5b50356001600160a01b03166102ed565b600080604051808061043d60239139604051908190036023019020549392505050565b604080517f6f72672e7a657070656c696e6f732e70726f78792e6f776e65720000000000008152905190819003601a0190205490565b61021d6101df565b6001600160a01b0316336001600160a01b03161461023a57600080fd5b61024381610379565b50565b61024e6101df565b6001600160a01b0316336001600160a01b03161461026b57600080fd5b61027483610215565b6000306001600160a01b0316348484604051808383808284376040519201945060009350909150508083038185875af1925050503d80600081146102d4576040519150601f19603f3d011682016040523d82523d6000602084013e6102d9565b606091505b50509050806102e757600080fd5b50505050565b6102f56101df565b6001600160a01b0316336001600160a01b03161461031257600080fd5b6001600160a01b03811661032557600080fd5b7f5a3e66efaa1e445ebd894728a69d6959842ea1e97bd79b892797106e270efcd961034e6101df565b604080516001600160a01b03928316815291841660208301528051918290030190a1610243816103e5565b60006103836101bc565b9050816001600160a01b0316816001600160a01b031614156103a457600080fd5b6103ad8261041a565b6040516001600160a01b038316907fbc7cd75a20ee27fd9adebab32041f755214dbc6bffa90cc0225b39da2e5c2d3b90600090a25050565b604080517f6f72672e7a657070656c696e6f732e70726f78792e6f776e65720000000000008152905190819003601a01902055565b6000604051808061043d6023913960405190819003602301902092909255505056fe6f72672e7a657070656c696e6f732e70726f78792e696d706c656d656e746174696f6ea2646970667358221220f2afd0d88ce5ca2e4e38002b51bde27c9952caa825a64af50a818c922bbe776864736f6c634300060a0033",
  "linkReferences": {},
  "deployedLinkReferences": {}
}