{
  "_format": "hh-sol-artifact-1",
  "contractName": "ActionTester",
  "sourceName": "contracts/tests/ActionTester.sol",
  "abi": [
    {
      "inputs": [],
      "name": "getBurnArgs",
      "outputs": [
        {
          "components": [
            {
              "internalType": "address",
              "name": "owner",
              "type": "address"
            },
            {
              "internalType": "uint256",
              "name": "vaultId",
              "type": "uint256"
            },
            {
              "internalType": "address",
              "name": "from",
              "type": "address"
            },
            {
              "internalType": "address",
              "name": "otoken",
              "type": "address"
            },
            {
              "internalType": "uint256",
              "name": "index",
              "type": "uint256"
            },
            {
              "internalType": "uint256",
              "name": "amount",
              "type": "uint256"
            }
          ],
          "internalType": "struct Actions.BurnArgs",
          "name": "",
          "type": "tuple"
        }
      ],
      "stateMutability": "view",
      "type": "function"
    },
    {
      "inputs": [],
      "name": "getCallArgs",
      "outputs": [
        {
          "components": [
            {
              "internalType": "address",
              "name": "callee",
              "type": "address"
            },
            {
              "internalType": "bytes",
              "name": "data",
              "type": "bytes"
            }
          ],
          "internalType": "struct Actions.CallArgs",
          "name": "",
          "type": "tuple"
        }
      ],
      "stateMutability": "view",
      "type": "function"
    },
    {
      "inputs": [],
      "name": "getDepositArgs",
      "outputs": [
        {
          "components": [
            {
              "internalType": "address",
              "name": "owner",
              "type": "address"
            },
            {
              "internalType": "uint256",
              "name": "vaultId",
              "type": "uint256"
            },
            {
              "internalType": "address",
              "name": "from",
              "type": "address"
            },
            {
              "internalType": "address",
              "name": "asset",
              "type": "address"
            },
            {
              "internalType": "uint256",
              "name": "index",
              "type": "uint256"
            },
            {
              "internalType": "uint256",
              "name": "amount",
              "type": "uint256"
            }
          ],
          "internalType": "struct Actions.DepositArgs",
          "name": "",
          "type": "tuple"
        }
      ],
      "stateMutability": "view",
      "type": "function"
    },
    {
      "inputs": [],
      "name": "getLiquidateArgs",
      "outputs": [
        {
          "components": [
            {
              "internalType": "address",
              "name": "owner",
              "type": "address"
            },
            {
              "internalType": "address",
              "name": "receiver",
              "type": "address"
            },
            {
              "internalType": "uint256",
              "name": "vaultId",
              "type": "uint256"
            },
            {
              "internalType": "uint256",
              "name": "amount",
              "type": "uint256"
            },
            {
              "internalType": "uint256",
              "name": "roundId",
              "type": "uint256"
            }
          ],
          "internalType": "struct Actions.LiquidateArgs",
          "name": "",
          "type": "tuple"
        }
      ],
      "stateMutability": "view",
      "type": "function"
    },
    {
      "inputs": [],
      "name": "getMintArgs",
      "outputs": [
        {
          "components": [
            {
              "internalType": "address",
              "name": "owner",
              "type": "address"
            },
            {
              "internalType": "uint256",
              "name": "vaultId",
              "type": "uint256"
            },
            {
              "internalType": "address",
              "name": "to",
              "type": "address"
            },
            {
              "internalType": "address",
              "name": "otoken",
              "type": "address"
            },
            {
              "internalType": "uint256",
              "name": "index",
              "type": "uint256"
            },
            {
              "internalType": "uint256",
              "name": "amount",
              "type": "uint256"
            }
          ],
          "internalType": "struct Actions.MintArgs",
          "name": "",
          "type": "tuple"
        }
      ],
      "stateMutability": "view",
      "type": "function"
    },
    {
      "inputs": [],
      "name": "getOpenVaultArgs",
      "outputs": [
        {
          "components": [
            {
              "internalType": "address",
              "name": "owner",
              "type": "address"
            },
            {
              "internalType": "uint256",
              "name": "vaultId",
              "type": "uint256"
            },
            {
              "internalType": "uint256",
              "name": "vaultType",
              "type": "uint256"
            }
          ],
          "internalType": "struct Actions.OpenVaultArgs",
          "name": "",
          "type": "tuple"
        }
      ],
      "stateMutability": "view",
      "type": "function"
    },
    {
      "inputs": [],
      "name": "getRedeemArgs",
      "outputs": [
        {
          "components": [
            {
              "internalType": "address",
              "name": "receiver",
              "type": "address"
            },
            {
              "internalType": "address",
              "name": "otoken",
              "type": "address"
            },
            {
              "internalType": "uint256",
              "name": "amount",
              "type": "uint256"
            }
          ],
          "internalType": "struct Actions.RedeemArgs",
          "name": "",
          "type": "tuple"
        }
      ],
      "stateMutability": "view",
      "type": "function"
    },
    {
      "inputs": [],
      "name": "getSettleVaultArgs",
      "outputs": [
        {
          "components": [
            {
              "internalType": "address",
              "name": "owner",
              "type": "address"
            },
            {
              "internalType": "uint256",
              "name": "vaultId",
              "type": "uint256"
            },
            {
              "internalType": "address",
              "name": "to",
              "type": "address"
            }
          ],
          "internalType": "struct Actions.SettleVaultArgs",
          "name": "",
          "type": "tuple"
        }
      ],
      "stateMutability": "view",
      "type": "function"
    },
    {
      "inputs": [],
      "name": "getWithdrawArgs",
      "outputs": [
        {
          "components": [
            {
              "internalType": "address",
              "name": "owner",
              "type": "address"
            },
            {
              "internalType": "uint256",
              "name": "vaultId",
              "type": "uint256"
            },
            {
              "internalType": "address",
              "name": "to",
              "type": "address"
            },
            {
              "internalType": "address",
              "name": "asset",
              "type": "address"
            },
            {
              "internalType": "uint256",
              "name": "index",
              "type": "uint256"
            },
            {
              "internalType": "uint256",
              "name": "amount",
              "type": "uint256"
            }
          ],
          "internalType": "struct Actions.WithdrawArgs",
          "name": "",
          "type": "tuple"
        }
      ],
      "stateMutability": "view",
      "type": "function"
    },
    {
      "inputs": [
        {
          "components": [
            {
              "internalType": "enum Actions.ActionType",
              "name": "actionType",
              "type": "uint8"
            },
            {
              "internalType": "address",
              "name": "owner",
              "type": "address"
            },
            {
              "internalType": "address",
              "name": "secondAddress",
              "type": "address"
            },
            {
              "internalType": "address",
              "name": "asset",
              "type": "address"
            },
            {
              "internalType": "uint256",
              "name": "vaultId",
              "type": "uint256"
            },
            {
              "internalType": "uint256",
              "name": "amount",
              "type": "uint256"
            },
            {
              "internalType": "uint256",
              "name": "index",
              "type": "uint256"
            },
            {
              "internalType": "bytes",
              "name": "data",
              "type": "bytes"
            }
          ],
          "internalType": "struct Actions.ActionArgs",
          "name": "_args",
          "type": "tuple"
        }
      ],
      "name": "testParseBurnAction",
      "outputs": [],
      "stateMutability": "nonpayable",
      "type": "function"
    },
    {
      "inputs": [
        {
          "components": [
            {
              "internalType": "enum Actions.ActionType",
              "name": "actionType",
              "type": "uint8"
            },
            {
              "internalType": "address",
              "name": "owner",
              "type": "address"
            },
            {
              "internalType": "address",
              "name": "secondAddress",
              "type": "address"
            },
            {
              "internalType": "address",
              "name": "asset",
              "type": "address"
            },
            {
              "internalType": "uint256",
              "name": "vaultId",
              "type": "uint256"
            },
            {
              "internalType": "uint256",
              "name": "amount",
              "type": "uint256"
            },
            {
              "internalType": "uint256",
              "name": "index",
              "type": "uint256"
            },
            {
              "internalType": "bytes",
              "name": "data",
              "type": "bytes"
            }
          ],
          "internalType": "struct Actions.ActionArgs",
          "name": "_args",
          "type": "tuple"
        }
      ],
      "name": "testParseCallAction",
      "outputs": [],
      "stateMutability": "nonpayable",
      "type": "function"
    },
    {
      "inputs": [
        {
          "components": [
            {
              "internalType": "enum Actions.ActionType",
              "name": "actionType",
              "type": "uint8"
            },
            {
              "internalType": "address",
              "name": "owner",
              "type": "address"
            },
            {
              "internalType": "address",
              "name": "secondAddress",
              "type": "address"
            },
            {
              "internalType": "address",
              "name": "asset",
              "type": "address"
            },
            {
              "internalType": "uint256",
              "name": "vaultId",
              "type": "uint256"
            },
            {
              "internalType": "uint256",
              "name": "amount",
              "type": "uint256"
            },
            {
              "internalType": "uint256",
              "name": "index",
              "type": "uint256"
            },
            {
              "internalType": "bytes",
              "name": "data",
              "type": "bytes"
            }
          ],
          "internalType": "struct Actions.ActionArgs",
          "name": "_args",
          "type": "tuple"
        }
      ],
      "name": "testParseDespositAction",
      "outputs": [],
      "stateMutability": "nonpayable",
      "type": "function"
    },
    {
      "inputs": [
        {
          "components": [
            {
              "internalType": "enum Actions.ActionType",
              "name": "actionType",
              "type": "uint8"
            },
            {
              "internalType": "address",
              "name": "owner",
              "type": "address"
            },
            {
              "internalType": "address",
              "name": "secondAddress",
              "type": "address"
            },
            {
              "internalType": "address",
              "name": "asset",
              "type": "address"
            },
            {
              "internalType": "uint256",
              "name": "vaultId",
              "type": "uint256"
            },
            {
              "internalType": "uint256",
              "name": "amount",
              "type": "uint256"
            },
            {
              "internalType": "uint256",
              "name": "index",
              "type": "uint256"
            },
            {
              "internalType": "bytes",
              "name": "data",
              "type": "bytes"
            }
          ],
          "internalType": "struct Actions.ActionArgs",
          "name": "_args",
          "type": "tuple"
        }
      ],
      "name": "testParseLiquidateActions",
      "outputs": [],
      "stateMutability": "nonpayable",
      "type": "function"
    },
    {
      "inputs": [
        {
          "components": [
            {
              "internalType": "enum Actions.ActionType",
              "name": "actionType",
              "type": "uint8"
            },
            {
              "internalType": "address",
              "name": "owner",
              "type": "address"
            },
            {
              "internalType": "address",
              "name": "secondAddress",
              "type": "address"
            },
            {
              "internalType": "address",
              "name": "asset",
              "type": "address"
            },
            {
              "internalType": "uint256",
              "name": "vaultId",
              "type": "uint256"
            },
            {
              "internalType": "uint256",
              "name": "amount",
              "type": "uint256"
            },
            {
              "internalType": "uint256",
              "name": "index",
              "type": "uint256"
            },
            {
              "internalType": "bytes",
              "name": "data",
              "type": "bytes"
            }
          ],
          "internalType": "struct Actions.ActionArgs",
          "name": "_args",
          "type": "tuple"
        }
      ],
      "name": "testParseMintAction",
      "outputs": [],
      "stateMutability": "nonpayable",
      "type": "function"
    },
    {
      "inputs": [
        {
          "components": [
            {
              "internalType": "enum Actions.ActionType",
              "name": "actionType",
              "type": "uint8"
            },
            {
              "internalType": "address",
              "name": "owner",
              "type": "address"
            },
            {
              "internalType": "address",
              "name": "secondAddress",
              "type": "address"
            },
            {
              "internalType": "address",
              "name": "asset",
              "type": "address"
            },
            {
              "internalType": "uint256",
              "name": "vaultId",
              "type": "uint256"
            },
            {
              "internalType": "uint256",
              "name": "amount",
              "type": "uint256"
            },
            {
              "internalType": "uint256",
              "name": "index",
              "type": "uint256"
            },
            {
              "internalType": "bytes",
              "name": "data",
              "type": "bytes"
            }
          ],
          "internalType": "struct Actions.ActionArgs",
          "name": "_args",
          "type": "tuple"
        }
      ],
      "name": "testParseOpenVaultAction",
      "outputs": [],
      "stateMutability": "nonpayable",
      "type": "function"
    },
    {
      "inputs": [
        {
          "components": [
            {
              "internalType": "enum Actions.ActionType",
              "name": "actionType",
              "type": "uint8"
            },
            {
              "internalType": "address",
              "name": "owner",
              "type": "address"
            },
            {
              "internalType": "address",
              "name": "secondAddress",
              "type": "address"
            },
            {
              "internalType": "address",
              "name": "asset",
              "type": "address"
            },
            {
              "internalType": "uint256",
              "name": "vaultId",
              "type": "uint256"
            },
            {
              "internalType": "uint256",
              "name": "amount",
              "type": "uint256"
            },
            {
              "internalType": "uint256",
              "name": "index",
              "type": "uint256"
            },
            {
              "internalType": "bytes",
              "name": "data",
              "type": "bytes"
            }
          ],
          "internalType": "struct Actions.ActionArgs",
          "name": "_args",
          "type": "tuple"
        }
      ],
      "name": "testParseRedeemAction",
      "outputs": [],
      "stateMutability": "nonpayable",
      "type": "function"
    },
    {
      "inputs": [
        {
          "components": [
            {
              "internalType": "enum Actions.ActionType",
              "name": "actionType",
              "type": "uint8"
            },
            {
              "internalType": "address",
              "name": "owner",
              "type": "address"
            },
            {
              "internalType": "address",
              "name": "secondAddress",
              "type": "address"
            },
            {
              "internalType": "address",
              "name": "asset",
              "type": "address"
            },
            {
              "internalType": "uint256",
              "name": "vaultId",
              "type": "uint256"
            },
            {
              "internalType": "uint256",
              "name": "amount",
              "type": "uint256"
            },
            {
              "internalType": "uint256",
              "name": "index",
              "type": "uint256"
            },
            {
              "internalType": "bytes",
              "name": "data",
              "type": "bytes"
            }
          ],
          "internalType": "struct Actions.ActionArgs",
          "name": "_args",
          "type": "tuple"
        }
      ],
      "name": "testParseSettleVaultAction",
      "outputs": [],
      "stateMutability": "nonpayable",
      "type": "function"
    },
    {
      "inputs": [
        {
          "components": [
            {
              "internalType": "enum Actions.ActionType",
              "name": "actionType",
              "type": "uint8"
            },
            {
              "internalType": "address",
              "name": "owner",
              "type": "address"
            },
            {
              "internalType": "address",
              "name": "secondAddress",
              "type": "address"
            },
            {
              "internalType": "address",
              "name": "asset",
              "type": "address"
            },
            {
              "internalType": "uint256",
              "name": "vaultId",
              "type": "uint256"
            },
            {
              "internalType": "uint256",
              "name": "amount",
              "type": "uint256"
            },
            {
              "internalType": "uint256",
              "name": "index",
              "type": "uint256"
            },
            {
              "internalType": "bytes",
              "name": "data",
              "type": "bytes"
            }
          ],
          "internalType": "struct Actions.ActionArgs",
          "name": "_args",
          "type": "tuple"
        }
      ],
      "name": "testParseWithdrawAction",
      "outputs": [],
      "stateMutability": "nonpayable",
      "type": "function"
    }
  ],
  "bytecode": "0x608060405234801561001057600080fd5b50611610806100206000396000f3fe608060405234801561001057600080fd5b50600436106101165760003560e01c80639d53155a116100a2578063cc294d7c11610071578063cc294d7c1461021c578063cdc5c6d314610231578063e516b11e14610239578063ef772c471461024c578063f5380a841461025457610116565b80639d53155a146101ce578063b90835ad146101e1578063be0c775c146101f6578063c36b3f121461020957610116565b806342ef617d116100e957806342ef617d146101765780634af9d84f1461018b57806360062217146101935780637343b9b7146101a857806383bb0c5d146101bb57610116565b806302772fc61461011b578063065d80e41461013057806321667fe5146101435780633a3a258514610161575b600080fd5b61012e6101293660046110ab565b610267565b005b61012e61013e3660046110ab565b6102ac565b61014b610317565b604051610158919061147d565b60405180910390f35b6101696103d3565b604051610158919061146f565b61017e610428565b6040516101589190611586565b610169610463565b61019b6104b8565b60405161015891906114ea565b61012e6101b63660046110ab565b610501565b61012e6101c93660046110ab565b61053d565b61012e6101dc3660046110ab565b6105a8565b6101e96105fe565b6040516101589190611557565b61012e6102043660046110ab565b610637565b61012e6102173660046110ab565b61067d565b6102246106c3565b604051610158919061152d565b6101696106f9565b61012e6102473660046110ab565b61074e565b6101696107b9565b61012e6102623660046110ab565b61080e565b61027081610879565b8051601e80546001600160a01b039283166001600160a01b031991821617909155602080840151601f5560409093015183549216911617905550565b6102b58161094a565b8051600f80546001600160a01b039283166001600160a01b0319918216179091556020830151601055604083015160118054918416918316919091179055606083015160128054919093169116179055608081015160135560a0015160145550565b61031f610e8a565b604080518082018252602180546001600160a01b03168252602280548451602060026101006001851615026000190190931692909204601f810183900483028201830190965285815293949293818601939092918301828280156103c45780601f10610399576101008083540402835291602001916103c4565b820191906000526020600020905b8154815290600101906020018083116103a757829003601f168201915b50505050508152505090505b90565b6103db610ea2565b506040805160c0810182526003546001600160a01b03908116825260045460208301526005548116928201929092526006549091166060820152600754608082015260085460a082015290565b610430610ef3565b5060408051606081018252601e546001600160a01b039081168252601f5460208084019190915254169181019190915290565b61046b610ea2565b506040805160c0810182526009546001600160a01b039081168252600a546020830152600b54811692820192909252600c549091166060820152600d546080820152600e5460a082015290565b6104c0610f13565b506040805160a0810182526023546001600160a01b039081168252602454166020820152602554918101919091526026546060820152602754608082015290565b61050a81610a0f565b8051600080546001600160a01b0319166001600160a01b0390921691909117905560208101516001556040015160025550565b61054681610ae7565b8051601580546001600160a01b039283166001600160a01b0319918216179091556020830151601655604083015160178054918416918316919091179055606083015160188054919093169116179055608081015160195560a00151601a5550565b6105b181610b45565b8051602380546001600160a01b039283166001600160a01b031991821617909155602083015160248054919093169116179055604081015160255560608101516026556080015160275550565b610606610ef3565b5060408051606081018252601b546001600160a01b039081168252601c54166020820152601d549181019190915290565b61064081610c5f565b8051602180546001600160a01b0319166001600160a01b039092169190911781556020808301518051610677926022920190610f54565b50505050565b61068681610ce4565b8051601b80546001600160a01b039283166001600160a01b0319918216179091556020830151601c805491909316911617905560400151601d5550565b6106cb610fd2565b50604080516060810182526000546001600160a01b0316815260015460208201526002549181019190915290565b610701610ea2565b506040805160c081018252600f546001600160a01b03908116825260105460208301526011548116928201929092526012549091166060820152601354608082015260145460a082015290565b61075781610d76565b8051600380546001600160a01b039283166001600160a01b0319918216179091556020830151600455604083015160058054918416918316919091179055606083015160068054919093169116179055608081015160075560a0015160085550565b6107c1610ea2565b506040805160c0810182526015546001600160a01b039081168252601654602083015260175481169282019290925260185490911660608201526019546080820152601a5460a082015290565b61081781610deb565b8051600980546001600160a01b039283166001600160a01b0319918216179091556020830151600a556040830151600b80549184169183169190911790556060830151600c80549190931691161790556080810151600d5560a00151600e5550565b610881610ef3565b60078251600a81111561089057fe5b146108b65760405162461bcd60e51b81526004016108ad9061136f565b60405180910390fd5b60208201516001600160a01b03166108e05760405162461bcd60e51b81526004016108ad90611250565b60408201516001600160a01b031661090a5760405162461bcd60e51b81526004016108ad906113fd565b604051806060016040528083602001516001600160a01b031681526020018360800151815260200183604001516001600160a01b03168152509050919050565b610952610ea2565b60018251600a81111561096157fe5b1461097e5760405162461bcd60e51b81526004016108ad9061141a565b60208201516001600160a01b03166109a85760405162461bcd60e51b81526004016108ad90611453565b6040518060c0016040528083602001516001600160a01b031681526020018360800151815260200183604001516001600160a01b0316815260200183606001516001600160a01b031681526020018360c0015181526020018360a001518152509050919050565b610a17610fd2565b60008251600a811115610a2657fe5b14610a435760405162461bcd60e51b81526004016108ad9061128a565b60208201516001600160a01b0316610a6d5760405162461bcd60e51b81526004016108ad906112c2565b60008260e001515160201415610a98578260e00151806020019051810190610a95919061117e565b90505b60028110610ab85760405162461bcd60e51b81526004016108ad90611234565b604080516060810182526020808601516001600160a01b03168252608090950151948101949094528301525090565b610aef610ea2565b60028251600a811115610afe57fe5b14610b1b5760405162461bcd60e51b81526004016108ad906113c4565b60208201516001600160a01b03166109a85760405162461bcd60e51b81526004016108ad906112a6565b610b4d610f13565b600a8251600a811115610b5c57fe5b14610b795760405162461bcd60e51b81526004016108ad906111dd565b60208201516001600160a01b0316610ba35760405162461bcd60e51b81526004016108ad9061126d565b60408201516001600160a01b0316610bcd5760405162461bcd60e51b81526004016108ad90611217565b8160e0015151602014610bf25760405162461bcd60e51b81526004016108ad906113e0565b60008260e00151806020019051810190610c0c919061117e565b90506040518060a0016040528084602001516001600160a01b0316815260200184604001516001600160a01b03168152602001846080015181526020018460a00151815260200182815250915050919050565b610c67610e8a565b60098251600a811115610c7657fe5b14610c935760405162461bcd60e51b81526004016108ad906112fb565b60408201516001600160a01b0316610cbd5760405162461bcd60e51b81526004016108ad90611352565b50604080518082018252908201516001600160a01b0316815260e090910151602082015290565b610cec610ef3565b60088251600a811115610cfb57fe5b14610d185760405162461bcd60e51b81526004016108ad90611436565b60408201516001600160a01b0316610d425760405162461bcd60e51b81526004016108ad906112de565b506040805160608082018352838301516001600160a01b0390811683529084015116602082015260a0909201519082015290565b610d7e610ea2565b60038251600a811115610d8d57fe5b1480610da5575060058251600a811115610da357fe5b145b610dc15760405162461bcd60e51b81526004016108ad9061138c565b60208201516001600160a01b03166109a85760405162461bcd60e51b81526004016108ad906113a8565b610df3610ea2565b60048251600a811115610e0257fe5b1480610e1a575060068251600a811115610e1857fe5b145b610e365760405162461bcd60e51b81526004016108ad90611318565b60208201516001600160a01b0316610e605760405162461bcd60e51b81526004016108ad906111fa565b60408201516001600160a01b03166109a85760405162461bcd60e51b81526004016108ad90611335565b60408051808201909152600081526060602082015290565b6040518060c0016040528060006001600160a01b031681526020016000815260200160006001600160a01b0316815260200160006001600160a01b0316815260200160008152602001600081525090565b604080516060810182526000808252602082018190529181019190915290565b6040518060a0016040528060006001600160a01b0316815260200160006001600160a01b031681526020016000815260200160008152602001600081525090565b828054600181600116156101000203166002900490600052602060002090601f016020900481019282601f10610f9557805160ff1916838001178555610fc2565b82800160010185558215610fc2579182015b82811115610fc2578251825591602001919060010190610fa7565b50610fce929150610ffc565b5090565b604051806060016040528060006001600160a01b0316815260200160008152602001600081525090565b6103d091905b80821115610fce5760008155600101611002565b80356001600160a01b038116811461102d57600080fd5b92915050565b600082601f830112611043578081fd5b813567ffffffffffffffff811115611059578182fd5b61106c601f8201601f19166020016115b3565b915080825283602082850101111561108357600080fd5b8060208401602084013760009082016020015292915050565b8035600b811061102d57600080fd5b6000602082840312156110bc578081fd5b813567ffffffffffffffff808211156110d3578283fd5b6101009184018086038313156110e7578384fd5b6110f0836115b3565b6110fa878361109c565b81526111098760208401611016565b602082015261111b8760408401611016565b604082015261112d8760608401611016565b60608201526080820135608082015260a082013560a082015260c082013560c082015260e0820135935082841115611163578485fd5b61116f87858401611033565b60e08201529695505050505050565b60006020828403121561118f578081fd5b5051919050565b80516001600160a01b03908116835260208083015190840152604080830151821690840152606080830151909116908301526080808201519083015260a090810151910152565b60208082526003908201526208262760eb1b604082015260600190565b60208082526003908201526241313160e81b604082015260600190565b60208082526003908201526204132360ec1b604082015260600190565b602080825260029082015261413360f01b604082015260600190565b60208082526003908201526220989b60e91b604082015260600190565b60208082526003908201526241313960e81b604082015260600190565b602080825260029082015261413160f01b604082015260600190565b602080825260029082015261413760f01b604082015260600190565b602080825260029082015261209960f11b604082015260600190565b602080825260039082015262104c4d60ea1b604082015260600190565b60208082526003908201526220991960e91b604082015260600190565b60208082526003908201526204131360ec1b604082015260600190565b60208082526003908201526220989960e91b604082015260600190565b60208082526003908201526241323360e81b604082015260600190565b60208082526003908201526241313560e81b604082015260600190565b602080825260029082015261082760f31b604082015260600190565b602080825260029082015261413960f01b604082015260600190565b602080825260029082015261209b60f11b604082015260600190565b60208082526003908201526241323160e81b604082015260600190565b60208082526003908201526241313760e81b604082015260600190565b602080825260029082015261104d60f21b604082015260600190565b60208082526003908201526241313360e81b604082015260600190565b602080825260029082015261413560f01b604082015260600190565b60c0810161102d8284611196565b6000602080835260018060a01b0384511681840152808401516040808501528051806060860152835b818110156114c2578281018401518682016080015283016114a6565b818111156114d35784608083880101525b50601f01601f191693909301608001949350505050565b81516001600160a01b0390811682526020808401519091169082015260408083015190820152606080830151908201526080918201519181019190915260a00190565b81516001600160a01b03168152602080830151908201526040918201519181019190915260600190565b81516001600160a01b039081168252602080840151909116908201526040918201519181019190915260600190565b81516001600160a01b03908116825260208084015190830152604092830151169181019190915260600190565b60405181810167ffffffffffffffff811182821017156115d257600080fd5b60405291905056fea264697066735822122054922c7e768b9a7d2fed64e6a3c11f055ba9b95cf899703f8a28f0dd0f99779b64736f6c634300060a0033",
  "linkReferences": {},
  "deployedLinkReferences": {}
}