{
  "_format": "hh-sol-artifact-1",
  "contractName": "OtokenImplV1",
  "sourceName": "contracts/tests/OtokenImplV1.sol",
  "abi": [
    {
      "anonymous": false,
      "inputs": [
        {
          "indexed": true,
          "internalType": "address",
          "name": "owner",
          "type": "address"
        },
        {
          "indexed": true,
          "internalType": "address",
          "name": "spender",
          "type": "address"
        },
        {
          "indexed": false,
          "internalType": "uint256",
          "name": "value",
          "type": "uint256"
        }
      ],
      "name": "Approval",
      "type": "event"
    },
    {
      "anonymous": false,
      "inputs": [
        {
          "indexed": true,
          "internalType": "address",
          "name": "from",
          "type": "address"
        },
        {
          "indexed": true,
          "internalType": "address",
          "name": "to",
          "type": "address"
        },
        {
          "indexed": false,
          "internalType": "uint256",
          "name": "value",
          "type": "uint256"
        }
      ],
      "name": "Transfer",
      "type": "event"
    },
    {
      "inputs": [],
      "name": "DOMAIN_SEPARATOR",
      "outputs": [
        {
          "internalType": "bytes32",
          "name": "",
          "type": "bytes32"
        }
      ],
      "stateMutability": "view",
      "type": "function"
    },
    {
      "inputs": [],
      "name": "addressBook",
      "outputs": [
        {
          "internalType": "address",
          "name": "",
          "type": "address"
        }
      ],
      "stateMutability": "view",
      "type": "function"
    },
    {
      "inputs": [
        {
          "internalType": "address",
          "name": "owner",
          "type": "address"
        },
        {
          "internalType": "address",
          "name": "spender",
          "type": "address"
        }
      ],
      "name": "allowance",
      "outputs": [
        {
          "internalType": "uint256",
          "name": "",
          "type": "uint256"
        }
      ],
      "stateMutability": "view",
      "type": "function"
    },
    {
      "inputs": [
        {
          "internalType": "address",
          "name": "spender",
          "type": "address"
        },
        {
          "internalType": "uint256",
          "name": "amount",
          "type": "uint256"
        }
      ],
      "name": "approve",
      "outputs": [
        {
          "internalType": "bool",
          "name": "",
          "type": "bool"
        }
      ],
      "stateMutability": "nonpayable",
      "type": "function"
    },
    {
      "inputs": [
        {
          "internalType": "address",
          "name": "account",
          "type": "address"
        }
      ],
      "name": "balanceOf",
      "outputs": [
        {
          "internalType": "uint256",
          "name": "",
          "type": "uint256"
        }
      ],
      "stateMutability": "view",
      "type": "function"
    },
    {
      "inputs": [
        {
          "internalType": "address",
          "name": "account",
          "type": "address"
        },
        {
          "internalType": "uint256",
          "name": "amount",
          "type": "uint256"
        }
      ],
      "name": "burnOtoken",
      "outputs": [],
      "stateMutability": "nonpayable",
      "type": "function"
    },
    {
      "inputs": [],
      "name": "collateralAsset",
      "outputs": [
        {
          "internalType": "address",
          "name": "",
          "type": "address"
        }
      ],
      "stateMutability": "view",
      "type": "function"
    },
    {
      "inputs": [],
      "name": "controller",
      "outputs": [
        {
          "internalType": "address",
          "name": "",
          "type": "address"
        }
      ],
      "stateMutability": "view",
      "type": "function"
    },
    {
      "inputs": [],
      "name": "decimals",
      "outputs": [
        {
          "internalType": "uint8",
          "name": "",
          "type": "uint8"
        }
      ],
      "stateMutability": "view",
      "type": "function"
    },
    {
      "inputs": [
        {
          "internalType": "address",
          "name": "spender",
          "type": "address"
        },
        {
          "internalType": "uint256",
          "name": "subtractedValue",
          "type": "uint256"
        }
      ],
      "name": "decreaseAllowance",
      "outputs": [
        {
          "internalType": "bool",
          "name": "",
          "type": "bool"
        }
      ],
      "stateMutability": "nonpayable",
      "type": "function"
    },
    {
      "inputs": [],
      "name": "expiryTimestamp",
      "outputs": [
        {
          "internalType": "uint256",
          "name": "",
          "type": "uint256"
        }
      ],
      "stateMutability": "view",
      "type": "function"
    },
    {
      "inputs": [],
      "name": "getChainId",
      "outputs": [
        {
          "internalType": "uint256",
          "name": "chainId",
          "type": "uint256"
        }
      ],
      "stateMutability": "view",
      "type": "function"
    },
    {
      "inputs": [
        {
          "internalType": "address",
          "name": "spender",
          "type": "address"
        },
        {
          "internalType": "uint256",
          "name": "addedValue",
          "type": "uint256"
        }
      ],
      "name": "increaseAllowance",
      "outputs": [
        {
          "internalType": "bool",
          "name": "",
          "type": "bool"
        }
      ],
      "stateMutability": "nonpayable",
      "type": "function"
    },
    {
      "inputs": [
        {
          "internalType": "address",
          "name": "_addressBook",
          "type": "address"
        },
        {
          "internalType": "address",
          "name": "_underlyingAsset",
          "type": "address"
        },
        {
          "internalType": "address",
          "name": "_strikeAsset",
          "type": "address"
        },
        {
          "internalType": "address",
          "name": "_collateralAsset",
          "type": "address"
        },
        {
          "internalType": "uint256",
          "name": "_strikePrice",
          "type": "uint256"
        },
        {
          "internalType": "uint256",
          "name": "_expiryTimestamp",
          "type": "uint256"
        },
        {
          "internalType": "bool",
          "name": "_isPut",
          "type": "bool"
        }
      ],
      "name": "init",
      "outputs": [],
      "stateMutability": "nonpayable",
      "type": "function"
    },
    {
      "inputs": [],
      "name": "inited",
      "outputs": [
        {
          "internalType": "bool",
          "name": "",
          "type": "bool"
        }
      ],
      "stateMutability": "view",
      "type": "function"
    },
    {
      "inputs": [],
      "name": "isPut",
      "outputs": [
        {
          "internalType": "bool",
          "name": "",
          "type": "bool"
        }
      ],
      "stateMutability": "view",
      "type": "function"
    },
    {
      "inputs": [
        {
          "internalType": "address",
          "name": "_to",
          "type": "address"
        },
        {
          "internalType": "uint256",
          "name": "_amount",
          "type": "uint256"
        }
      ],
      "name": "mintOtoken",
      "outputs": [],
      "stateMutability": "nonpayable",
      "type": "function"
    },
    {
      "inputs": [],
      "name": "name",
      "outputs": [
        {
          "internalType": "string",
          "name": "",
          "type": "string"
        }
      ],
      "stateMutability": "view",
      "type": "function"
    },
    {
      "inputs": [
        {
          "internalType": "address",
          "name": "owner",
          "type": "address"
        }
      ],
      "name": "nonces",
      "outputs": [
        {
          "internalType": "uint256",
          "name": "",
          "type": "uint256"
        }
      ],
      "stateMutability": "view",
      "type": "function"
    },
    {
      "inputs": [
        {
          "internalType": "address",
          "name": "owner",
          "type": "address"
        },
        {
          "internalType": "address",
          "name": "spender",
          "type": "address"
        },
        {
          "internalType": "uint256",
          "name": "amount",
          "type": "uint256"
        },
        {
          "internalType": "uint256",
          "name": "deadline",
          "type": "uint256"
        },
        {
          "internalType": "uint8",
          "name": "v",
          "type": "uint8"
        },
        {
          "internalType": "bytes32",
          "name": "r",
          "type": "bytes32"
        },
        {
          "internalType": "bytes32",
          "name": "s",
          "type": "bytes32"
        }
      ],
      "name": "permit",
      "outputs": [],
      "stateMutability": "nonpayable",
      "type": "function"
    },
    {
      "inputs": [],
      "name": "strikeAsset",
      "outputs": [
        {
          "internalType": "address",
          "name": "",
          "type": "address"
        }
      ],
      "stateMutability": "view",
      "type": "function"
    },
    {
      "inputs": [],
      "name": "strikePrice",
      "outputs": [
        {
          "internalType": "uint256",
          "name": "",
          "type": "uint256"
        }
      ],
      "stateMutability": "view",
      "type": "function"
    },
    {
      "inputs": [],
      "name": "symbol",
      "outputs": [
        {
          "internalType": "string",
          "name": "",
          "type": "string"
        }
      ],
      "stateMutability": "view",
      "type": "function"
    },
    {
      "inputs": [],
      "name": "totalSupply",
      "outputs": [
        {
          "internalType": "uint256",
          "name": "",
          "type": "uint256"
        }
      ],
      "stateMutability": "view",
      "type": "function"
    },
    {
      "inputs": [
        {
          "internalType": "address",
          "name": "recipient",
          "type": "address"
        },
        {
          "internalType": "uint256",
          "name": "amount",
          "type": "uint256"
        }
      ],
      "name": "transfer",
      "outputs": [
        {
          "internalType": "bool",
          "name": "",
          "type": "bool"
        }
      ],
      "stateMutability": "nonpayable",
      "type": "function"
    },
    {
      "inputs": [
        {
          "internalType": "address",
          "name": "sender",
          "type": "address"
        },
        {
          "internalType": "address",
          "name": "recipient",
          "type": "address"
        },
        {
          "internalType": "uint256",
          "name": "amount",
          "type": "uint256"
        }
      ],
      "name": "transferFrom",
      "outputs": [
        {
          "internalType": "bool",
          "name": "",
          "type": "bool"
        }
      ],
      "stateMutability": "nonpayable",
      "type": "function"
    },
    {
      "inputs": [],
      "name": "underlyingAsset",
      "outputs": [
        {
          "internalType": "address",
          "name": "",
          "type": "address"
        }
      ],
      "stateMutability": "view",
      "type": "function"
    }
  ],
  "bytecode": "0x6080604052610105805461ff001916905534801561001c57600080fd5b50611b8f8061002c6000396000f3fe608060405234801561001057600080fd5b50600436106101a95760003560e01c80637158da7c116100f9578063c52987cf11610097578063f3c274a611610071578063f3c274a6146104e6578063f5887cdd146104ee578063f630df34146104f6578063f77c47911461054a576101a9565b8063c52987cf1461045f578063d505accf14610467578063dd62ed3e146104b8576101a9565b8063a457c2d7116100d3578063a457c2d7146103f7578063a9059cbb14610423578063aabaecd61461044f578063ade6e2aa14610457576101a9565b80637158da7c146103c15780637ecebe00146103c957806395d89b41146103ef576101a9565b80633408e4701161016657806343c885ba1161014057806343c885ba1461033957806351b0a4101461034157806356d878f71461036f57806370a082311461039b576101a9565b80633408e470146102fd5780633644e51514610305578063395093511461030d576101a9565b806306fdde03146101ae578063095ea7b31461022b57806317d69bc81461026b57806318160ddd1461028f57806323b872dd146102a9578063313ce567146102df575b600080fd5b6101b6610552565b6040805160208082528351818301528351919283929083019185019080838360005b838110156101f05781810151838201526020016101d8565b50505050905090810190601f16801561021d5780820380516001836020036101000a031916815260200191505b509250505060405180910390f35b6102576004803603604081101561024157600080fd5b506001600160a01b0381351690602001356105e9565b604080519115158252519081900360200190f35b610273610606565b604080516001600160a01b039092168252519081900360200190f35b610297610616565b60408051918252519081900360200190f35b610257600480360360608110156102bf57600080fd5b506001600160a01b0381358116916020810135909116906040013561061c565b6102e76106a9565b6040805160ff9092168252519081900360200190f35b6102976106b2565b6102976106b6565b6102576004803603604081101561032357600080fd5b506001600160a01b0381351690602001356106c5565b610257610719565b61036d6004803603604081101561035757600080fd5b506001600160a01b038135169060200135610728565b005b61036d6004803603604081101561038557600080fd5b506001600160a01b038135169060200135610736565b610297600480360360208110156103b157600080fd5b50356001600160a01b0316610740565b61027361075b565b610297600480360360208110156103df57600080fd5b50356001600160a01b031661076b565b6101b6610792565b6102576004803603604081101561040d57600080fd5b506001600160a01b0381351690602001356107f3565b6102576004803603604081101561043957600080fd5b506001600160a01b038135169060200135610861565b610273610875565b610297610885565b61029761088c565b61036d600480360360e081101561047d57600080fd5b506001600160a01b03813581169160208101359091169060408101359060608101359060ff6080820135169060a08101359060c00135610893565b610297600480360360408110156104ce57600080fd5b506001600160a01b0381358116916020013516610a2b565b610257610a56565b610273610a60565b61036d600480360360e081101561050c57600080fd5b506001600160a01b0381358116916020810135821691604082013581169160608101359091169060808101359060a08101359060c001351515610a6f565b610273610c6d565b60688054604080516020601f60026000196101006001881615020190951694909404938401819004810282018101909252828152606093909290918301828280156105de5780601f106105b3576101008083540402835291602001916105de565b820191906000526020600020905b8154815290600101906020018083116105c157829003601f168201915b505050505090505b90565b60006105fd6105f6610c7c565b8484610c80565b50600192915050565b610101546001600160a01b031681565b60675490565b6000610629848484610d6c565b61069f84610635610c7c565b61069a85604051806060016040528060288152602001611a75602891396001600160a01b038a16600090815260666020526040812090610673610c7c565b6001600160a01b03168152602081019190915260400160002054919063ffffffff610ed516565b610c80565b5060019392505050565b606a5460ff1690565b4690565b60006106c0610f6c565b905090565b60006105fd6106d2610c7c565b8461069a85606660006106e3610c7c565b6001600160a01b03908116825260208083019390935260409182016000908120918c16815292529020549063ffffffff610f9f16565b61010554610100900460ff1681565b6107328282611000565b5050565b61073282826110fe565b6001600160a01b031660009081526065602052604090205490565b610100546001600160a01b031681565b6001600160a01b038116600090815260cb6020526040812061078c90611206565b92915050565b60698054604080516020601f60026000196101006001881615020190951694909404938401819004810282018101909252828152606093909290918301828280156105de5780601f106105b3576101008083540402835291602001916105de565b60006105fd610800610c7c565b8461069a85604051806060016040528060258152602001611b35602591396066600061082a610c7c565b6001600160a01b03908116825260208083019390935260409182016000908120918d1681529252902054919063ffffffff610ed516565b60006105fd61086e610c7c565b8484610d6c565b610102546001600160a01b031681565b6101045481565b6101035481565b834211156108e8576040805162461bcd60e51b815260206004820152601d60248201527f45524332305065726d69743a206578706972656420646561646c696e65000000604482015290519081900360640190fd5b600060cc5488888861091d60cb60008e6001600160a01b03166001600160a01b03168152602001908152602001600020611206565b604080516020808201979097526001600160a01b0395861681830152939094166060840152608083019190915260a082015260c08082018990528251808303909101815260e090910190915280519101209050600061097b8261120a565b9050600061098b82878787611256565b9050896001600160a01b0316816001600160a01b0316146109f3576040805162461bcd60e51b815260206004820152601e60248201527f45524332305065726d69743a20696e76616c6964207369676e61747572650000604482015290519081900360640190fd5b6001600160a01b038a16600090815260cb60205260409020610a14906113d0565b610a1f8a8a8a610c80565b50505050505050505050565b6001600160a01b03918216600090815260666020908152604080832093909416825291909152205490565b6101055460ff1681565b60fe546001600160a01b031681565b600054610100900460ff1680610a885750610a886113d9565b80610a96575060005460ff16155b610ad15760405162461bcd60e51b815260040180806020018281038252602e815260200180611a9d602e913960400191505060405180910390fd5b600054610100900460ff16158015610afc576000805460ff1961ff0019909116610100171660011790555b610105805461ff00191661010017905560408051633018205f60e01b815290516001600160a01b038a1691633018205f916004808301926020929190829003018186803b158015610b4c57600080fd5b505afa158015610b60573d6000803e3d6000fd5b505050506040513d6020811015610b7657600080fd5b505160ff80546001600160a01b03199081166001600160a01b0393841617909155610100805482168a8416179055610101805482168984161790556101028054909116918716919091179055610103849055610104839055610105805460ff1916831515179055604080518082018252601c81527f455448555344432f313539373531313935352f323030502f55534443000000006020808301919091528251808401909352600983526806f45544855534443560bc1b9083015290610c3c82826113df565b610c45826114b8565b610c4f600861158e565b50508015610c63576000805461ff00191690555b5050505050505050565b60ff546001600160a01b031681565b3390565b6001600160a01b038316610cc55760405162461bcd60e51b8152600401808060200182810382526024815260200180611b116024913960400191505060405180910390fd5b6001600160a01b038216610d0a5760405162461bcd60e51b81526004018080602001828103825260228152602001806119456022913960400191505060405180910390fd5b6001600160a01b03808416600081815260666020908152604080832094871680845294825291829020859055815185815291517f8c5be1e5ebec7d5bd14f71427d1e84f3dd0314c0f7b2291e5b200ac8c7c3b9259281900390910190a3505050565b6001600160a01b038316610db15760405162461bcd60e51b8152600401808060200182810382526025815260200180611aec6025913960400191505060405180910390fd5b6001600160a01b038216610df65760405162461bcd60e51b81526004018080602001828103825260238152602001806119006023913960400191505060405180910390fd5b610e018383836114b3565b610e4481604051806060016040528060268152602001611967602691396001600160a01b038616600090815260656020526040902054919063ffffffff610ed516565b6001600160a01b038085166000908152606560205260408082209390935590841681522054610e79908263ffffffff610f9f16565b6001600160a01b0380841660008181526065602090815260409182902094909455805185815290519193928716927fddf252ad1be2c89b69c2b068fc378daa952ba7f163c4a11628f55a4df523b3ef92918290030190a3505050565b60008184841115610f645760405162461bcd60e51b81526004018080602001828103825283818151815260200191508051906020019080838360005b83811015610f29578181015183820152602001610f11565b50505050905090810190601f168015610f565780820380516001836020036101000a031916815260200191505b509250505060405180910390fd5b505050900390565b60006106c06040518080611a236052913960520190506040518091039020610f926115a4565b610f9a6115aa565b6115b0565b600082820183811015610ff9576040805162461bcd60e51b815260206004820152601b60248201527f536166654d6174683a206164646974696f6e206f766572666c6f770000000000604482015290519081900360640190fd5b9392505050565b6001600160a01b03821661105b576040805162461bcd60e51b815260206004820152601f60248201527f45524332303a206d696e7420746f20746865207a65726f206164647265737300604482015290519081900360640190fd5b611067600083836114b3565b60675461107a908263ffffffff610f9f16565b6067556001600160a01b0382166000908152606560205260409020546110a6908263ffffffff610f9f16565b6001600160a01b03831660008181526065602090815260408083209490945583518581529351929391927fddf252ad1be2c89b69c2b068fc378daa952ba7f163c4a11628f55a4df523b3ef9281900390910190a35050565b6001600160a01b0382166111435760405162461bcd60e51b8152600401808060200182810382526021815260200180611acb6021913960400191505060405180910390fd5b61114f826000836114b3565b61119281604051806060016040528060228152602001611923602291396001600160a01b038516600090815260656020526040902054919063ffffffff610ed516565b6001600160a01b0383166000908152606560205260409020556067546111be908263ffffffff61160616565b6067556040805182815290516000916001600160a01b038516917fddf252ad1be2c89b69c2b068fc378daa952ba7f163c4a11628f55a4df523b3ef9181900360200190a35050565b5490565b6000611214610f6c565b82604051602001808061190160f01b81525060020183815260200182815260200192505050604051602081830303815290604052805190602001209050919050565b60007f7fffffffffffffffffffffffffffffff5d576e7357a4501ddfe92f46681b20a08211156112b75760405162461bcd60e51b815260040180806020018281038252602281526020018061198d6022913960400191505060405180910390fd5b8360ff16601b14806112cc57508360ff16601c145b6113075760405162461bcd60e51b8152600401808060200182810382526022815260200180611a016022913960400191505060405180910390fd5b604080516000808252602080830180855289905260ff88168385015260608301879052608083018690529251909260019260a080820193601f1981019281900390910190855afa15801561135f573d6000803e3d6000fd5b5050604051601f1901519150506001600160a01b0381166113c7576040805162461bcd60e51b815260206004820152601860248201527f45434453413a20696e76616c6964207369676e61747572650000000000000000604482015290519081900360640190fd5b95945050505050565b80546001019055565b303b1590565b600054610100900460ff16806113f857506113f86113d9565b80611406575060005460ff16155b6114415760405162461bcd60e51b815260040180806020018281038252602e815260200180611a9d602e913960400191505060405180910390fd5b600054610100900460ff1615801561146c576000805460ff1961ff0019909116610100171660011790555b825161147f906068906020860190611867565b508151611493906069906020850190611867565b50606a805460ff1916601217905580156114b3576000805461ff00191690555b505050565b600054610100900460ff16806114d157506114d16113d9565b806114df575060005460ff16155b61151a5760405162461bcd60e51b815260040180806020018281038252602e815260200180611a9d602e913960400191505060405180910390fd5b600054610100900460ff16158015611545576000805460ff1961ff0019909116610100171660011790555b61154d611648565b61157082604051806040016040528060018152602001603160f81b8152506116ea565b611579826117aa565b8015610732576000805461ff00191690555050565b606a805460ff191660ff92909216919091179055565b60975490565b60985490565b60008383836115bd6106b2565b6040805160208082019690965280820194909452606084019290925260808301523060a0808401919091528151808403909101815260c090920190528051910120949350505050565b6000610ff983836040518060400160405280601e81526020017f536166654d6174683a207375627472616374696f6e206f766572666c6f770000815250610ed5565b600054610100900460ff168061166157506116616113d9565b8061166f575060005460ff16155b6116aa5760405162461bcd60e51b815260040180806020018281038252602e815260200180611a9d602e913960400191505060405180910390fd5b600054610100900460ff161580156116d5576000805460ff1961ff0019909116610100171660011790555b80156116e7576000805461ff00191690555b50565b600054610100900460ff168061170357506117036113d9565b80611711575060005460ff16155b61174c5760405162461bcd60e51b815260040180806020018281038252602e815260200180611a9d602e913960400191505060405180910390fd5b600054610100900460ff16158015611777576000805460ff1961ff0019909116610100171660011790555b825160208085019190912083519184019190912060979190915560985580156114b3576000805461ff0019169055505050565b600054610100900460ff16806117c357506117c36113d9565b806117d1575060005460ff16155b61180c5760405162461bcd60e51b815260040180806020018281038252602e815260200180611a9d602e913960400191505060405180910390fd5b600054610100900460ff16158015611837576000805460ff1961ff0019909116610100171660011790555b6040518060526119af823960405190819003605201902060cc55508015610732576000805461ff00191690555050565b828054600181600116156101000203166002900490600052602060002090601f016020900481019282601f106118a857805160ff19168380011785556118d5565b828001600101855582156118d5579182015b828111156118d55782518255916020019190600101906118ba565b506118e19291506118e5565b5090565b6105e691905b808211156118e157600081556001016118eb56fe45524332303a207472616e7366657220746f20746865207a65726f206164647265737345524332303a206275726e20616d6f756e7420657863656564732062616c616e636545524332303a20617070726f766520746f20746865207a65726f206164647265737345524332303a207472616e7366657220616d6f756e7420657863656564732062616c616e636545434453413a20696e76616c6964207369676e6174757265202773272076616c75655065726d69742861646472657373206f776e65722c61646472657373207370656e6465722c75696e743235362076616c75652c75696e74323536206e6f6e63652c75696e7432353620646561646c696e652945434453413a20696e76616c6964207369676e6174757265202776272076616c7565454950373132446f6d61696e28737472696e67206e616d652c737472696e672076657273696f6e2c75696e7432353620636861696e49642c6164647265737320766572696679696e67436f6e74726163742945524332303a207472616e7366657220616d6f756e74206578636565647320616c6c6f77616e6365436f6e747261637420696e7374616e63652068617320616c7265616479206265656e20696e697469616c697a656445524332303a206275726e2066726f6d20746865207a65726f206164647265737345524332303a207472616e736665722066726f6d20746865207a65726f206164647265737345524332303a20617070726f76652066726f6d20746865207a65726f206164647265737345524332303a2064656372656173656420616c6c6f77616e63652062656c6f77207a65726fa26469706673582212205d7f122fd230c95c2f4c99f5ab82f0c3848b688107481fb6baf5032386ae0e1e64736f6c634300060a0033",
  "linkReferences": {},
  "deployedLinkReferences": {}
}