{
  "_format": "hh-sol-artifact-1",
  "contractName": "MockWhitelistModule",
  "sourceName": "contracts/mocks/MockWhitelistModule.sol",
  "abi": [
    {
      "inputs": [
        {
          "internalType": "address",
          "name": "",
          "type": "address"
        }
      ],
      "name": "_isWhitelistedOtoken",
      "outputs": [
        {
          "internalType": "bool",
          "name": "",
          "type": "bool"
        }
      ],
      "stateMutability": "view",
      "type": "function"
    },
    {
      "inputs": [
        {
          "internalType": "address",
          "name": "_callee",
          "type": "address"
        }
      ],
      "name": "blacklistCallee",
      "outputs": [],
      "stateMutability": "nonpayable",
      "type": "function"
    },
    {
      "inputs": [
        {
          "internalType": "address",
          "name": "_callee",
          "type": "address"
        }
      ],
      "name": "isWhitelistedCallee",
      "outputs": [
        {
          "internalType": "bool",
          "name": "",
          "type": "bool"
        }
      ],
      "stateMutability": "view",
      "type": "function"
    },
    {
      "inputs": [
        {
          "internalType": "address",
          "name": "_collateral",
          "type": "address"
        }
      ],
      "name": "isWhitelistedCollateral",
      "outputs": [
        {
          "internalType": "bool",
          "name": "",
          "type": "bool"
        }
      ],
      "stateMutability": "view",
      "type": "function"
    },
    {
      "inputs": [
        {
          "internalType": "address",
          "name": "_otoken",
          "type": "address"
        }
      ],
      "name": "isWhitelistedOtoken",
      "outputs": [
        {
          "internalType": "bool",
          "name": "",
          "type": "bool"
        }
      ],
      "stateMutability": "view",
      "type": "function"
    },
    {
      "inputs": [
        {
          "internalType": "address",
          "name": "_underlying",
          "type": "address"
        },
        {
          "internalType": "address",
          "name": "_strike",
          "type": "address"
        },
        {
          "internalType": "address",
          "name": "_collateral",
          "type": "address"
        },
        {
          "internalType": "bool",
          "name": "_isPut",
          "type": "bool"
        }
      ],
      "name": "isWhitelistedProduct",
      "outputs": [
        {
          "internalType": "bool",
          "name": "isValid",
          "type": "bool"
        }
      ],
      "stateMutability": "view",
      "type": "function"
    },
    {
      "inputs": [
        {
          "internalType": "address",
          "name": "_callee",
          "type": "address"
        }
      ],
      "name": "whitelistCallee",
      "outputs": [],
      "stateMutability": "nonpayable",
      "type": "function"
    },
    {
      "inputs": [
        {
          "internalType": "address",
          "name": "_collateral",
          "type": "address"
        }
      ],
      "name": "whitelistCollateral",
      "outputs": [],
      "stateMutability": "nonpayable",
      "type": "function"
    },
    {
      "inputs": [
        {
          "internalType": "address",
          "name": "_otoken",
          "type": "address"
        }
      ],
      "name": "whitelistOtoken",
      "outputs": [],
      "stateMutability": "nonpayable",
      "type": "function"
    },
    {
      "inputs": [
        {
          "internalType": "address",
          "name": "_underlying",
          "type": "address"
        },
        {
          "internalType": "address",
          "name": "_strike",
          "type": "address"
        },
        {
          "internalType": "address",
          "name": "_collateral",
          "type": "address"
        },
        {
          "internalType": "bool",
          "name": "_isPut",
          "type": "bool"
        }
      ],
      "name": "whitelistProduct",
      "outputs": [
        {
          "internalType": "bytes32",
          "name": "id",
          "type": "bytes32"
        }
      ],
      "stateMutability": "nonpayable",
      "type": "function"
    }
  ],
  "bytecode": "0x608060405234801561001057600080fd5b50610511806100206000396000f3fe608060405234801561001057600080fd5b506004361061009e5760003560e01c8063a2ae545a11610066578063a2ae545a146101b9578063a34626c4146101df578063ebd31e8e14610205578063ec7127b61461022b578063f9839d89146102515761009e565b806311946b98146100a357806327219c75146100dd578063401a83cf14610103578063708a03931461014157806382d90ebf14610169575b600080fd5b6100c9600480360360208110156100b957600080fd5b50356001600160a01b0316610277565b604080519115158252519081900360200190f35b6100c9600480360360208110156100f357600080fd5b50356001600160a01b0316610295565b6100c96004803603608081101561011957600080fd5b506001600160a01b0381358116916020810135821691604082013516906060013515156102aa565b6101676004803603602081101561015757600080fd5b50356001600160a01b0316610318565b005b6101a76004803603608081101561017f57600080fd5b506001600160a01b03813581169160208101358216916040820135169060600135151561033c565b60408051918252519081900360200190f35b6100c9600480360360208110156101cf57600080fd5b50356001600160a01b03166103b5565b610167600480360360208110156101f557600080fd5b50356001600160a01b03166103d3565b6101676004803603602081101561021b57600080fd5b50356001600160a01b031661044f565b6101676004803603602081101561024157600080fd5b50356001600160a01b0316610470565b6100c96004803603602081101561026757600080fd5b50356001600160a01b0316610494565b6001600160a01b031660009081526020819052604090205460ff1690565b60006020819052908152604090205460ff1681565b604080516bffffffffffffffffffffffff19606096871b811660208084019190915295871b811660348301529390951b9092166048850152151560f81b605c8401528051603d818503018152605d909301815282519282019290922060009081526001909152205460ff1690565b6001600160a01b03166000908152600360205260409020805460ff19166001179055565b604080516bffffffffffffffffffffffff19606096871b811660208084019190915295871b811660348301529390951b9092166048850152151560f81b605c8401528051603d818503018152605d9093018152825192820192909220600081815260019283905292909220805460ff1916909117905590565b6001600160a01b031660009081526003602052604090205460ff1690565b6001600160a01b03811660009081526002602052604090205460ff161561042b5760405162461bcd60e51b81526004018080602001828103825260298152602001806104b36029913960400191505060405180910390fd5b6001600160a01b03166000908152600260205260409020805460ff19166001179055565b6001600160a01b03166000908152600360205260409020805460ff19169055565b6001600160a01b03166000908152602081905260409020805460ff19166001179055565b6001600160a01b031660009081526002602052604090205460ff169056fe57686974656c6973743a20436f6c6c61746572616c20616c72656164792077686974656c6973746564a264697066735822122081cc5672ed9ba1d32ee132b7a970a64a9f32c450b1590959fd83ff71736ed63664736f6c634300060a0033",
  "linkReferences": {},
  "deployedLinkReferences": {}
}