{
  "_format": "hh-sol-artifact-1",
  "contractName": "MockOtoken",
  "sourceName": "contracts/mocks/MockOtoken.sol",
  "abi": [
    {
      "anonymous": false,
      "inputs": [
        {
          "indexed": true,
          "internalType": "address",
          "name": "owner",
          "type": "address"
        },
        {
          "indexed": true,
          "internalType": "address",
          "name": "spender",
          "type": "address"
        },
        {
          "indexed": false,
          "internalType": "uint256",
          "name": "value",
          "type": "uint256"
        }
      ],
      "name": "Approval",
      "type": "event"
    },
    {
      "anonymous": false,
      "inputs": [
        {
          "indexed": true,
          "internalType": "address",
          "name": "from",
          "type": "address"
        },
        {
          "indexed": true,
          "internalType": "address",
          "name": "to",
          "type": "address"
        },
        {
          "indexed": false,
          "internalType": "uint256",
          "name": "value",
          "type": "uint256"
        }
      ],
      "name": "Transfer",
      "type": "event"
    },
    {
      "inputs": [],
      "name": "DOMAIN_SEPARATOR",
      "outputs": [
        {
          "internalType": "bytes32",
          "name": "",
          "type": "bytes32"
        }
      ],
      "stateMutability": "view",
      "type": "function"
    },
    {
      "inputs": [],
      "name": "addressBook",
      "outputs": [
        {
          "internalType": "address",
          "name": "",
          "type": "address"
        }
      ],
      "stateMutability": "view",
      "type": "function"
    },
    {
      "inputs": [
        {
          "internalType": "address",
          "name": "owner",
          "type": "address"
        },
        {
          "internalType": "address",
          "name": "spender",
          "type": "address"
        }
      ],
      "name": "allowance",
      "outputs": [
        {
          "internalType": "uint256",
          "name": "",
          "type": "uint256"
        }
      ],
      "stateMutability": "view",
      "type": "function"
    },
    {
      "inputs": [
        {
          "internalType": "address",
          "name": "spender",
          "type": "address"
        },
        {
          "internalType": "uint256",
          "name": "amount",
          "type": "uint256"
        }
      ],
      "name": "approve",
      "outputs": [
        {
          "internalType": "bool",
          "name": "",
          "type": "bool"
        }
      ],
      "stateMutability": "nonpayable",
      "type": "function"
    },
    {
      "inputs": [
        {
          "internalType": "address",
          "name": "account",
          "type": "address"
        }
      ],
      "name": "balanceOf",
      "outputs": [
        {
          "internalType": "uint256",
          "name": "",
          "type": "uint256"
        }
      ],
      "stateMutability": "view",
      "type": "function"
    },
    {
      "inputs": [
        {
          "internalType": "address",
          "name": "account",
          "type": "address"
        },
        {
          "internalType": "uint256",
          "name": "amount",
          "type": "uint256"
        }
      ],
      "name": "burnOtoken",
      "outputs": [],
      "stateMutability": "nonpayable",
      "type": "function"
    },
    {
      "inputs": [],
      "name": "collateralAsset",
      "outputs": [
        {
          "internalType": "address",
          "name": "",
          "type": "address"
        }
      ],
      "stateMutability": "view",
      "type": "function"
    },
    {
      "inputs": [],
      "name": "controller",
      "outputs": [
        {
          "internalType": "address",
          "name": "",
          "type": "address"
        }
      ],
      "stateMutability": "view",
      "type": "function"
    },
    {
      "inputs": [],
      "name": "decimals",
      "outputs": [
        {
          "internalType": "uint8",
          "name": "",
          "type": "uint8"
        }
      ],
      "stateMutability": "view",
      "type": "function"
    },
    {
      "inputs": [
        {
          "internalType": "address",
          "name": "spender",
          "type": "address"
        },
        {
          "internalType": "uint256",
          "name": "subtractedValue",
          "type": "uint256"
        }
      ],
      "name": "decreaseAllowance",
      "outputs": [
        {
          "internalType": "bool",
          "name": "",
          "type": "bool"
        }
      ],
      "stateMutability": "nonpayable",
      "type": "function"
    },
    {
      "inputs": [],
      "name": "expiryTimestamp",
      "outputs": [
        {
          "internalType": "uint256",
          "name": "",
          "type": "uint256"
        }
      ],
      "stateMutability": "view",
      "type": "function"
    },
    {
      "inputs": [],
      "name": "getChainId",
      "outputs": [
        {
          "internalType": "uint256",
          "name": "chainId",
          "type": "uint256"
        }
      ],
      "stateMutability": "view",
      "type": "function"
    },
    {
      "inputs": [],
      "name": "getOtokenDetails",
      "outputs": [
        {
          "internalType": "address",
          "name": "",
          "type": "address"
        },
        {
          "internalType": "address",
          "name": "",
          "type": "address"
        },
        {
          "internalType": "address",
          "name": "",
          "type": "address"
        },
        {
          "internalType": "uint256",
          "name": "",
          "type": "uint256"
        },
        {
          "internalType": "uint256",
          "name": "",
          "type": "uint256"
        },
        {
          "internalType": "bool",
          "name": "",
          "type": "bool"
        }
      ],
      "stateMutability": "view",
      "type": "function"
    },
    {
      "inputs": [
        {
          "internalType": "address",
          "name": "spender",
          "type": "address"
        },
        {
          "internalType": "uint256",
          "name": "addedValue",
          "type": "uint256"
        }
      ],
      "name": "increaseAllowance",
      "outputs": [
        {
          "internalType": "bool",
          "name": "",
          "type": "bool"
        }
      ],
      "stateMutability": "nonpayable",
      "type": "function"
    },
    {
      "inputs": [
        {
          "internalType": "address",
          "name": "_addressBook",
          "type": "address"
        },
        {
          "internalType": "address",
          "name": "_underlyingAsset",
          "type": "address"
        },
        {
          "internalType": "address",
          "name": "_strikeAsset",
          "type": "address"
        },
        {
          "internalType": "address",
          "name": "_collateralAsset",
          "type": "address"
        },
        {
          "internalType": "uint256",
          "name": "_strikePrice",
          "type": "uint256"
        },
        {
          "internalType": "uint256",
          "name": "_expiryTimestamp",
          "type": "uint256"
        },
        {
          "internalType": "bool",
          "name": "_isPut",
          "type": "bool"
        }
      ],
      "name": "init",
      "outputs": [],
      "stateMutability": "nonpayable",
      "type": "function"
    },
    {
      "inputs": [],
      "name": "inited",
      "outputs": [
        {
          "internalType": "bool",
          "name": "",
          "type": "bool"
        }
      ],
      "stateMutability": "view",
      "type": "function"
    },
    {
      "inputs": [],
      "name": "isPut",
      "outputs": [
        {
          "internalType": "bool",
          "name": "",
          "type": "bool"
        }
      ],
      "stateMutability": "view",
      "type": "function"
    },
    {
      "inputs": [
        {
          "internalType": "address",
          "name": "_to",
          "type": "address"
        },
        {
          "internalType": "uint256",
          "name": "_amount",
          "type": "uint256"
        }
      ],
      "name": "mintOtoken",
      "outputs": [],
      "stateMutability": "nonpayable",
      "type": "function"
    },
    {
      "inputs": [],
      "name": "name",
      "outputs": [
        {
          "internalType": "string",
          "name": "",
          "type": "string"
        }
      ],
      "stateMutability": "view",
      "type": "function"
    },
    {
      "inputs": [
        {
          "internalType": "address",
          "name": "owner",
          "type": "address"
        }
      ],
      "name": "nonces",
      "outputs": [
        {
          "internalType": "uint256",
          "name": "",
          "type": "uint256"
        }
      ],
      "stateMutability": "view",
      "type": "function"
    },
    {
      "inputs": [
        {
          "internalType": "address",
          "name": "owner",
          "type": "address"
        },
        {
          "internalType": "address",
          "name": "spender",
          "type": "address"
        },
        {
          "internalType": "uint256",
          "name": "amount",
          "type": "uint256"
        },
        {
          "internalType": "uint256",
          "name": "deadline",
          "type": "uint256"
        },
        {
          "internalType": "uint8",
          "name": "v",
          "type": "uint8"
        },
        {
          "internalType": "bytes32",
          "name": "r",
          "type": "bytes32"
        },
        {
          "internalType": "bytes32",
          "name": "s",
          "type": "bytes32"
        }
      ],
      "name": "permit",
      "outputs": [],
      "stateMutability": "nonpayable",
      "type": "function"
    },
    {
      "inputs": [],
      "name": "strikeAsset",
      "outputs": [
        {
          "internalType": "address",
          "name": "",
          "type": "address"
        }
      ],
      "stateMutability": "view",
      "type": "function"
    },
    {
      "inputs": [],
      "name": "strikePrice",
      "outputs": [
        {
          "internalType": "uint256",
          "name": "",
          "type": "uint256"
        }
      ],
      "stateMutability": "view",
      "type": "function"
    },
    {
      "inputs": [],
      "name": "symbol",
      "outputs": [
        {
          "internalType": "string",
          "name": "",
          "type": "string"
        }
      ],
      "stateMutability": "view",
      "type": "function"
    },
    {
      "inputs": [],
      "name": "totalSupply",
      "outputs": [
        {
          "internalType": "uint256",
          "name": "",
          "type": "uint256"
        }
      ],
      "stateMutability": "view",
      "type": "function"
    },
    {
      "inputs": [
        {
          "internalType": "address",
          "name": "recipient",
          "type": "address"
        },
        {
          "internalType": "uint256",
          "name": "amount",
          "type": "uint256"
        }
      ],
      "name": "transfer",
      "outputs": [
        {
          "internalType": "bool",
          "name": "",
          "type": "bool"
        }
      ],
      "stateMutability": "nonpayable",
      "type": "function"
    },
    {
      "inputs": [
        {
          "internalType": "address",
          "name": "sender",
          "type": "address"
        },
        {
          "internalType": "address",
          "name": "recipient",
          "type": "address"
        },
        {
          "internalType": "uint256",
          "name": "amount",
          "type": "uint256"
        }
      ],
      "name": "transferFrom",
      "outputs": [
        {
          "internalType": "bool",
          "name": "",
          "type": "bool"
        }
      ],
      "stateMutability": "nonpayable",
      "type": "function"
    },
    {
      "inputs": [],
      "name": "underlyingAsset",
      "outputs": [
        {
          "internalType": "address",
          "name": "",
          "type": "address"
        }
      ],
      "stateMutability": "view",
      "type": "function"
    }
  ],
  "bytecode": "0x6080604052610105805461ff001916905534801561001c57600080fd5b50611c2c8061002c6000396000f3fe608060405234801561001057600080fd5b50600436106101c45760003560e01c80637ecebe00116100f9578063c52987cf11610097578063f3c274a611610071578063f3c274a61461054b578063f5887cdd14610553578063f630df341461055b578063f77c4791146105af576101c4565b8063c52987cf146104c4578063d505accf146104cc578063dd62ed3e1461051d576101c4565b8063a9059cbb116100d3578063a9059cbb1461043e578063aabaecd61461046a578063ade6e2aa14610472578063af0968fc1461047a576101c4565b80637ecebe00146103e457806395d89b411461040a578063a457c2d714610412576101c4565b80633644e5151161016657806351b0a4101161014057806351b0a4101461035c57806356d878f71461038a57806370a08231146103b65780637158da7c146103dc576101c4565b80633644e51514610320578063395093511461032857806343c885ba14610354576101c4565b806318160ddd116101a257806318160ddd146102aa57806323b872dd146102c4578063313ce567146102fa5780633408e47014610318576101c4565b806306fdde03146101c9578063095ea7b31461024657806317d69bc814610286575b600080fd5b6101d16105b7565b6040805160208082528351818301528351919283929083019185019080838360005b8381101561020b5781810151838201526020016101f3565b50505050905090810190601f1680156102385780820380516001836020036101000a031916815260200191505b509250505060405180910390f35b6102726004803603604081101561025c57600080fd5b506001600160a01b03813516906020013561064e565b604080519115158252519081900360200190f35b61028e61066b565b604080516001600160a01b039092168252519081900360200190f35b6102b261067b565b60408051918252519081900360200190f35b610272600480360360608110156102da57600080fd5b506001600160a01b03813581169160208101359091169060400135610681565b61030261070e565b6040805160ff9092168252519081900360200190f35b6102b2610717565b6102b261071b565b6102726004803603604081101561033e57600080fd5b506001600160a01b03813516906020013561072a565b61027261077e565b6103886004803603604081101561037257600080fd5b506001600160a01b03813516906020013561078d565b005b610388600480360360408110156103a057600080fd5b506001600160a01b03813516906020013561079b565b6102b2600480360360208110156103cc57600080fd5b50356001600160a01b03166107a5565b61028e6107c0565b6102b2600480360360208110156103fa57600080fd5b50356001600160a01b03166107d0565b6101d16107f7565b6102726004803603604081101561042857600080fd5b506001600160a01b038135169060200135610858565b6102726004803603604081101561045457600080fd5b506001600160a01b0381351690602001356108c6565b61028e6108da565b6102b26108ea565b6104826108f1565b604080516001600160a01b039788168152958716602087015293909516848401526060840191909152608083015291151560a082015290519081900360c00190f35b6102b2610929565b610388600480360360e08110156104e257600080fd5b506001600160a01b03813581169160208101359091169060408101359060608101359060ff6080820135169060a08101359060c00135610930565b6102b26004803603604081101561053357600080fd5b506001600160a01b0381358116916020013516610ac8565b610272610af3565b61028e610afd565b610388600480360360e081101561057157600080fd5b506001600160a01b0381358116916020810135821691604082013581169160608101359091169060808101359060a08101359060c001351515610b0c565b61028e610d0a565b60688054604080516020601f60026000196101006001881615020190951694909404938401819004810282018101909252828152606093909290918301828280156106435780601f1061061857610100808354040283529160200191610643565b820191906000526020600020905b81548152906001019060200180831161062657829003601f168201915b505050505090505b90565b600061066261065b610d19565b8484610d1d565b50600192915050565b610101546001600160a01b031681565b60675490565b600061068e848484610e09565b6107048461069a610d19565b6106ff85604051806060016040528060288152602001611b12602891396001600160a01b038a166000908152606660205260408120906106d8610d19565b6001600160a01b03168152602081019190915260400160002054919063ffffffff610f7216565b610d1d565b5060019392505050565b606a5460ff1690565b4690565b6000610725611009565b905090565b6000610662610737610d19565b846106ff8560666000610748610d19565b6001600160a01b03908116825260208083019390935260409182016000908120918c16815292529020549063ffffffff61103c16565b61010554610100900460ff1681565b610797828261109d565b5050565b610797828261119b565b6001600160a01b031660009081526065602052604090205490565b610100546001600160a01b031681565b6001600160a01b038116600090815260cb602052604081206107f1906112a3565b92915050565b60698054604080516020601f60026000196101006001881615020190951694909404938401819004810282018101909252828152606093909290918301828280156106435780601f1061061857610100808354040283529160200191610643565b6000610662610865610d19565b846106ff85604051806060016040528060258152602001611bd2602591396066600061088f610d19565b6001600160a01b03908116825260208083019390935260409182016000908120918d1681529252902054919063ffffffff610f7216565b60006106626108d3610d19565b8484610e09565b610102546001600160a01b031681565b6101045481565b6101025461010054610101546101035461010454610105546001600160a01b039586169594851694939093169260ff16909192939495565b6101035481565b83421115610985576040805162461bcd60e51b815260206004820152601d60248201527f45524332305065726d69743a206578706972656420646561646c696e65000000604482015290519081900360640190fd5b600060cc548888886109ba60cb60008e6001600160a01b03166001600160a01b031681526020019081526020016000206112a3565b604080516020808201979097526001600160a01b0395861681830152939094166060840152608083019190915260a082015260c08082018990528251808303909101815260e0909101909152805191012090506000610a18826112a7565b90506000610a28828787876112f3565b9050896001600160a01b0316816001600160a01b031614610a90576040805162461bcd60e51b815260206004820152601e60248201527f45524332305065726d69743a20696e76616c6964207369676e61747572650000604482015290519081900360640190fd5b6001600160a01b038a16600090815260cb60205260409020610ab19061146d565b610abc8a8a8a610d1d565b50505050505050505050565b6001600160a01b03918216600090815260666020908152604080832093909416825291909152205490565b6101055460ff1681565b60fe546001600160a01b031681565b600054610100900460ff1680610b255750610b25611476565b80610b33575060005460ff16155b610b6e5760405162461bcd60e51b815260040180806020018281038252602e815260200180611b3a602e913960400191505060405180910390fd5b600054610100900460ff16158015610b99576000805460ff1961ff0019909116610100171660011790555b610105805461ff00191661010017905560408051633018205f60e01b815290516001600160a01b038a1691633018205f916004808301926020929190829003018186803b158015610be957600080fd5b505afa158015610bfd573d6000803e3d6000fd5b505050506040513d6020811015610c1357600080fd5b505160ff80546001600160a01b03199081166001600160a01b0393841617909155610100805482168a8416179055610101805482168984161790556101028054909116918716919091179055610103849055610104839055610105805460ff1916831515179055604080518082018252601c81527f455448555344432f313539373531313935352f323030502f55534443000000006020808301919091528251808401909352600983526806f45544855534443560bc1b9083015290610cd9828261147c565b610ce282611555565b610cec600861162b565b50508015610d00576000805461ff00191690555b5050505050505050565b60ff546001600160a01b031681565b3390565b6001600160a01b038316610d625760405162461bcd60e51b8152600401808060200182810382526024815260200180611bae6024913960400191505060405180910390fd5b6001600160a01b038216610da75760405162461bcd60e51b81526004018080602001828103825260228152602001806119e26022913960400191505060405180910390fd5b6001600160a01b03808416600081815260666020908152604080832094871680845294825291829020859055815185815291517f8c5be1e5ebec7d5bd14f71427d1e84f3dd0314c0f7b2291e5b200ac8c7c3b9259281900390910190a3505050565b6001600160a01b038316610e4e5760405162461bcd60e51b8152600401808060200182810382526025815260200180611b896025913960400191505060405180910390fd5b6001600160a01b038216610e935760405162461bcd60e51b815260040180806020018281038252602381526020018061199d6023913960400191505060405180910390fd5b610e9e838383611550565b610ee181604051806060016040528060268152602001611a04602691396001600160a01b038616600090815260656020526040902054919063ffffffff610f7216565b6001600160a01b038085166000908152606560205260408082209390935590841681522054610f16908263ffffffff61103c16565b6001600160a01b0380841660008181526065602090815260409182902094909455805185815290519193928716927fddf252ad1be2c89b69c2b068fc378daa952ba7f163c4a11628f55a4df523b3ef92918290030190a3505050565b600081848411156110015760405162461bcd60e51b81526004018080602001828103825283818151815260200191508051906020019080838360005b83811015610fc6578181015183820152602001610fae565b50505050905090810190601f168015610ff35780820380516001836020036101000a031916815260200191505b509250505060405180910390fd5b505050900390565b60006107256040518080611ac0605291396052019050604051809103902061102f611641565b611037611647565b61164d565b600082820183811015611096576040805162461bcd60e51b815260206004820152601b60248201527f536166654d6174683a206164646974696f6e206f766572666c6f770000000000604482015290519081900360640190fd5b9392505050565b6001600160a01b0382166110f8576040805162461bcd60e51b815260206004820152601f60248201527f45524332303a206d696e7420746f20746865207a65726f206164647265737300604482015290519081900360640190fd5b61110460008383611550565b606754611117908263ffffffff61103c16565b6067556001600160a01b038216600090815260656020526040902054611143908263ffffffff61103c16565b6001600160a01b03831660008181526065602090815260408083209490945583518581529351929391927fddf252ad1be2c89b69c2b068fc378daa952ba7f163c4a11628f55a4df523b3ef9281900390910190a35050565b6001600160a01b0382166111e05760405162461bcd60e51b8152600401808060200182810382526021815260200180611b686021913960400191505060405180910390fd5b6111ec82600083611550565b61122f816040518060600160405280602281526020016119c0602291396001600160a01b038516600090815260656020526040902054919063ffffffff610f7216565b6001600160a01b03831660009081526065602052604090205560675461125b908263ffffffff6116a316565b6067556040805182815290516000916001600160a01b038516917fddf252ad1be2c89b69c2b068fc378daa952ba7f163c4a11628f55a4df523b3ef9181900360200190a35050565b5490565b60006112b1611009565b82604051602001808061190160f01b81525060020183815260200182815260200192505050604051602081830303815290604052805190602001209050919050565b60007f7fffffffffffffffffffffffffffffff5d576e7357a4501ddfe92f46681b20a08211156113545760405162461bcd60e51b8152600401808060200182810382526022815260200180611a2a6022913960400191505060405180910390fd5b8360ff16601b148061136957508360ff16601c145b6113a45760405162461bcd60e51b8152600401808060200182810382526022815260200180611a9e6022913960400191505060405180910390fd5b604080516000808252602080830180855289905260ff88168385015260608301879052608083018690529251909260019260a080820193601f1981019281900390910190855afa1580156113fc573d6000803e3d6000fd5b5050604051601f1901519150506001600160a01b038116611464576040805162461bcd60e51b815260206004820152601860248201527f45434453413a20696e76616c6964207369676e61747572650000000000000000604482015290519081900360640190fd5b95945050505050565b80546001019055565b303b1590565b600054610100900460ff16806114955750611495611476565b806114a3575060005460ff16155b6114de5760405162461bcd60e51b815260040180806020018281038252602e815260200180611b3a602e913960400191505060405180910390fd5b600054610100900460ff16158015611509576000805460ff1961ff0019909116610100171660011790555b825161151c906068906020860190611904565b508151611530906069906020850190611904565b50606a805460ff191660121790558015611550576000805461ff00191690555b505050565b600054610100900460ff168061156e575061156e611476565b8061157c575060005460ff16155b6115b75760405162461bcd60e51b815260040180806020018281038252602e815260200180611b3a602e913960400191505060405180910390fd5b600054610100900460ff161580156115e2576000805460ff1961ff0019909116610100171660011790555b6115ea6116e5565b61160d82604051806040016040528060018152602001603160f81b815250611787565b61161682611847565b8015610797576000805461ff00191690555050565b606a805460ff191660ff92909216919091179055565b60975490565b60985490565b600083838361165a610717565b6040805160208082019690965280820194909452606084019290925260808301523060a0808401919091528151808403909101815260c090920190528051910120949350505050565b600061109683836040518060400160405280601e81526020017f536166654d6174683a207375627472616374696f6e206f766572666c6f770000815250610f72565b600054610100900460ff16806116fe57506116fe611476565b8061170c575060005460ff16155b6117475760405162461bcd60e51b815260040180806020018281038252602e815260200180611b3a602e913960400191505060405180910390fd5b600054610100900460ff16158015611772576000805460ff1961ff0019909116610100171660011790555b8015611784576000805461ff00191690555b50565b600054610100900460ff16806117a057506117a0611476565b806117ae575060005460ff16155b6117e95760405162461bcd60e51b815260040180806020018281038252602e815260200180611b3a602e913960400191505060405180910390fd5b600054610100900460ff16158015611814576000805460ff1961ff0019909116610100171660011790555b82516020808501919091208351918401919091206097919091556098558015611550576000805461ff0019169055505050565b600054610100900460ff16806118605750611860611476565b8061186e575060005460ff16155b6118a95760405162461bcd60e51b815260040180806020018281038252602e815260200180611b3a602e913960400191505060405180910390fd5b600054610100900460ff161580156118d4576000805460ff1961ff0019909116610100171660011790555b604051806052611a4c823960405190819003605201902060cc55508015610797576000805461ff00191690555050565b828054600181600116156101000203166002900490600052602060002090601f016020900481019282601f1061194557805160ff1916838001178555611972565b82800160010185558215611972579182015b82811115611972578251825591602001919060010190611957565b5061197e929150611982565b5090565b61064b91905b8082111561197e576000815560010161198856fe45524332303a207472616e7366657220746f20746865207a65726f206164647265737345524332303a206275726e20616d6f756e7420657863656564732062616c616e636545524332303a20617070726f766520746f20746865207a65726f206164647265737345524332303a207472616e7366657220616d6f756e7420657863656564732062616c616e636545434453413a20696e76616c6964207369676e6174757265202773272076616c75655065726d69742861646472657373206f776e65722c61646472657373207370656e6465722c75696e743235362076616c75652c75696e74323536206e6f6e63652c75696e7432353620646561646c696e652945434453413a20696e76616c6964207369676e6174757265202776272076616c7565454950373132446f6d61696e28737472696e67206e616d652c737472696e672076657273696f6e2c75696e7432353620636861696e49642c6164647265737320766572696679696e67436f6e74726163742945524332303a207472616e7366657220616d6f756e74206578636565647320616c6c6f77616e6365436f6e747261637420696e7374616e63652068617320616c7265616479206265656e20696e697469616c697a656445524332303a206275726e2066726f6d20746865207a65726f206164647265737345524332303a207472616e736665722066726f6d20746865207a65726f206164647265737345524332303a20617070726f76652066726f6d20746865207a65726f206164647265737345524332303a2064656372656173656420616c6c6f77616e63652062656c6f77207a65726fa2646970667358221220ece5295a462d6594fc96d91a01125d56009bc7ba8c6a9e487e4bbf18a7fcc1ad64736f6c634300060a0033",
  "linkReferences": {},
  "deployedLinkReferences": {}
}