{
  "_format": "hh-sol-artifact-1",
  "contractName": "MockAddressBook",
  "sourceName": "contracts/mocks/MockAddressBook.sol",
  "abi": [
    {
      "inputs": [],
      "name": "getController",
      "outputs": [
        {
          "internalType": "address",
          "name": "",
          "type": "address"
        }
      ],
      "stateMutability": "view",
      "type": "function"
    },
    {
      "inputs": [],
      "name": "getMarginCalculator",
      "outputs": [
        {
          "internalType": "address",
          "name": "",
          "type": "address"
        }
      ],
      "stateMutability": "view",
      "type": "function"
    },
    {
      "inputs": [],
      "name": "getMarginPool",
      "outputs": [
        {
          "internalType": "address",
          "name": "",
          "type": "address"
        }
      ],
      "stateMutability": "view",
      "type": "function"
    },
    {
      "inputs": [],
      "name": "getOracle",
      "outputs": [
        {
          "internalType": "address",
          "name": "",
          "type": "address"
        }
      ],
      "stateMutability": "view",
      "type": "function"
    },
    {
      "inputs": [],
      "name": "getOtokenFactory",
      "outputs": [
        {
          "internalType": "address",
          "name": "",
          "type": "address"
        }
      ],
      "stateMutability": "view",
      "type": "function"
    },
    {
      "inputs": [],
      "name": "getOtokenImpl",
      "outputs": [
        {
          "internalType": "address",
          "name": "",
          "type": "address"
        }
      ],
      "stateMutability": "view",
      "type": "function"
    },
    {
      "inputs": [],
      "name": "getWhitelist",
      "outputs": [
        {
          "internalType": "address",
          "name": "",
          "type": "address"
        }
      ],
      "stateMutability": "view",
      "type": "function"
    },
    {
      "inputs": [
        {
          "internalType": "address",
          "name": "_controller",
          "type": "address"
        }
      ],
      "name": "setController",
      "outputs": [],
      "stateMutability": "nonpayable",
      "type": "function"
    },
    {
      "inputs": [
        {
          "internalType": "address",
          "name": "_calculator",
          "type": "address"
        }
      ],
      "name": "setMarginCalculator",
      "outputs": [],
      "stateMutability": "nonpayable",
      "type": "function"
    },
    {
      "inputs": [
        {
          "internalType": "address",
          "name": "_pool",
          "type": "address"
        }
      ],
      "name": "setMarginPool",
      "outputs": [],
      "stateMutability": "nonpayable",
      "type": "function"
    },
    {
      "inputs": [
        {
          "internalType": "address",
          "name": "_oracleAddr",
          "type": "address"
        }
      ],
      "name": "setOracle",
      "outputs": [],
      "stateMutability": "nonpayable",
      "type": "function"
    },
    {
      "inputs": [
        {
          "internalType": "address",
          "name": "_otokenFactory",
          "type": "address"
        }
      ],
      "name": "setOtokenFactory",
      "outputs": [],
      "stateMutability": "nonpayable",
      "type": "function"
    },
    {
      "inputs": [
        {
          "internalType": "address",
          "name": "_newImpl",
          "type": "address"
        }
      ],
      "name": "setOtokenImpl",
      "outputs": [],
      "stateMutability": "nonpayable",
      "type": "function"
    },
    {
      "inputs": [
        {
          "internalType": "address",
          "name": "_newImpl",
          "type": "address"
        }
      ],
      "name": "setWhitelist",
      "outputs": [],
      "stateMutability": "nonpayable",
      "type": "function"
    }
  ],
  "bytecode": "0x608060405234801561001057600080fd5b506103dc806100206000396000f3fe608060405234801561001057600080fd5b50600436106100ea5760003560e01c8063a8de41d51161008c578063d01f63f511610066578063d01f63f5146101d5578063d94f323e146101dd578063e7cf784114610203578063e9f2e8be14610229576100ea565b8063a8de41d51461019f578063b508ac99146101a7578063cf28493f146101cd576100ea565b80637adbf973116100c85780637adbf97314610123578063833b1fce1461014b578063854cff2f1461015357806392eefe9b14610179576100ea565b80631ffaf0db146100ef5780633018205f14610113578063754863421461011b575b600080fd5b6100f761024f565b604080516001600160a01b039092168252519081900360200190f35b6100f761025e565b6100f761026d565b6101496004803603602081101561013957600080fd5b50356001600160a01b031661027c565b005b6100f761029e565b6101496004803603602081101561016957600080fd5b50356001600160a01b03166102ad565b6101496004803603602081101561018f57600080fd5b50356001600160a01b03166102cf565b6100f76102f1565b610149600480360360208110156101bd57600080fd5b50356001600160a01b0316610300565b6100f7610322565b6100f7610331565b610149600480360360208110156101f357600080fd5b50356001600160a01b0316610340565b6101496004803603602081101561021957600080fd5b50356001600160a01b0316610362565b6101496004803603602081101561023f57600080fd5b50356001600160a01b0316610384565b6002546001600160a01b031690565b6004546001600160a01b031690565b6007546001600160a01b031690565b600580546001600160a01b0319166001600160a01b0392909216919091179055565b6005546001600160a01b031690565b600180546001600160a01b0319166001600160a01b0392909216919091179055565b600480546001600160a01b0319166001600160a01b0392909216919091179055565b6000546001600160a01b031690565b600080546001600160a01b0319166001600160a01b0392909216919091179055565b6006546001600160a01b031690565b6001546001600160a01b031690565b600280546001600160a01b0319166001600160a01b0392909216919091179055565b600780546001600160a01b0319166001600160a01b0392909216919091179055565b600680546001600160a01b0319166001600160a01b039290921691909117905556fea2646970667358221220c7894fa396e8f2d1837b15843c8bae4edd54a35c8550d2cdb41e20159db7067164736f6c634300060a0033",
  "linkReferences": {},
  "deployedLinkReferences": {}
}