{
  "_format": "hh-sol-artifact-1",
  "contractName": "CompoundPricer",
  "sourceName": "contracts/pricers/CompoundPricer.sol",
  "abi": [
    {
      "inputs": [
        {
          "internalType": "address",
          "name": "_cToken",
          "type": "address"
        },
        {
          "internalType": "address",
          "name": "_underlying",
          "type": "address"
        },
        {
          "internalType": "address",
          "name": "_oracle",
          "type": "address"
        }
      ],
      "stateMutability": "nonpayable",
      "type": "constructor"
    },
    {
      "inputs": [],
      "name": "cToken",
      "outputs": [
        {
          "internalType": "contract CTokenInterface",
          "name": "",
          "type": "address"
        }
      ],
      "stateMutability": "view",
      "type": "function"
    },
    {
      "inputs": [],
      "name": "getPrice",
      "outputs": [
        {
          "internalType": "uint256",
          "name": "",
          "type": "uint256"
        }
      ],
      "stateMutability": "view",
      "type": "function"
    },
    {
      "inputs": [],
      "name": "oracle",
      "outputs": [
        {
          "internalType": "contract OracleInterface",
          "name": "",
          "type": "address"
        }
      ],
      "stateMutability": "view",
      "type": "function"
    },
    {
      "inputs": [
        {
          "internalType": "uint256",
          "name": "_expiryTimestamp",
          "type": "uint256"
        }
      ],
      "name": "setExpiryPriceInOracle",
      "outputs": [],
      "stateMutability": "nonpayable",
      "type": "function"
    },
    {
      "inputs": [],
      "name": "underlying",
      "outputs": [
        {
          "internalType": "contract ERC20Interface",
          "name": "",
          "type": "address"
        }
      ],
      "stateMutability": "view",
      "type": "function"
    }
  ],
  "bytecode": "0x608060405234801561001057600080fd5b506040516108f23803806108f28339818101604052606081101561003357600080fd5b50805160208201516040909201519091906001600160a01b0383166100895760405162461bcd60e51b815260040180806020018281038252602b8152602001806108c7602b913960400191505060405180910390fd5b6001600160a01b0382166100ce5760405162461bcd60e51b815260040180806020018281038252602f815260200180610898602f913960400191505060405180910390fd5b6001600160a01b0381166101135760405162461bcd60e51b815260040180806020018281038252602b81526020018061086d602b913960400191505060405180910390fd5b600180546001600160a01b039485166001600160a01b03199182161790915560028054938516938216939093179092556000805491909316911617905561070e8061015f6000396000f3fe608060405234801561001057600080fd5b50600436106100575760003560e01c806369e527da1461005c5780636f307dc3146100805780637dc0d1d014610088578063963672901461009057806398d5fdca146100af575b600080fd5b6100646100c9565b604080516001600160a01b039092168252519081900360200190f35b6100646100d8565b6100646100e7565b6100ad600480360360208110156100a657600080fd5b50356100f6565b005b6100b761023b565b60408051918252519081900360200190f35b6001546001600160a01b031681565b6002546001600160a01b031681565b6000546001600160a01b031681565b60008054600254604080516301957f8160e01b81526001600160a01b03928316600482015260248101869052815192909316926301957f819260448083019392829003018186803b15801561014a57600080fd5b505afa15801561015e573d6000803e3d6000fd5b505050506040513d604081101561017457600080fd5b50519050806101b45760405162461bcd60e51b815260040180806020018281038252602c8152602001806106ad602c913960400191505060405180910390fd5b60006101bf82610308565b600080546001546040805163ee53140960e01b81526001600160a01b0392831660048201526024810189905260448101869052905194955091169263ee5314099260648084019391929182900301818387803b15801561021e57600080fd5b505af1158015610232573d6000803e3d6000fd5b50505050505050565b60008054600254604080516341976e0960e01b81526001600160a01b0392831660048201529051849392909216916341976e0991602480820192602092909190829003018186803b15801561028f57600080fd5b505afa1580156102a3573d6000803e3d6000fd5b505050506040513d60208110156102b957600080fd5b50519050806102f95760405162461bcd60e51b81526004018080602001828103825260258152602001806106676025913960400191505060405180910390fd5b61030281610308565b91505090565b600080600260009054906101000a90046001600160a01b03166001600160a01b031663313ce5676040518163ffffffff1660e01b815260040160206040518083038186803b15801561035957600080fd5b505afa15801561036d573d6000803e3d6000fd5b505050506040513d602081101561038357600080fd5b50516001546040805163313ce56760e01b8152905160ff90931693506000926001600160a01b039092169163313ce56791600480820192602092909190829003018186803b1580156103d457600080fd5b505afa1580156103e8573d6000803e3d6000fd5b505050506040513d60208110156103fe57600080fd5b50516001546040805163182df0f560e01b815290519293506000926001600160a01b039092169163182df0f591600480820192602092909190829003018186803b15801561044b57600080fd5b505afa15801561045f573d6000803e3d6000fd5b505050506040513d602081101561047557600080fd5b505190506104c261048d84601263ffffffff6104cb16565b600a0a6104b684600a0a6104aa898661052e90919063ffffffff16565b9063ffffffff61052e16565b9063ffffffff61058716565b95945050505050565b600082820183811015610525576040805162461bcd60e51b815260206004820152601b60248201527f536166654d6174683a206164646974696f6e206f766572666c6f770000000000604482015290519081900360640190fd5b90505b92915050565b60008261053d57506000610528565b8282028284828161054a57fe5b04146105255760405162461bcd60e51b815260040180806020018281038252602181526020018061068c6021913960400191505060405180910390fd5b600061052583836040518060400160405280601a81526020017f536166654d6174683a206469766973696f6e206279207a65726f000000000000815250600081836106505760405162461bcd60e51b81526004018080602001828103825283818151815260200191508051906020019080838360005b838110156106155781810151838201526020016105fd565b50505050905090810190601f1680156106425780820380516001836020036101000a031916815260200191505b509250505060405180910390fd5b50600083858161065c57fe5b049594505050505056fe436f6d706f756e645072696365723a20756e6465726c79696e672070726963652069732030536166654d6174683a206d756c7469706c69636174696f6e206f766572666c6f77436f6d706f756e645072696365723a20756e6465726c79696e67207072696365206e6f742073657420796574a26469706673582212203bc5053a1f3f4ea70ea3c6b473feb8263d29612bdbad448fd3028e2ae81481e564736f6c634300060a0033436f6d706f756e645072696365723a206f7261636c6520616464726573732063616e206e6f742062652030436f6d706f756e645072696365723a20756e6465726c79696e6720616464726573732063616e206e6f742062652030436f6d706f756e645072696365723a2063546f6b656e20616464726573732063616e206e6f742062652030",
  "linkReferences": {},
  "deployedLinkReferences": {}
}