{
  "contractName": "MathTester",
  "abi": [
    {
      "inputs": [
        {
          "internalType": "uint256",
          "name": "a",
          "type": "uint256"
        },
        {
          "internalType": "uint256",
          "name": "b",
          "type": "uint256"
        }
      ],
      "name": "mul",
      "outputs": [
        {
          "internalType": "uint256",
          "name": "",
          "type": "uint256"
        }
      ],
      "stateMutability": "pure",
      "type": "function"
    },
    {
      "inputs": [
        {
          "internalType": "uint256",
          "name": "a",
          "type": "uint256"
        },
        {
          "internalType": "uint256",
          "name": "b",
          "type": "uint256"
        }
      ],
      "name": "div",
      "outputs": [
        {
          "internalType": "uint256",
          "name": "",
          "type": "uint256"
        }
      ],
      "stateMutability": "pure",
      "type": "function"
    },
    {
      "inputs": [
        {
          "internalType": "uint256",
          "name": "a",
          "type": "uint256"
        },
        {
          "internalType": "uint256",
          "name": "b",
          "type": "uint256"
        }
      ],
      "name": "sub",
      "outputs": [
        {
          "internalType": "uint256",
          "name": "",
          "type": "uint256"
        }
      ],
      "stateMutability": "pure",
      "type": "function"
    },
    {
      "inputs": [
        {
          "internalType": "uint256",
          "name": "a",
          "type": "uint256"
        },
        {
          "internalType": "uint256",
          "name": "b",
          "type": "uint256"
        }
      ],
      "name": "add",
      "outputs": [
        {
          "internalType": "uint256",
          "name": "",
          "type": "uint256"
        }
      ],
      "stateMutability": "pure",
      "type": "function"
    }
  ],
  "bytecode": "0x608060405234801561001057600080fd5b50610604806100206000396000f3fe608060405234801561001057600080fd5b506004361061004c5760003560e01c8063771602f714610051578063a391c15b1461009d578063b67d77c5146100e9578063c8a4ac9c14610135575b600080fd5b6100876004803603604081101561006757600080fd5b810190808035906020019092919080359060200190929190505050610181565b6040518082815260200191505060405180910390f35b6100d3600480360360408110156100b357600080fd5b81019080803590602001909291908035906020019092919050505061019e565b6040518082815260200191505060405180910390f35b61011f600480360360408110156100ff57600080fd5b8101908080359060200190929190803590602001909291905050506101ff565b6040518082815260200191505060405180910390f35b61016b6004803603604081101561014b57600080fd5b81019080803590602001909291908035906020019092919050505061021c565b6040518082815260200191505060405180910390f35b6000610196828461028590919063ffffffff16565b905092915050565b6000806101bc670de0b6b3a76400008561030d90919063ffffffff16565b90506101f6836101e86101d960028761039390919063ffffffff16565b8461028590919063ffffffff16565b61039390919063ffffffff16565b91505092915050565b600061021482846103dd90919063ffffffff16565b905092915050565b600080610232838561030d90919063ffffffff16565b905061027c670de0b6b3a764000061026e61025f6002670de0b6b3a764000061039390919063ffffffff16565b8461028590919063ffffffff16565b61039390919063ffffffff16565b91505092915050565b600080828401905083811015610303576040517f08c379a000000000000000000000000000000000000000000000000000000000815260040180806020018281038252601b8152602001807f536166654d6174683a206164646974696f6e206f766572666c6f77000000000081525060200191505060405180910390fd5b8091505092915050565b600080831415610320576000905061038d565b600082840290508284828161033157fe5b0414610388576040517f08c379a00000000000000000000000000000000000000000000000000000000081526004018080602001828103825260218152602001806105ae6021913960400191505060405180910390fd5b809150505b92915050565b60006103d583836040518060400160405280601a81526020017f536166654d6174683a206469766973696f6e206279207a65726f000000000000815250610427565b905092915050565b600061041f83836040518060400160405280601e81526020017f536166654d6174683a207375627472616374696f6e206f766572666c6f7700008152506104ed565b905092915050565b600080831182906104d3576040517f08c379a00000000000000000000000000000000000000000000000000000000081526004018080602001828103825283818151815260200191508051906020019080838360005b8381101561049857808201518184015260208101905061047d565b50505050905090810190601f1680156104c55780820380516001836020036101000a031916815260200191505b509250505060405180910390fd5b5060008385816104df57fe5b049050809150509392505050565b600083831115829061059a576040517f08c379a00000000000000000000000000000000000000000000000000000000081526004018080602001828103825283818151815260200191508051906020019080838360005b8381101561055f578082015181840152602081019050610544565b50505050905090810190601f16801561058c5780820380516001836020036101000a031916815260200191505b509250505060405180910390fd5b506000838503905080915050939250505056fe536166654d6174683a206d756c7469706c69636174696f6e206f766572666c6f77a26469706673582212206224a191358006f2ecde3750ca49dcae74b3735553ba2e45fe86639cb62245ff64736f6c63430006000033",
  "source": "/*\n * Safe Float Math contract. Copyright © 2020 by Opyn.co .\n * Author: Opyn\n */\npragma solidity 0.6.0;\n\nimport \"./SafeUnsignedFloatMath.sol\";\n\nimport {SafeMath} from \"@openzeppelin/contracts/math/SafeMath.sol\";\n/**\n * @title SafeUnsignedFloatMath\n * @dev unsigned math operations with safety checks that revert on error.\n */\n\n contract MathTester { \n\n     using SafeMath for uint256;\n    \n     // Assumes 18 digits precision of decimals.\n    uint256 constant decimals = 1e18;\n\n    /**\n     * @dev Multiplies two unsigned fixed points and maintains precision.\n     * rounds down or up based on last digit.\n     * reverts on overflow.\n     * Eg. 0.4 * 0.4 = 0.16,\n     * Input: a = 4 * 1e18, b = 4 * 1e18\n     * Output: 16 * 1e18\n     */\n    function mul(uint256 a, uint256 b) external pure returns (uint256) {\n        uint256 c = a.mul(b);\n        return (c.add(decimals.div(2))).div(decimals);\n    }\n\n    /**\n     * @dev Division of two unsigned fixed point numbers, rounding the quotient, reverts on division by zero.\n     */\n    function div(uint256 a, uint256 b) external pure returns (uint256) {\n        uint256 c = a.mul(decimals);\n        return (c.add(b.div(2))).div(b);\n    }\n\n    /**\n     * @dev Subtracts two unsigned fixed point numbers, reverts on overflow.\n     */\n    function sub(uint256 a, uint256 b) external pure returns (uint256) {\n        return a.sub(b);\n    }\n\n    /**\n     * @dev Adds two unsigned fixed point numbers, reverts on overflow.\n     */\n    function add(uint256 a, uint256 b) external pure returns (uint256) {\n        return a.add(b);\n    }\n    \n\n }",
  "sourcePath": "/Users/aparnakrishnan/Desktop/Opyn/OpynV2/contracts/MathTester.sol",
  "compiler": {
    "name": "solc",
    "version": "0.6.0+commit.26b70077.Emscripten.clang"
  },
  "schemaVersion": "3.2.0",
  "updatedAt": "2020-06-17T04:17:53.086Z",
  "devdoc": {
    "details": "unsigned math operations with safety checks that revert on error.",
    "methods": {
      "add(uint256,uint256)": {
        "details": "Adds two unsigned fixed point numbers, reverts on overflow."
      },
      "div(uint256,uint256)": {
        "details": "Division of two unsigned fixed point numbers, rounding the quotient, reverts on division by zero."
      },
      "mul(uint256,uint256)": {
        "details": "Multiplies two unsigned fixed points and maintains precision. rounds down or up based on last digit. reverts on overflow. Eg. 0.4 * 0.4 = 0.16, Input: a = 4 * 1e18, b = 4 * 1e18 Output: 16 * 1e18"
      },
      "sub(uint256,uint256)": {
        "details": "Subtracts two unsigned fixed point numbers, reverts on overflow."
      }
    },
    "title": "SafeUnsignedFloatMath"
  },
  "userdoc": {
    "methods": {}
  }
}