{
  "_format": "hh-sol-artifact-1",
  "contractName": "MockController",
  "sourceName": "contracts/mocks/MockController.sol",
  "abi": [
    {
      "inputs": [],
      "name": "addressBook",
      "outputs": [
        {
          "internalType": "address",
          "name": "",
          "type": "address"
        }
      ],
      "stateMutability": "view",
      "type": "function"
    },
    {
      "inputs": [
        {
          "internalType": "address",
          "name": "_addressBook",
          "type": "address"
        },
        {
          "internalType": "address",
          "name": "_owner",
          "type": "address"
        }
      ],
      "name": "initialize",
      "outputs": [],
      "stateMutability": "nonpayable",
      "type": "function"
    },
    {
      "inputs": [],
      "name": "owner",
      "outputs": [
        {
          "internalType": "address",
          "name": "",
          "type": "address"
        }
      ],
      "stateMutability": "view",
      "type": "function"
    },
    {
      "inputs": [
        {
          "internalType": "address",
          "name": "_callee",
          "type": "address"
        },
        {
          "internalType": "bytes",
          "name": "_data",
          "type": "bytes"
        }
      ],
      "name": "test0xCallee",
      "outputs": [],
      "stateMutability": "nonpayable",
      "type": "function"
    },
    {
      "inputs": [
        {
          "internalType": "address",
          "name": "_otoken",
          "type": "address"
        },
        {
          "internalType": "address",
          "name": "_account",
          "type": "address"
        },
        {
          "internalType": "uint256",
          "name": "_amount",
          "type": "uint256"
        }
      ],
      "name": "testBurnOtoken",
      "outputs": [],
      "stateMutability": "nonpayable",
      "type": "function"
    },
    {
      "inputs": [
        {
          "internalType": "address",
          "name": "_otoken",
          "type": "address"
        },
        {
          "internalType": "address",
          "name": "_account",
          "type": "address"
        },
        {
          "internalType": "uint256",
          "name": "_amount",
          "type": "uint256"
        }
      ],
      "name": "testMintOtoken",
      "outputs": [],
      "stateMutability": "nonpayable",
      "type": "function"
    }
  ],
  "bytecode": "0x608060405234801561001057600080fd5b50610410806100206000396000f3fe608060405234801561001057600080fd5b50600436106100625760003560e01c80632814d662146100675780632cbd54971461009f578063485cc955146101555780634eaee251146101835780638da5cb5b146101b9578063f5887cdd146101dd575b600080fd5b61009d6004803603606081101561007d57600080fd5b506001600160a01b038135811691602081013590911690604001356101e5565b005b61009d600480360360408110156100b557600080fd5b6001600160a01b0382351691908101906040810160208201356401000000008111156100e057600080fd5b8201836020820111156100f257600080fd5b8035906020019184600183028401116401000000008311171561011457600080fd5b91908080601f016020809104026020016040519081016040528093929190818152602001838380828437600092019190915250929550610262945050505050565b61009d6004803603604081101561016b57600080fd5b506001600160a01b038135811691602001351661032e565b61009d6004803603606081101561019957600080fd5b506001600160a01b0381358116916020810135909116906040013561035c565b6101c16103bc565b604080516001600160a01b039092168252519081900360200190f35b6101c16103cb565b826001600160a01b03166351b0a41083836040518363ffffffff1660e01b815260040180836001600160a01b03166001600160a01b0316815260200182815260200192505050600060405180830381600087803b15801561024557600080fd5b505af1158015610259573d6000803e3d6000fd5b50505050505050565b604080516309c23da560e41b81523360048201818152602483019384528451604484015284516001600160a01b03871694639c23da5094879392606490910190602085019080838360005b838110156102c55781810151838201526020016102ad565b50505050905090810190601f1680156102f25780820380516001836020036101000a031916815260200191505b509350505050600060405180830381600087803b15801561031257600080fd5b505af1158015610326573d6000803e3d6000fd5b505050505050565b600080546001600160a01b039384166001600160a01b03199182161790915560018054929093169116179055565b826001600160a01b03166356d878f783836040518363ffffffff1660e01b815260040180836001600160a01b03166001600160a01b0316815260200182815260200192505050600060405180830381600087803b15801561024557600080fd5b6001546001600160a01b031681565b6000546001600160a01b03168156fea2646970667358221220e66ab073174d0d6f6c6709046aa70af2c8cc276f6487519a12b9a41c83ef109564736f6c634300060a0033",
  "linkReferences": {},
  "deployedLinkReferences": {}
}